:020000040800F2
:1060000000100020B56D0008B16D00089D15010855
:10601000A1AD0008B16D0008B16D0008B16D0008B8
:10602000B16D0008B16D0008B16D0008F18B010879
:10603000B16D000874790308818B0108236701089A
:1060400071730008B16D0008B16D0008B16D0008F2
:10605000B16D0008B16D0008B16D0008B16D0008A8
:10606000B16D0008B16D0008B16D0008B16D000898
:10607000B16D0008316C0008216C0008B16D00089A
:10608000B16D0008B16D0008CDBD0008C51701084D
:10609000B16D0008B16D0008B16D0008B16D000868
:1060A000B16D0008B16D000805780008DD770008C3
:1060B000B16D0008B16D0008011B02080D25020832
:1060C000C5240208C1240208D91C020809250208B7
:1060D000C9240208E1240208CD24020891250208FF
:1060E00071250208B16D0008B16D0008B16D00089E
:1060F000B16D000899A20008B16D0008B16D0008EB
:10610000B16D0008B16D0008B16D0008B16D0008F7
:10611000B16D0008B16D0008556A0308B16D000843
:10612000B16D0008B16D0008B16D0008B16D0008D7
:10613000B16D0008B16D0008B16D0008B16D0008C7
:10614000B16D0008B16D0008B16D0008453B010854
:10615000B16D0008B16D0008B16D00082D05020891
:10616000B16D0008B16D000855E901085BE901084F
:1061700010B5054C237833B9044B13B1044800E043
:1061800000BF0123237010BDC415002000000000D3
:1061900044F6030808B5034B1BB10349034800E06C
:1061A00000BF08BD00000000C815002044F6030829
:1061B000A3F5803A704700BF174B002B08BF134B65
:1061C0009D46FFF7F5FF00218B460F461348144A02
:1061D000121A00F063F80E4B002B00D098470D4BBD
:1061E000002B00D098470020002104000D000D482E
:1061F000002802D00C4800E000BF00F02BF820007F
:10620000290000F01EFC00F011F800BF000008009B
:10621000000000000000000000100020C415002055
:10622000C4C40020000000000000000008B5074BB7
:10623000044613B1002100E000BF054B1868836AD3
:1062400003B19847204631F0F7FA00BF0000000084
:106250008878030870B50D4D00260D4C641BA41002
:10626000A64209D10B4D00260B4C31F0F1FA641B0C
:10627000A410A64205D170BD55F8043B01369847DD
:10628000EEE755F8043B01369847F2E7BC150020CD
:10629000BC150020BC150020C01500200244034698
:1062A000934200D1704703F8011BF9E708B5034B8F
:1062B0001870722006F072FE08BD00BFA210002008
:1062C00010B5B8B0104B1B685C6804E007F0C4F868
:1062D000694605F038FF00226946204610F0EAFFC3
:1062E00001280ED19DF80030802BEFD003D37E33F0
:1062F000DBB2022BEFD94FF4AF71044829F04CFB0D
:10630000E9E738B010BD00BF081600208C780308FC
:1063100010B582B0002300930B4B0C4A01210520DD
:1063200010F063FE01460A4B18600A4C03230A4A28
:106330001268204629F06DF8204606F029FE06F086
:1063400055FE02B010BD00BF1C160020F015002045
:10635000181600200C160020F815002008B501239F
:106360000BF084F908BD000000B583B00021084699
:1063700005F082FD0BF056FA154B00221A701548F5
:1063800009F080FE144805F08DFF0DF1070029F09B
:10639000D3FB9DF8070007F0B7F870B19DF8072010
:1063A0000E4B1A720E4B022201210E4824F004F803
:1063B00038B1002003B05DF804FB0B4829F0C6FBA0
:1063C000F0E74FF41771094829F0E6FAF1E700BF4A
:1063D000A21000205D6300087016002064100020E9
:1063E000BC780308856500086C1000208C780308D1
:1063F000C378012B00D0704700B58BB044238DF8D3
:10640000043000202EF096F8084B1B684FF4FA7207
:1064100001A9986829F001F810B90BB05DF804FBE8
:1064200040F27F31024829F0B7FAF6E7081600205B
:106430008C780308014B1878704700BF6C16002059
:1064400008B5FFF7F7FF08BD002070470020704730
:1064500008B5FFF7EFFF08BD08B5FFF7F1FF08BD6E
:1064600008B5FFF7F1FF08BD00B583B00D4B1B6801
:1064700063B1012301AA00210A4800682EF082FAC4
:1064800050B99DF8040003B05DF804FB4FF48C6133
:10649000054829F081FAECE740F26441024829F00E
:1064A0007BFAEEE7701600208C78030810B50446DE
:1064B0000B4B1B6843B101232246002108480068AA
:1064C0002EF0BCFA30B910BD40F26F41054829F0FA
:1064D00063FAF0E740F27241024829F05DFAF2E710
:1064E000701600208C78030808B10020704740F235
:1064F0000240704700B583B06B4683E8030093E821
:10650000030008F0C5FB03B05DF804FB7047000012
:1065100010B40246044C234600685168926807C3D1
:1065200020465DF8044B7047E415002008B5FFF7DE
:10653000EFFF08BD0023038002230B80704700009B
:106540002DE9F04180460F4616461D462DF04CFFC2
:1065500004461F2809D8012388F800303B703470A6
:1065600028462DF043FF002306E040F2C5410448D1
:1065700029F012FAEFE70133A342FCD3BDE8F08122
:106580008C78030838B5044601202DF0D3FF11F0B4
:1065900069FD164D2860164B1C6005F0A5FC002314
:1065A000144A2146286806F0A7FEFFF7B1FE7120C5
:1065B00006F0F4FC0AF07EFB0BF052F800200BF022
:1065C000E5F80022114610460AF014F800230A4AA2
:1065D00004210A4828F0A4FE00224FF0FF310748AA
:1065E00028F0ADFEB0F1FF3FF6D138BDF815002020
:1065F00008160020BC780308D0780308FC1500209A
:1066000008B5074B1B7813B1FF2B04D008BD002041
:106610000AF05EFBFAE701200AF05AFBF6E700BF3A
:106620006C16002010B5054B1870054C2070FFF754
:10663000E7FF2046FFF73AFF012010BD6C1600204F
:10664000E015002010B582B00F4C2168012008F041
:1066500013F8002211461046FFF7E4FF06F084FE0F
:106660002DF0DAFE019004230DEB03024FF4A2217A
:1066700020682EF0E3F908B902B010BD40F2E23113
:10668000024829F089F9F7E7701600208C78030892
:1066900010B5A2B04F4B1B68DC6831E09DF80C30A0
:1066A00073B3029B63B304A99DF80D00984727E0DC
:1066B0009DF808304BB1052B17D0072B19D0082BAC
:1066C0001ED1302006F06AFC1AE006F0DFFE20B191
:1066D00006F0B0FE06F03AFB08B1FFF7B3FF322038
:1066E00006F05CFC06F00EFC0AE0742006F056FC96
:1066F00006E0322006F052FC02E0732006F04EFC69
:10670000002201A9204610F0D5FD012860D19DF896
:106710000430C03B282B55D801A252F823F000BF0B
:106720009D66000801670008C5670008B16600089B
:10673000FB6600080167000801670008C5670008DC
:10674000C5670008C5670008C5670008C567000879
:10675000C5670008C5670008C5670008C567000869
:10676000C5670008C5670008C5670008C567000859
:10677000C5670008C5670008C5670008C567000849
:10678000C5670008C5670008C5670008C567000839
:106790000167000801670008C5670008C5670008B1
:1067A000C5670008C5670008C5670008C567000819
:1067B000C5670008C5670008C5670008C567000809
:1067C0000167000840F2DD11034829F0E5F897E77A
:1067D00022B010BD081600208C78030808B50B4BBA
:1067E0001B683BB1094B18682EF07CF940B9FFF7E4
:1067F00029FF08BD40F20E41054829F0CDF8F1E728
:1068000040F21141024829F0C7F8F0E77016002065
:106810008C78030800B583B004230DEB03024FF41A
:10682000A2210D4800682EF0ADF888B92DF0F4FDD6
:10683000FFF71AFE094B1870C2B2094B1A70064BCB
:106840001968002007F018FF012003B05DF804FB71
:10685000FFF7C4FF0020F8E770160020E0150020C5
:106860006C16002008B5FFF7D5FF07F0E3F800210C
:10687000044806F09FFA042005F0EEFC702006F0B4
:106880008DFB08BDA410002010B50A4B1B78FF2B10
:106890000CD0084BFF221A70074C064B1B78237054
:1068A000FFF7AEFE2046FFF701FE10BD014B0022B0
:1068B0001A70F1E76C160020E015002010B50446B0
:1068C000762809D0302807D04C4B1B78032B33D8BF
:1068D000DFE803F0081B4F8C0320FFF7E7FC08F00C
:1068E000CDFAF1E7732C0AD0712C0BD001220021D4
:1068F000084608F033FE0120FFF7D8FC1CE0FFF744
:106900006DFFF1E7FFF7AEFF16E0722C15D0732C88
:1069100017D0752C01D0312C0AD1394B1B689B69DB
:106920001B789BB1032005F097FC0220FFF7BEFC0B
:10693000772C0FD0782C18D010BD00200AF026FF3D
:10694000E5E7FFF74BFFFFF765FFE2E7012005F002
:1069500083FCEAE7FFF798FF2A48FFF7D9FD0146D5
:106960000122294806F0A6FBE4E7002005F085FC9B
:10697000E2E7722C16D0732C18D0752C1BD0332C58
:1069800019D0322CD8D1042005F066FC0120FFF785
:106990008DFC0AF011FF30B301221C491C4806F09F
:1069A00089FBC9E702200AF0F1FEE4E7FFF716FFD2
:1069B000FFF730FFE1E7002005F04EFC00200AF071
:1069C000E5FE042005F048FC0120FFF76FFC0AF00B
:1069D000F3FE28B101220D490D4806F06BFBD0E70C
:1069E00009F042FBF6E709F03FFBD5E7732CA3D192
:1069F000FFF7F4FE2DF0E6FC9EE700BFA21000209A
:106A0000081600207416002091EC00087010002079
:106A100075FD000800B583B003E09DF80700FFF79F
:106A20004DFF00220DF10701044B186810F042FCE5
:106A30000128F2D003B05DF804FB00BF1816002057
:106A4000704708B505F0D8F9FFF7FAFF05F0E0F94F
:106A5000002008BD704708B50321802001F072FFB7
:106A600003214FF4806001F06DFF09214FF4C060F5
:106A700001F068FF09214FF4F06001F063FF092184
:106A80003E2001F05FFF09212D2001F05BFF09216D
:106A9000512001F057FF002008BD000010B52B4B1E
:106AA0005A6E02F4803203F580514FF4803048660C
:106AB000586E4FF000434B66254B596C01F00101B5
:106AC0004AF6CD341C64224B5B6B13F0010FFAD1F4
:106AD000204B01245C601E4B1B6B13F0010FFAD09E
:106AE0001D4BD3F8083613F0020F03D1194B4FF4A6
:106AF0008024DC6511B1164B18491964002803DBAA
:106B0000174B4FF0004159661AB9154B4FF48032BC
:106B10005A6603F0CFFA00F09FF803F03BFA03F057
:106B2000E5FA03F067FA03F0ABFAFFF794FF03F01E
:106B30004BFA00F087F800F0DFFB00F077FE0FF073
:106B4000FDFD2DF0A9FB04F055FA10BD00800050AA
:106B5000004009500060095000C007503254FFFF48
:106B600000A0005008B50FF019FE08BD08B500F0F0
:106B70000DFE08BD08B503F003FA2DF099FB08BD22
:106B8000704708B500F048F808BD08B500F058F89F
:106B900004F054FE03F0AEFA0EF026F804F02EF8DE
:106BA0000BF0C8FFFFF7EDFF08BD000010B59AB06D
:106BB000164C0DF1480CA646BEE80F00ACE80F00DD
:106BC0009EE80F008CE80F000DF1180C04F1200E68
:106BD000BEE80F00ACE80F00BEE80F00ACE80F0005
:106BE0009EE80F008CE80F000DF1080C04F1500333
:106BF0000FCB8CE80F00064B009306AB12AA614640
:106C0000044803F0FFFB1AB010BD00BFE078030892
:106C100080160020FC17002008B5FFF7C7FF08BD4D
:106C200008B5024B186803F009FD08BDFC170020E9
:106C300008B5024B186803F001FD08BDFC170020E1
:106C40000F20704708B501213A2001F0F9F9FFF74C
:106C500001FF00F013F808BD08B501213A2001F04A
:106C6000EFF908BD014B40221A64704700E0035061
:106C7000014B40221A64704700D00350F0B58FB02A
:106C8000464C09AD26460FCE0FC533682B600DF17B
:106C9000040C14340FCCACE80F0094E80F008CE81F
:106CA0000F0001213A2001F0CBF90121572001F01A
:106CB000C7F901258DF8095000248DF80840384B9C
:106CC0000B9301AB0D93374F09A9384602F012FE22
:106CD0002B4604222946022002F0A4FE23462A461F
:106CE0000221084602F09EFE2B46042203210220C8
:106CF00002F098FE2B4604220621204602F092FE66
:106D0000294E2A4BC6F8F8344FF00213C6F8F43473
:106D1000A3F58033C6F8FC341C23C6F8E4344FF4E2
:106D2000487005F079F8FFF79DFF142005F074F81E
:106D3000FFF79EFF232005F06FF8FFF793FFB921BF
:106D4000384602F058FBFFF793FF234622462946B8
:106D5000022002F067FE234622460221084602F086
:106D600061FE2B4622460321022002F05BFE2B46E9
:106D700022460621204602F055FE384602F0A8FAC7
:106D8000C6F8F844C6F8F444C6F8FC44C6F8E4442F
:106D90002146572001F054F90FB0F0BD40790308A7
:106DA000E070720000000A5000C0035002000300AF
:106DB000FEE7000008B500F02DF8124A0AE010685E
:106DC000516850F8230041F82300013391688B4249
:106DD000F5D30C320C4B9A4201D20023F6E70B4A52
:106DE00008E01168002041F82300013351688B420C
:106DF000F7D30832064B9A4201D20023F6E7FFF799
:106E0000DBF900BFE4F80308F0F80308F0F8030822
:106E1000F0F8030810B4144B144A9A60D3F8882091
:106E200042F47002C3F88820114A4FF48041916601
:106E3000104901F500524FF0FF3010660E485066C1
:106E40000220C3F8D000BFF34F8FBFF36F8F0B4802
:106E50000124C0F880414FF44033D36004600B61DB
:106E60005DF8044B704700BF00ED00E000600008D3
:106E700000900050008000447FFF7F0100E100E0AF
:106E8000014B1868704700BFC010002008B5094BBF
:106E90001B6F03F00703022B04D0032B05D0012B3B
:106EA00006D0FEE7FFF7ECFF03E0034B186800E0B5
:106EB000024808BD00800050C4100020002D3101A0
:106EC00008B5FFF7E3FF054B1B6FC3F30333013333
:106ED000B0FBF3F0024B186008BD00BF008000500B
:106EE000BC1000200048704700B4C404014B18686F
:106EF000704700BFC410002008B5064B1860064B51
:106F00001B6F03F00703032B00D008BDFFF7D8FF6A
:106F1000FBE700BFC4100020008000500020704735
:106F200000487047002D31014FF0B4439868C0F31A
:106F300004400C2808D8DFE800F009070707070716
:106F400022181A071C1E2000002070474FF0B4437F
:106F50009B6803F04073B3F1807F12D0B3F1007FE0
:106F600011D003B170470948704709487047094874
:106F700070470948704709487047094870470948F1
:106F80007047094870470948ECE700BF00093D0019
:106F90000024F400C0EA210180BA8C010048E80115
:106FA000005A6202405DC60080841E0040420F000D
:106FB0004FF4004070474FF47A707047014B1868E7
:106FC000704700BFC8100020BFF34F8F0549CA6843
:106FD00002F4E062044B1343CB60BFF34F8F00BF5A
:106FE000FDE700BF00ED00E00400FA050D4B1B6853
:106FF000B3F1FF3F06D04FF4801202FA03F30A4ABE
:1070000013667047094B1B785BB9094B4FF400724C
:107010005A6603F5A6235B681BB9034B4FF4801235
:107020001A667047CC1000200090004449180020D8
:1070300000900050084B1B68B3F1FF3F0AD1074B8B
:107040001B783BB9064B5B6813F0010F02D0024B73
:1070500000221A60704700BFCC10002049180020A1
:1070600000C005504FF000639B6A03F17842B2F50F
:10707000C04F07D21A680B4B9A4207D00023037007
:10708000836070470023037083607047012303709F
:107090004FF000639A6A926842609B6A9B698360C2
:1070A000704700BF07B0CD5E08B54FF0005340F207
:1070B00002221A804FF20F025A80FFF785FF4FF02D
:1070C00000639B6A03F17843B3F5C04F19D230B522
:1070D00085B005460C4601238DF804300023029349
:1070E000039301A8FFF7BEFF039B13F4806F06D044
:1070F0004FF000639B6A1B6C21462846984705B0F9
:1071000030BD7047494B1B78002B66D110B582B05B
:10711000044600230193009300285CD0434B0122D6
:107120001A7001F0DAFE424B186019F0D5F9414BA4
:107130001B78002B55D0404B5A6E22619A6E6261CB
:1071400003F580524FF4804393663C4B5968A1612C
:107150003B499960196E2160596E6160196CA1609C
:10716000596CE1603749086C1864496C5964012115
:1071700051661B6E13F4005F44D0334BDB6813F091
:10718000010FFAD1FFF732FF304B04221A664FF499
:1071900000721A6600F040FAB0F1FF3F38D12B4C74
:1071A000082323664FF4805323664FF00063236661
:1071B0004FF400036366694601A8FFF780FF019B57
:1071C0002366009B63661B4B1B7823B1204A116822
:1071D00021665268626602B010BD144B02221A701A
:1071E000704700F023FB0028A5D10823184A19494D
:1071F0001948006813F070FB00289CD10D4B012248
:107200001A7098E7154BDB6813F0010FFAD1B9E754
:1072100000F002FA40F201139842C0D00B4B4FF439
:1072200000521A664FF480421A66B8E74A180020E6
:107230004C180020481800200080005000800044B6
:1072400055CEAC0000C00054000004400090004443
:107250004018002000710800D410002000000450E5
:107260001F4B1B78012B03D01D4B01221A70704756
:1072700010B5044620B300F0CFF9B0F1FF3F20D1A4
:107280002268184B1A6662685A66A2681A64E26835
:107290005A64A36913F0010F02D0124B00229A60C6
:1072A000FFF7C8FE2269104B5A6662699A6619F0A8
:1072B0002FF90E4B186801F016FE094B00221A70C8
:1072C00010BD00F0A9F940F201139842D8D0084B44
:1072D00001225A66074BDB6813F0010FFAD1CFE7A2
:1072E0004A18002000800044008000504C18002004
:1072F000009000400000044038B54FF000639B6AE6
:1073000003F17843B3F5C04F26D2154B1B781BB160
:10731000022B01D0002421E0124D2846FFF7F2FE97
:1073200011490120C1F88001104B03F500544FF4BE
:107330008032E260086003F580531A614FF0006309
:107340009B6ADB69984704462846FFF789FF2CB9FA
:10735000034B01221A7001E04FF48174204638BDBE
:10736000491800202418002000E100E000800044BB
:107370002C4B1B7803B9FEE700B583B000230093C4
:10738000019308236A4628492848006813F0A4FAA4
:1073900048BB274BD3F840311F2B1AD9244BD3F8C5
:1073A0004021203A012303FA02F2019B1343019387
:1073B00008236A461C491D48006813F043FA4FF041
:1073C000005340F20B221A804FF20F025A80FFF74F
:1073D000FBFD174BD3F84021012303FA02F2009B77
:1073E00013430093E4E7134A9042E8D1104BD3F8DB
:1073F00040311F2B0ED90E4BD3F84021203A0123E8
:107400009340019308236A4607490848006813F02F
:1074100019FAD4E7064BD3F8402101239340009397
:10742000F0E700BF4A18002000710800D4100020C7
:10743000008000440BE000F008B54FF000639B6A49
:1074400003F17842B2F5C04F08D21B6B03F17842CA
:10745000B2F5C04F05D29B68984701E04FF48170A8
:1074600008BD4FF48170FBE738B54FF000639B6AAD
:1074700003F17842B2F5C04F16D204461B6B03F1FC
:107480007843B3F5C04F13D20B4D2846FFF73AFEB1
:107490004FF000639B6A1B6B5B692046984704466C
:1074A0002846FFF7DDFE01E04FF48174204638BD29
:1074B0004FF48174FAE700BF501800202DE9F04125
:1074C0004FF000639B6A03F17844B4F5C04F17D2C4
:1074D00007460E4615461B6BBBB1DFF834804046AD
:1074E000FFF710FE4FF000639B6A1B6B5B6A2A4636
:1074F00031463846984704464046FFF7B1FE01E062
:107500004FF401742046BDE8F0814FF40174F9E7AF
:107510005018002070B54FF000639B6A03F1784269
:10752000B2F5C04F18D205460C461B6B03F17843E9
:10753000B3F5C04F14D20C4E3046FFF7E3FD4FF0C9
:1075400000639B6A1B6B9B6A21462846984704464A
:107550003046FFF785FE01E04FF40174204670BD10
:107560004FF40174FAE700BF5018002030B5ADF5B4
:107570000F7D4FF000639B6A03F17843B3F5C04F72
:1075800015D20C464FF40E726946FFF797FF054679
:1075900078B921466846FFF7BDFF40F201239842C3
:1075A000F7D040F20323984203D0054601E04FF4A0
:1075B000017528460DF50F7D30BD0000F8B50D466C
:1075C0004FF000639B6A03F17841B1F5C04F19D2C7
:1075D000044616461B6B03F17843B3F5C04F15D232
:1075E0000C4F3846FFF78EFD4FF000639B6A1B6B14
:1075F0009B6B324629462046984704463846FFF79B
:107600002FFE01E040F201142046F8BD40F20114C3
:10761000FAE700BF501800204FF000639B6A03F1A7
:107620007842B2F5C04F29D21B6B03F17843B3F512
:10763000C04F26D200B585B001238DF80430002359
:107640000293039301A8FFF70DFD039B13F4803F02
:107650001AD0029BC3F307421B0E18D0012B08D08F
:107660004FF000639B6A1B6B1B6C984705B05DF87D
:1076700004FB0A2AF4D840F20110F7E740F20110A7
:10768000704740F20110704740F20110EEE740F2FF
:107690000110EBE770B54FF000639B6A03F178428D
:1076A000B2F5C04F18D205460C461B6B03F1784368
:1076B000B3F5C04F14D20C4E3046FFF723FD4FF008
:1076C00000639B6A1B6BDB6B214628469847044688
:1076D0003046FFF7C5FD01E040F20114204670BDC1
:1076E00040F20114FAE700BF5018002000230360A5
:1076F000704703680B600160704700E0184603683C
:1077000023B18B42FAD10B6803607047704710B504
:10771000144610F099FC2060002010BD0346064A74
:1077200010680344054A934202D8034A1360704725
:107730004FF0FF30704700BFD01000200000012044
:1077400010B5044602E0202007E09047DCB194FA2F
:10775000A4F00028F7D0B0FA80F00123834024EA97
:107760000304094B03EB00135A68002AEED0064BC2
:1077700003EB00131B7B002BE7D0034B03EB001341
:1077800099689047E2E710BD6C18002008B51A20F0
:1077900001F0B6FB28B1084B4FF08062C3F880219E
:1077A0001A601B2001F0ACFB28B1034B4FF00062C4
:1077B000C3F880211A6008BD00E100E038B5054635
:1077C0000C4601F08AFB044B03EB05135C600022BE
:1077D0001A7301F088FB38BD6C18002008B5084BFF
:1077E000D3F82404D3F82024104000F0553020F0C2
:1077F000502003F50053C3F82004FFF7A1FF08BD94
:1078000000C0035008B5084BD3F82404D3F8202453
:10781000104000F0AA3020F0A02003F50053C3F878
:107820002004FFF78DFF08BD00C0035008B5034BCF
:107830001968034B186812F02FFF08BDD8100020FC
:10784000D4100020B0F1FF3F01D010B970470248BA
:1078500070470248704700BF21E000F024E000F0CC
:107860008908002301E0043001338B4205D202680D
:10787000B2F1FF3FF7D000207047012070477047FA
:1078800038B504462FF0F0FFFFF7DCFF054650B98E
:10789000074B9B680A3303F01F03012199402046E0
:1078A000FFF7DEFF08B1284638BD024DFBE700BFF9
:1078B0000080E00F0EE000F0F8B505460E4694009B
:1078C00022462FF0D9FFFFF7BDFF074628B9224611
:1078D000314628462FF0CEFA08B93846F8BD014F98
:1078E000FBE700BF10E000F008B50346084613F0C0
:1078F000030F02D111F0030F0AD0920019462FF0A6
:10790000C9FA002008BD53F8041B40F8041B013AD3
:10791000002AF8D1F5E7000010B582B0044601A8AE
:1079200002F0FAF99DF8063023800122E27000206F
:10793000A070054B9B680A3303F01F0302FA03F3A0
:10794000636002B010BD00BF0080E00F08B502F018
:1079500085F908BD08B502F071F9002008BD0000E6
:1079600008B501F0B3FA014B186008BDE01D002016
:1079700008B5024B186801F0ADFA08BDE01D002003
:1079800008B50A464118013903F0A0F908BD000006
:107990004268002A3AD0B2FA82F2C2F11F021F4BAB
:1079A0005B6833B11D4B5B681BB11C4B9B6A002BA2
:1079B000F8D11B4B01215960184B5B6813F002038F
:1079C000FAD11201017A19B302210A43417809B3AD
:1079D00001210A4311498A60427AEAB10222817A7E
:1079E00001B1012313430D4A536202F58052012372
:1079F000536003784BB1094B5B681BB1074B9B6A23
:107A0000002BF8D1054B0122DA6070472022C4E731
:107A10001946DAE71946DCE71A46E0E70040065067
:107A200000600650064B9B6A13F0100FFAD1044B0E
:107A30001963034B9B6A13F0100FFAD1704700BF14
:107A400000400650014B186B704700BF00400650C5
:107A50000B4B5B681BB10A4B9B6A002BF8D1084BA0
:107A60000222DA6000221A62054B5B681BB1044BEC
:107A70009B6A002BF8D1024B0122DA60704700BFED
:107A800000400650024B4FF480321A67704700BF27
:107A90000090005038B505460C46FFF7F7F905B1E0
:107AA00028600CB10D23236038BD000038B50546B1
:107AB0000C46164BD3F8203103F00703013B052B8E
:107AC00020D8DFE803F0030B130F171BFFF7D8F9DB
:107AD000052305B1286004B1236038BDFFF706FA1D
:107AE0000323F6E7FFF720FA0723F2E7FFF718FA78
:107AF0000223EEE7FFF7C4F90623EAE7FFF7F6F9FA
:107B00000423E6E700231846E3E700BF00800050A7
:107B100038B505460C46164BD3F8283103F0070359
:107B2000013B052B20D8DFE803F003131B0F0B17D5
:107B3000FFF7A6F9052305B1286004B1236038BD1D
:107B4000FFF79EF90623F6E7FFF7EEF90723F2E7C2
:107B5000FFF7CCF90323EEE7FFF7C8F90423EAE7C0
:107B6000FFF7DEF90223E6E700231846E3E700BF4C
:107B70000080005070B582B006460D460023019388
:107B8000104BD3F8804104F00304022C16D0032CD0
:107B90000FD0012C07D000240EB1019B336005B13A
:107BA0002C6002B070BD002101A8FFF77FFF0F24F9
:107BB000F2E7FFF7B9F901900724EDE7FFF7B0F915
:107BC0000190E9E70080005038B505460C460C4BA3
:107BD000D3F8903203F00303012B05D0022B07D119
:107BE000FFF7A2F9072305E0FFF79AF9022301E066
:107BF0000023184605B1286004B1236038BD00BFDA
:107C00000080005030B583B005460C460023019338
:107C1000144BD3F8203203F00703013B032B1ED88B
:107C2000DFE803F0020E1318002101A8FFF770FF30
:107C300011230DB1019A2A6004B1236003B030BD55
:107C4000FFF772F901900723F3E7FFF7B1F901900D
:107C50000A23EEE7FFF7B2F901900923E9E70023D1
:107C6000E7E700BF0080005038B505460C460F4BD3
:107C7000D3F8403103F00303022B0ED0032B10D0B6
:107C8000012B06D00023184605B1286004B12360FB
:107C900038BDFFF78DF90A23F6E7FFF78FF90923BF
:107CA000F2E7FFF788F90B23EEE700BF00800050F2
:107CB00030B583B005460C46002301934FF0E02316
:107CC0001B6913F0040F0CD0FFF7FAF801900C2396
:107CD00000930DB1019B2B600CB1009B236003B09E
:107CE00030BD694601A8FFF7BFFFF2E730B583B0AA
:107CF00005460C4600230193144BD3F8603203F081
:107D00000703013B032B1FD8DFE803F0020E191411
:107D1000002101A8FFF7CAFE0F230DB1019A2A60C6
:107D200004B1236003B030BD002101A8FFF79CFF20
:107D30001023F2E7FFF7F8F801900723EDE7FFF7CC
:107D4000EFF801900223E8E70023E6E70080005007
:107D500030B583B005460C46002301930C4BD3F895
:107D6000703203F00303012B09D0022B0DD1142331
:107D70000DB1019A2A6004B1236003B030BD002127
:107D800001A8FFF771FF1023F2E70023F0E700BF1F
:107D90000080005038B505460C46124BD3F800322F
:107DA00003F00703013B032B18D8DFE803F0020AB6
:107DB0000E12FFF7FDF80A2305B1286004B1236015
:107DC00038BDFFF7FBF80923F6E7FFF7F4F80B23BC
:107DD000F2E7FFF775F8800A0E23EDE70023184657
:107DE000EAE700BF0080005038B505460C46124B4C
:107DF000D3F8083203F00703013B032B18D8DFE860
:107E000003F0020A0E12FFF7D3F80A2305B1286027
:107E100004B1236038BDFFF7D1F80923F6E7FFF777
:107E2000CAF80B23F2E7FFF74BF8800A0E23EDE7C1
:107E300000231846EAE700BF0080005038B5054629
:107E40000C460F4BD3F8403203F00303022B0ED045
:107E5000032B10D0012B06D00023184605B1286053
:107E600004B1236038BDFFF7A3F80A23F6E7FFF754
:107E7000A5F80923F2E7FFF79EF80B23EEE700BF12
:107E80000080005038B505460C460F4BD3F85032F1
:107E900003F00303022B12D0032B08D0012B0AD0CE
:107EA0000023184605B1286004B1236038BDFFF7F0
:107EB00082F80B23F6E7FFF77BF80A23F2E7FFF7D8
:107EC0007DF80923EEE700BF0080005038B5054675
:107ED0000C460F4BD3F8603103F00303022B0ED096
:107EE000032B10D0012B06D00023184605B12860C3
:107EF00004B1236038BDFFF75BF80A23F6E7FFF70C
:107F00005DF80923F2E7FFF756F80B23EEE700BF11
:107F10000080005038B505460C46104BD3F80001E0
:107F200000F00300032815D8DFE800F002080C1069
:107F3000012305B1286004B1236038BDFEF7D6FFE8
:107F40000323F6E7FFF73AF80923F2E7FEF7E6FF27
:107F50000823EEE700231846EBE700BF008000503F
:107F6000B0F5207F20D00ED8B0F5007F16D020D8F5
:107F700010B1B0F5C07F04D10F4B186FC0F30330C0
:107F800018E0002016E0B0F5607F05D10A4BD3F869
:107F90008000C0F301100DE000200BE0064BD3F889
:107FA0009000C0F3046005E0034B186FC0F380201D
:107FB00000E00020013070470080005038B50546D1
:107FC0000C46174B4FF480329A660020FFF7C8FF2B
:107FD00005FB00F0134BDA6902F4803241F671318F
:107FE000D9635B6823F440136CB90F49884207D802
:107FF00000210B430B494B600AB10022CA6338BD14
:108000004FF48011F5E7002C07DD0849884201D8BC
:108010000021EEE74FF48011EBE74FF44011E8E761
:108020000090005000000350005A6202002D310100
:1080300008B5FEF757FF0021FFF7C0FF08BD00009D
:10804000430905D0012B0ED0022B0ED0002200E0F8
:10805000002200F01F0051B102F58052012303FA03
:1080600000F010607047034AF3E7034AF1E702F5B6
:108070000052F3E7648000506880005010B582B071
:10808000002301930093B0F5807F00F20781B0F5E3
:10809000807F00F27581DFE810F04C0173017301FD
:1080A0007301730173017301730173017301730130
:1080B0007301730173017301730173017301730120
:1080C0007301730173017301730173017301730110
:1080D000730173017301730173014C0185014C013C
:1080E00085019D019D019D019D019D018501A201CB
:1080F0003D01AC0123013D0185018501850173012D
:10810000730173017301730173017301AC01850184
:1081100085018501C001B1018501730173017301FE
:1081200073017301730173017301730173017301AF
:108130007301B6019D014C014C014C016D013D01E3
:108140003D016201BB0156017C017C017301730199
:10815000730173017301730173017301730173017F
:10816000730173017301730173017301730173016F
:10817000730173017301730173017301730173015F
:10818000730173017301730173017301730173014F
:108190007301730173017301730181017301730131
:1081A000730173017301730173017301730173012F
:1081B000730173017301730173017301730173011F
:1081C000730173017301730173017301730173010F
:1081D00073017301730173017301730173017301FF
:1081E00073017301730173017301730173017301EF
:1081F00073017301730173017301730173017301DF
:1082000073017301730173017301730173017301CE
:1082100073017301730173017301730173017301BE
:1082200073017301730173017301730173017301AE
:10823000730173017301730173017301730173019E
:10824000730173017301730173017301730173018E
:10825000730173017301730173017301730173017E
:10826000730173017301730173017301730173016E
:10827000730173017301730173017301730173015E
:10828000730173017301730173017301730173014E
:1082900073017301730173017301A701B0F5E06FFE
:1082A00000F0AC800CD9B0F5286F00F0B1804FD948
:1082B000B0F5306F63D1002101A8FFF785FC5FE0C6
:1082C000B0F5607F79D010D9B0F5B06F00F087803D
:1082D00033D9B0F5C06F00F08C80B0F5D06F4FD1BE
:1082E000002101A8FFF756FD4AE0B0F5007F0AD152
:1082F000FEF7CCFD04464FF40070FFF731FEB4FBEF
:10830000F0F401943CE011D9B0F5207F4AD0B0F5EB
:10831000407F35D1FEF7D4FD04464FF42070FFF7BF
:108320001FFEB4FBF0F46408019429E0B0F5C07FAF
:1083300026D1FEF7C5FD019022E0B0F5806F49D04F
:10834000B0F5A06F1CD1002101A8FFF75BFC17E07E
:10835000B0F5186F57D007D9B0F5206F10D10021B4
:1083600001A8FFF7C3FC0BE0B0F5F06F55D0B0F5F6
:10837000106F05D1002101A8FFF736FD00E002D201
:10838000019802B010BDB0F5386F32D0B0F5406F33
:10839000F6D1002101A8FFF7BBFBF1E7FEF776FD60
:1083A0000190EDE7FEF78CFD04464FF42070FFF7D7
:1083B000D7FDB4FBF0F40194E2E700216846FFF733
:1083C00069FB009C4FF46070FFF7CAFDB4FBF0F44A
:1083D0000194D5E7002101A8FFF768FBD0E7002151
:1083E00001A8FFF7C7FBCBE7002101A8FFF760FC5E
:1083F000C6E7002101A8FFF737FCC1E7002101A86B
:10840000FFF71CFDBCE7002101A8FFF73BFDB7E724
:10841000002101A8FFF79CFCB2E7002101A8FFF7AB
:1084200055FDADE708B58020FFF728FE034B9842C5
:1084300003D8034B4FF480321A6708BD005A62021A
:1084400000A0005000B583B000230193B0F5807FF9
:1084500000F0AF8011D9B0F5086F00F0B48044D9B6
:10846000B0F5286F00F0C38069D9B0F5306F79D1CD
:1084700001A90020FFF7A8FB75E0802873D8242805
:1084800071D324385C286ED8DFE800F04C4C4C4C9B
:108490004C6D446D98546D6D6D6D6D6D6D6D6D6D44
:1084A0006D986D6D6D39A76D6D6D6D6D6D6D6D6DCB
:1084B0006D6D6D6DAC4C6D6D6D676D6D5FB1A2775F
:1084C000776D6D6D6D6D6D6D6D6D6D6D6D6D6D6DD2
:1084D0006D6D6D6D6D6D6D6D6D6D6D6D6D6D6D6DCC
:1084E0006D6D6D6D6D6D6D6D7C00B0F5C06F65D09F
:1084F0000AD9B0F5E06F70D0B0F5F06F17D101A9CF
:108500000020FFF7E3FC2EE0B0F5A06F60D0B0F5DF
:10851000B06F04D101A90020FFF72CFB23E0B0F5D8
:10852000806F20D101A90020FFF7C0FA1BE0B0F551
:10853000D06F18D101A90020FFF72CFC13E0B0F593
:10854000186F4FD0B0F5206F04D101A90020FFF7BC
:10855000CDFB08E0B0F5106F05D101A90020FFF7B1
:1085600043FC00E003D2019803B05DF804FBB0F5D2
:10857000386F23D0B0F5406FF5D101A90020FFF787
:10858000C7FAF0E71C4B1B6F03F00703013B032BFB
:10859000E9D8DFE803F00B02050805230193E2E7C1
:1085A00003230193DFE708230193DCE70223019310
:1085B000D9E701A90020FFF77BFBD4E701A9002040
:1085C000FFF752FBCFE701A90020FFF7A3FCCAE7A2
:1085D00001A90020FFF716FBC5E701A90020FFF75E
:1085E0002DFCC0E701A90020FFF74CFCBBE701A967
:1085F0000020FFF7ADFBB6E70080005038B5044619
:108600008020FFF71FFF032800F0AE805F4B4FF480
:1086100080125A665E4B45F60E02C3F8802003F5C1
:1086200080524FF0A061916203F500534FF4803205
:108630009A62574B9B6D13F4803FFAD122686368AE
:108640001B0543EA0263227B43EA0243627B43EA5F
:108650000233A27B43EA8213E27B13434C4D2B612E
:10866000AB6903F00043226943EA8263626943EA2B
:108670000263227E43EA0243627E43EA0223A27E31
:108680001343AB6100F022FCAA6B82F4006303F495
:1086900040635340AB6300F01DFC2B6A23F00F03D3
:1086A000E269002A40D111460B43E17E43EA81038F
:1086B0001343374A1362E369002B37D1916A354B74
:1086C0000B4094F8201043EA411394F8211043EA38
:1086D000011394F8241043EAC10343F480339362F6
:1086E0002B4B9A6D2C4B9343FAD1294A02F58051BA
:1086F0004FF080738B62136923F47003A06843EA20
:10870000005313614FF000438B6194F822301BB982
:10871000224B4FF080729A6294F82330EBB91F4BD2
:108720004FF480329A6218E00821BDE7022B1CD07A
:10873000174A916A174B0B4094F8201043EA4113F3
:1087400094F8221043EA016394F8241043EAC10329
:1087500094F8231043EA0143936294F825301BB147
:108760000B4B0F4AC3F8802038BD094D00232B6105
:10877000AB6100F0ABFB6A6B82F4085303F47F43F8
:1087800053406B6300F0A6FBD2E700BF009000509F
:108790000040005AC7FFFEFE030001000060005ABF
:1087A000F1A7FFFF014B93F900007047F81000207C
:1087B00010B443784F2B28BF4F231A461C4B4FF45D
:1087C0000001596603F5B8334FF4D151596203F5EE
:1087D000805102244C6003F5005301215960154B70
:1087E0001B6913F4803FFAD1037842EA0323114A4C
:1087F0005361416883681B0143EA0123017B43EA1B
:108800004103417B0B439360817BC37B1B0143EAA4
:108810004113017C43EA4103417C0B435360837C59
:108820001BB113466FF4D1525A625DF8044B704786
:108830000090005000000250014B1880704700BFAC
:10884000FA10002008B5002903DD0121FFF7B6FB6F
:1088500008BD0021FFF7B2FBFAE70000B0F5207F6A
:1088600048D02DD8B0F5007F39D04CD810B1B0F534
:10887000C07F24D110B54C1EFFF7DAFB00F048F89A
:10888000FFF700F9204B196F21F4704141EA0431E0
:108890001967FEF715FB1D4BD3F8843013F0100F4A
:1088A000F9D11A4BD3F88410C1F38111C1F102013F
:1088B000FFF7C8FF00F034F8FFF7B4FD10BD7047B4
:1088C000B0F5607F0AD101390F4AD2F8803023F029
:1088D000300343EA0111C2F8801070477047013934
:1088E000094AD2F8903023F0F85343EA0161C2F804
:1088F000901070470139044A136F23F4806343EAF0
:10890000812111677047704700800050004000507F
:1089100008B502214FF42070FFF7A0FF08BD00004A
:1089200008B54FF4C070FFF7A9FB054B984205D975
:1089300002214FF42070FFF791FF08BD0121F8E7F5
:1089400080F0FA0270B50C46B0F5807F00F08E81A1
:108950001FD9B0F5086F00F0098240F28380B0F5AE
:10896000286F00F0998240F2D080B0F5306F40F06F
:10897000F780022900F0A282072940F0A18202219B
:10898000864AD2F8903223F003030B43C2F89032A8
:10899000E7E0802800F2E5802428C0F0E280243857
:1089A0005C2800F2DE80DFE810F098009800980064
:1089B00098009800DC008300DC00A101A400DC002A
:1089C000DC00DC00DC00DC00DC00DC00DC00DC00C7
:1089D000DC00DC00A101DC00DC00DC0069002A0214
:1089E000DC00DC00DC00DC00DC00DC00DC00DC00A7
:1089F000DC00DC00DC00DC00DC0040029800DC0075
:108A0000DC00DC00CF00DC00DC00B7007702F701FF
:108A1000E400E400DC00DC00DC00DC00DC00DC0066
:108A2000DC00DC00DC00DC00DC00DC00DC00DC0066
:108A3000DC00DC00DC00DC00DC00DC00DC00DC0056
:108A4000DC00DC00DC00DC00DC00DC00DC00DC0046
:108A5000DC00DC00DC00DC00DC00DC00DC00DC0036
:108A6000DC00F000B0F5C06F00F0408119D9B0F51E
:108A7000E06F00F0C481B0F5F06F37D10A2C00F040
:108A80004D810B2C00F04C81092C00F04581002118
:108A9000424AD2F8603123F003030B43C2F860313D
:108AA0005FE0B0F5A06F00F07781B0F5B06F11D145
:108AB000072C00F0C1800F2C00F0C080022C00D0E9
:108AC0000024364AD2F8803123F003031C43C2F855
:108AD000804146E0B0F5806F43D1023C052C00F2A6
:108AE000AF80DFE804F0B3AFB7B9B5B1B0F5D06F80
:108AF00037D1093C052C00F21581DFE814F01D0187
:108B000023011F01130113012101B0F5186F00F0BB
:108B10008C81B0F5206F14D1023C0E2C00F29B81A9
:108B2000DFE814F0B8019901990199019901B201A6
:108B30009901990199019901990199019901B4014A
:108B4000B601B0F5106F0CD1093C052C00F2FC8089
:108B5000DFE814F004010A010601FA00FA00080136
:108B600000D270BDB0F5386F00F0C080B0F5406F36
:108B7000F7D1023C052C00F22C81DFE814F0300123
:108B80003201340136012C012E018B1E062B07D831
:108B9000DFE803F04C3A064F06064900008000501B
:108BA00000252E460121022000F004FAFFF740FACA
:108BB000FFF7AEFEFEF766FFAC4A136F23F0070324
:108BC00033431367FEF77CF9A94BD3F8843013F0D5
:108BD000100FF9D1A64BD3F88410C1F38111C1F164
:108BE0000201FFF72FFE0121002000F029FAFFF714
:108BF00097FEFFF717FC002DB3D1032CB1D19D4B8D
:108C00004FF480329A62ACE79B4B4FF480125A6665
:108C10009A4B9D6AC5F3006503F580534FF480328B
:108C20009A620E46BEE700250426BBE70025012612
:108C3000B8E700250226B5E7032442E7012440E710
:108C400000210AE0022108E0042106E0032104E0FB
:108C5000052102E0062100E00121844AD2F82031FA
:108C600023F007030B43C2F820317AE70C2923D005
:108C70001ED8A1F10904022C3FF673AF7B4B596E4D
:108C800003F580534FF480325A667D4A536A43F0AD
:108C90000103536211F4803F03D17A4B4FF48032C9
:108CA0005A664FF0E022136923F00403136158E77A
:108CB00010297FF456AFE1E76C4B596E03F58053F2
:108CC0004FF480325A666E4A536A23F001035362AE
:108CD00011F4803F03D16B4B4FF480325A664FF052
:108CE000E022136943F0040313613AE70A2C0FD022
:108CF0000B2C0FD0092C09D000215C4AD2F840314E
:108D000023F003030B43C2F840312AE70221F4E7C2
:108D10000121F2E70321F0E70221B9E60121B7E6DC
:108D20000321B5E60021514AD2F8003223F00703AF
:108D30000B43C2F8003214E70221F4E70321F2E703
:108D40000421F0E70121EEE70021484AD2F8083279
:108D500023F007030B43C2F8083202E70221F4E7CD
:108D60000321F2E70421F0E70121EEE708290FD003
:108D700009290FD0032909D000213C4AD2F800313B
:108D800023F003030B43C2F80031EAE60121F4E7C4
:108D90000321F2E70221F0E7073C0A2C07D8DFE8BD
:108DA00004F0100614120606060606061600002138
:108DB0002E4AD2F8203223F007030B43C2F82032A8
:108DC000CFE60221F4E70321F2E70421F0E70121D5
:108DD000EEE700210AE0052108E0042106E0032176
:108DE00004E0022102E0062100E001211F4AD2F83E
:108DF000283123F007030B43C2F82831B1E60A2CCF
:108E00000FD00B2C0FD0092C09D00021174AD2F813
:108E1000403223F003030B43C2F84032A1E60221A3
:108E2000F4E70121F2E70321F0E70A2C0FD00B2C25
:108E30000FD0092C09D000210C4AD2F8503223F06F
:108E400003030B43C2F850328BE60221F4E7012101
:108E5000F2E70321F0E70021044AD2F8603223F060
:108E600007030B43C2F860327BE600BF008000506E
:108E7000004000500060005A009000500040005A2E
:108E800000C0075000A000500421E5E70121E3E7FE
:108E90000221E1E70321DFE7102C0BD0142C0BD1CA
:108EA0000221084AD2F8703223F003030B43C2F8C0
:108EB000703256E60121F4E70021F2E701215FE577
:108EC00000215DE50080005072B67047EFF310801E
:108ED00072B6704700B962B67047EFF31180302365
:108EE00083F31188704780F311887047034B5868EB
:108EF000C0F30800003818BF0120704700ED00E003
:108F00004209064B53F8223000F01F0023FA00F00C
:108F100080F0010000F00100704700BF00E100E0B8
:108F2000044A536F23F44073417843EA01235367A3
:108F3000704700BF004000507047704710B50446AE
:108F4000094A136943F00403136102F0CBFAFFF7F7
:108F5000F3FF30BFFFF7F1FF02F0DAFA04B110BD02
:108F6000FDF7AEFFFBE700BF00ED00E010B50446E3
:108F7000074A136943F00403136102F0B3FA30BFE8
:108F800002F0C6FA04B110BDFDF79AFFFBE700BF7F
:108F900000ED00E070477047034AD36E23F03003C2
:108FA00001790B43D366704700400050704770470B
:108FB00070470000F8B50446204BD3F8843013F016
:108FC000100FF9D11D4BD3F88430C3F381139C42A9
:108FD0002DD0FDF75BFF0646012C11D0FFF776FF81
:108FE0000546164F07F500534FF000725A662046AB
:108FF000FFF7DEFF621E4FF4806393403B6706E09D
:109000000121FFF71FFCE9E70C4BD3F884300B4B31
:109010005B6E13F0007F05D1084BD3F8843013F05A
:10902000200FF1D02846FFF755FF022C00D0F8BDE5
:1090300000213046FFF706FCF9E700BF0040005072
:1090400010B50C46034650B1094A127812B1094ACC
:10905000934208D921460220FFF7ACFF10BDFDF76F
:1090600015FF0346F0E721460120FFF7A3FFF5E7D0
:10907000941E0020005A620208B50278034B1A7051
:1090800001210020FFF7DCFF08BD00BF941E002077
:1090900008B51D4B4FF000425A6603F50B235A6C7E
:1090A00002F001024AF6CD31196490B9174B5B6B9F
:1090B00013F0010FFAD1154B5B6813F0010F1BD0B1
:1090C000134B01215960114B1B6B13F0010FFAD0A8
:1090D00012E00E4B1B6B13F0080FFAD10B4B03F58C
:1090E00000512020886203F5805301215960074B0D
:1090F0009B6A13F0200FFAD012B1044B054A1A6490
:1091000019F073FE08BD00BF0090005000400950E8
:10911000006009503254FFFF38B5114BDC6E24F06B
:10912000030444F00204DD6E45F003054AF6E852FC
:109130001A6602218020FFF705FC0020FFF7A8FF38
:10914000FFF734FFFFF733FF002303E0044AD46640
:10915000D5660133032BF9DD014BDC6638BD00BF5A
:109160000040005010B51A4B4FF000425A6603F50C
:109170000B235C6C04F001044AF6CD321A64437888
:109180005B0043F00103134AD363134B5B6B13F093
:109190000B0FFAD1104A536823F4F873817843EA2D
:1091A00001135360C178437943EA01239360017945
:1091B000837943EA012313610078FFF769FF14B153
:1091C000054B064A1A6419F010FE012010BD00BFBD
:1091D0000090005000400050004009503254FFFF02
:1091E00010B50F2800D90F20124B5C6E03F5805389
:1091F0004FF000425A6603F50B235A6C02F001024D
:109200004AF6CD3119640C4B5B6B13F0800FFAD129
:1092100009490B6A23F00F03184308620AB1074A91
:109220000A64002C03DB064B4FF000425A6619F02B
:10923000DCFD10BD00800050004009503254FFFF9B
:1092400000A0005010B5134B5C6E03F580534FF037
:1092500000425A6603F50B235A6C02F001024AF6EB
:10926000CD3119640C4B5B6B13F0800FFAD10A49B6
:109270000B6A23F4F85343EA002008620AB1074A54
:109280000A64002C03DB064B4FF000425A6619F0CB
:10929000ACFD10BD00800050004009503254FFFF6B
:1092A00000A00050084B98420AD0084B984209D0C1
:1092B00003F58043984201D0002070475820704742
:1092C00056207047572070470000015B00000A508D
:1092D000436813F0010F19D0836813F0010F03D016
:1092E000036913F0010F09D00A238363436D13F060
:1092F000500FFBD1836C13F0030FFBD100F500532B
:1093000001225A60436813F0020FFBD1042307E0E7
:1093100000F5805304221A6100F500531A610B46D0
:10932000591E002BF4D1202303610023C360836006
:1093300041F20202426183614FF4A0224262C361A2
:1093400003628362C3624363036500F5005202490E
:10935000D1640363704700BFFF3F0D030A46F1B1BC
:1093600000F580530121596002F00F01436DC3F3F2
:109370000B03002BFAD18163436D13F07803FBD10B
:1093800012F0010F00D0012312F0040F01D043F0BE
:109390000203826C02F003029A42FAD170474368DA
:1093A00013F0010FFAD0836813F0010F03D00369A3
:1093B00013F0010F09D00A238363436D13F0500F9C
:1093C000FBD1836C13F0030FFBD100F50053012296
:1093D0005A60436813F0020FFBD17047836C13F09F
:1093E000800FFBD0C06BC0B27047836C13F0400F8E
:1093F000FBD041647047836C13F0400FFBD0416495
:10940000836C13F0800FFBD0C06B80B270470000FC
:1094100038B5044615460846E1B1A36813F0010FBC
:109420004ED06268B0FBF5F0013812F001023BD07B
:10943000636D13F0280FFBD1A36C13F0030F0FD152
:10944000A36C13F0010F2BD1A36C13F0020F29D1E1
:10945000002106E02046FFF725FFFEF70FFEDCE7C0
:109460000521636813F0010F1FD0A36813F0010FEB
:1094700003D0236913F0010F09D00A23A363636D9E
:1094800013F0500FFBD1A36C13F0030FFBD104F5C5
:10949000005301255D60636813F0020FFBD104E007
:1094A0000921DEE70621DCE70021236923F07F4361
:1094B00043EA006020610AB32046FFF74FFF1DE03A
:1094C0006368A36803F0E003402B1DD017D9602B1D
:1094D0001ED0802B12D10123400105FB03F3B0FB0A
:1094E000F3F020380B4B03EAC000636D13F0010F5B
:1094F000FBD12063636D13F0010FFBD138BD2BB19D
:10950000202BFBD10823E7E70623E5E71023E3E759
:109510000423E1E7F8FF7F0070B504460D461646C8
:10952000436823B1636DC3F30B03002BFAD12046CC
:10953000FFF7CEFE636923F44C5323F00F036A7BDD
:109540001343EA8913432A8A13436361A36823F010
:10955000804323F0E2032A7B13432A7E13436A6984
:109560001343A360AB681BB9A36843F00043A36037
:10957000EA69002A74D0A368127A43EA8253A3608E
:10958000A368EA69927A43EA4243A360A368EA695E
:10959000928802F4C0421343A360A368EA69527838
:1095A00043EA8203A360A368EA69527B43EAC203E9
:1095B000A360A368EA69927B43EA0213A360A368ED
:1095C000EA69927843EA8223A360EA699179D379C0
:1095D0005B0243EA8123E360EB691B78012B01D036
:1095E000032B03D1E36843F00403E360EB691B78CA
:1095F000023BDBB2012B4DD9474B9C4267D0474B16
:109600009C4266D003F580439C425ED04FF0FF330E
:1096100003F593735B0103F1A04303F5703302225A
:109620005A60EB695A7A04F580539A62EB695B7A67
:109630001BB1E36843F40063E360EB69DB7A7BB161
:10964000E36843F40043E360334B9C4243D0EB694F
:109650001B7B03F00F03324A1367324B9C4241D00D
:109660003EB196F82030002B42D004F58053012201
:109670001A6205212046FFF771FEAA68002A46D12A
:1096800029782046FFF76AFEA36CDB4313F4405FA2
:10969000FAD170BD204B9C4213D0204B9C4212D07B
:1096A00003F580439C420AD04FF0FF33A6335B01A1
:1096B00003F1A04303F5703302225A60B1E702239D
:1096C000F4E70023F2E70123F0E70223A0E70023F9
:1096D0009EE701239CE7EB691B7B03F00F03104A15
:1096E0005366B4E7EB691B7B03F00F03D367B7E75F
:1096F000E36923F0090396F82220134396F821200A
:10970000134343F0010304F58052D361B1E7696864
:109710002046FFF77DFEB3E70000015B00000A5022
:109720000090035000400A5008B500231A46FFF786
:10973000F3FE08BD08B500231A46FFF7EDFE08BD8D
:1097400070B504460D460E69436823B1636DC3F3DB
:109750000B03002BFAD12046FFF7BAFD236923F053
:1097600087036A7B1343AA7B134343F0800323617F
:109770001EB3236923F0F8032A69117F43EAC1135A
:10978000117943EA4113517A43EA011311780B43EB
:10979000D27B43EA82132361E36823F0F04323F48E
:1097A00070232A6951690B4391690B43117B43EA8A
:1097B0008123527B43EAC233E360A36823F00303AF
:1097C000EA7B134343F00103A3603EB3A3682A6915
:1097D000528802F4C0421343A360A3682A695279F5
:1097E00043EA8223A360636A23F4772323F4EE63BE
:1097F00029698A79120102F070021343CA791202B0
:1098000002F4E06213430A7A120302F4E0421343C3
:109810004A7F120402F4702213436362636923F0E7
:109820000F032A7B13436361D6B12B695B89A36164
:109830002B695A7B42B12B4A94422AD02A4B9C4234
:109840002DD02A4B9C4231D02B69DA7B42B1254A7C
:10985000944232D0244B9C4235D0244B9C4239D088
:10986000AA6869682046FFF7D3FD05212046FFF767
:1098700075FD636D13F0280FFBD12B78A363636D27
:1098800013F0280FFBD1A36CDB4313F4405FFAD134
:1098900070BD9B7B03F00F03154A5366CEE72B691F
:1098A0009B7B03F00F03124A1367CAE72B699B7B6C
:1098B00003F00F030E4AD367C6E71B7C03F00F03C8
:1098C0000B4A1366C6E72B691B7C03F00F03084A9B
:1098D000D366C2E72B691B7C03F00F03044A93672E
:1098E000BEE700BF0000015B00000A5000400A50C4
:1098F0000090035008B5FFF723FF08BD2DE9F84F8E
:109900000C4615461E469DF828809DF82C70072AA7
:1099100044D84FEA8209032303FA09FA00FA09F945
:10992000FFF7D4FA384AD2F8001489EA010303EAAF
:109930000A034B40C2F80034FFF7CCFA4FF0000A9C
:10994000072D43D8A9004FF0030909FA01F904F0E3
:1099500003048C40FFF7BAFA2B4BD3F80824544089
:1099600004EA09045440C3F80844FFF7B3FA002E90
:1099700044D0264A0123AB401360B8F1000F3FD01A
:10998000234A1360012202FA05F5224AC2F8205444
:10999000C7B3A2F6DC321360BDE8F88FA2F1080A63
:1099A0004FEA8A09032303FA09FB00FA09F9FFF7D2
:1099B0008DFA154AD2F8041489EA010303EA0B036D
:1099C0004B40C2F80434FFF785FAB9E74FEA8A0A38
:1099D0004FF0030909FA0AF904F0030404FA0AF43F
:1099E000FFF774FA084BD3F80C24544004EA090436
:1099F0005440C3F80C44FFF76DFAB8E7064AB9E7DC
:109A0000064ABEE7064AC6E700C0035010D403501A
:109A100014D4035000E0035010E4035014E4035046
:109A200024E403502DE9F84F04460E461F469046A5
:109A30003AB183B301228A4000EB400109012C4B6B
:109A40005A50072E2FD804EB44094FEA091909F19F
:109A50000409DFF8A4A0B3000F2505FA03FB08FAF8
:109A600003F5FFF733FA59F80A305D4005EA0B05B4
:109A70005D4049F80A50FFF72DFAB8F1000F08D100
:109A80006FB3012101FA06F604EB44042401184BDC
:109A90001E51BDE8F88F01228A4000EB4001090108
:109AA000144B5A50CDE704EB44052D010C35DFF87B
:109AB0004890A6F108039B000F2202FA03FA08FA65
:109AC00003FBFFF703FA55F809308BEA030202EAB9
:109AD0000A025A4045F80920FFF7FCF9CDE70121B9
:109AE00001FA06F604EB44042401024B1E51D0E7B0
:109AF00040D0035040E0035030C00350114BD3F826
:109B0000302422EA0002C3F83024D3F83024014084
:109B10000A43C3F83024D3F82C240243C3F82C247E
:109B2000A3F56033DB6E03F03003202B06D0064A2A
:109B3000D36E23F0300343F01003D366034BC3F816
:109B40002004704700C003500040005000E0035064
:109B500011B1012902D07047C2617047026270479B
:109B6000036C13F0600FFBD111B101230361704747
:109B700002230361704700F5805301225A600B787D
:109B80004BB9436913F0010F05D0036C13F0400F7C
:109B9000FBD1022303614B780BB14FF480538A78D9
:109BA0000AB9CA6822B143F40073CA6802B14262BA
:109BB000CA780AB143F480730A790AB143F04003CA
:109BC0004A790AB143F080038A7943EA8203CA7969
:109BD00043EA02130A7A1343C3600B784BB143691B
:109BE00013F0010F05D1036C13F0200FFBD10123FB
:109BF0000361704711B1012906D07047036C13F05F
:109C0000080FFBD1C2627047036C13F0100FFBD139
:109C100002637047436813B1036C002BFAD170479D
:109C200070B5044600F5805501266E60FFF7F2FF1F
:109C3000AE60A36813F0020FFBD170BD064B4FF46A
:109C400080329A6603F51C3341F67132DA6303F50C
:109C500000530122DA60704700900050074B41F634
:109C60007132DA6303F500520121D1600022DA6318
:109C7000A3F518334FF480329A6670470000035002
:109C80004FF050234FF400321A677047014BD3F85E
:109C90009400704700400050436813B9416070471A
:109CA0005B685A68012AFBD159607047836813B911
:109CB000816070475B685A68012AFBD15960704720
:109CC000C369032B05D89A1C00EB82025160013353
:109CD000C3617047C269042A1DD84FF098431B6CBA
:109CE00013F4801FF9D0043292004FF098431A65A4
:109CF00002681A6042681A6082681A600023C269AA
:109D00009A4208D99A1C00EB820251684FF098429F
:109D100011600133F3E77047074B4FF480325A6606
:109D200003F5E6239B69C3F38512827003F03F02BB
:109D300042701B0B03707047009000504369002B6A
:109D400011DB61B9436A13F0010FFBD100F5005339
:109D500001225A60436813F0020FFBD1704700F5EF
:109D60008050012343607047436813F0010F00D116
:109D7000704710B50446FFF7B0F8636A13F0010F9F
:109D800001D10123E360FFF7AEF810BD00230362A9
:109D9000704738B505460C46436853B16B6A002BD3
:109DA000FCD105F5005301225A606B6813F0020FD5
:109DB000FBD16378002B35D02023A278002A33D042
:109DC00001221343E2788AB30222134322797AB341
:109DD0000422134362796AB308221343A2795AB367
:109DE00010221343E2794AB34FF400721343227AEC
:109DF00032B34FF480621343627B1AB34FF4807224
:109E00001343E27A43EA0263227B43EA0273A27AB3
:109E100043EA0243AB6021782846FFF78FFF637A5D
:109E200093B938BD0023C8E70022CAE70022CCE777
:109E30000022CEE70022D0E70022D2E70022D5E7B9
:109E40000022D8E70022DBE72846FFF79FFFE8E77C
:109E500038B5044611F0C4F9064DA446BCE80F001D
:109E60000FC5BCE80F000FC59CE8030085E80300A0
:109E7000002038BD981E002047F6FF739A4275D027
:109E8000042975D870B53C4B03EBC10090F802C0B3
:109E9000604613F83130012B22D0374B03EBC1035E
:109EA0005C68002C66D0B4F90050954204DBB4F92C
:109EB0000250954200DC1546A388FF2B2BD02826A4
:109EC000C8230022AE465B1B93FBF6F313442A4AD9
:109ED00002EBC1014D78691E994231D319462FE03A
:109EE000254B03EBC103D878A0EB0C000025A8425A
:109EF0000ED9431BA0EB53031F4C04EBC104646851
:109F000034F91340944201DC1D46F0E7581EEEE799
:109F10006044C0B229E0B4F90630B4F90860012207
:109F2000D0E703F5FA73154AA2FB03239B094A1CE9
:109F3000954210D904EBC206B6889E420BD3114657
:109F400004EBC1029368B2F9062002FB0E33002B2A
:109F5000E7DA0023E5E704EBC1018A889A4200D3DF
:109F60001A46624500D31046C0B270BDFF2070474C
:109F7000002070470020F8E7981E0020D34D6210A3
:109F800008B50348FFF764FF012011F02BF908BD65
:109F90003885030810B582B00A4B93E8030000909F
:109FA000ADF80410090C8DF8061000248DF800405F
:109FB0006846FFF7D7F80920FFF712F9204602B0EC
:109FC00010BD00BFE879030810B582B0084A536F8E
:109FD00043F001035367002400948DF804402023CC
:109FE0008DF804306846FEF7D7FF204602B010BD5A
:109FF0000040005010B58AB0EC461D4C0FCCACE8C8
:10A000000F000FCCACE80F0094E803008CE80300CD
:10A01000184BD3F84C3113F4002F10D1154BD3F853
:10A020005041E4B2B4F1FF3F13D08DF81940FEF770
:10A03000B9FB24180FD4FF2C0EDDFF240CE04FF0E9
:10A04000FF340D4B1B884FF6FF729342EAD01C463B
:10A05000E8E78C24E9E700248DF818400748FCF76E
:10A060004BFF6846FEF7CAFA00200AB010BD00BFD9
:10A07000F07903080080E00F0001E00FC0175302E1
:10A0800010B586B00DF1040C094C0FCCACE80F00F4
:10A090002368CCF800303F238DF8053001A8FEF787
:10A0A00087FB6420FEF7C8FB002006B010BD00BF90
:10A0B000187A03086FF0040307E003F00F010A4A5F
:10A0C0000A445021117601335BB24B2B09DC002B83
:10A0D000F3DB03F1604202F56142502182F8001384
:10A0E000F1E70020704700BFFCEC00E008B500F08D
:10A0F00085F808BD10B501F0A1FB044608B1204663
:10A1000010BD01F0A7FC4FF4167100FB01F101F541
:10A11000742101F23F210A4BA3FB0131890C094B49
:10A120001960002308E0084A42F823100748026833
:10A130000A4402600133DBB2092BF4D9DFE700BF28
:10A1400083DE1B43FC1E0020CC1E0020C81E002006
:10A1500008B5044B01221A7001F070FC024B186024
:10A1600008BD00BFC41E0020F81E0020184B1B783D
:10A1700003B9704770B501F061FC164B1B68C01A3B
:10A18000154B186000B90120134B1860134C23784D
:10A19000134D55F82320111A124E3268521A3260AC
:10A1A00045F8230009321049A1FB0202D2080F48EA
:10A1B00002600133DBB22370A1FB0312D20802EB71
:10A1C0008202A3EB42032370014B00221A7070BD80
:10A1D000C41E0020F81E0020C01E0020F41E002017
:10A1E000CC1E0020C81E0020CDCCCCCCFC1E0020F4
:10A1F000014B1868704700BFFC1E00200B4920234C
:10A2000081F82D330A4B4FF480125A66094B03F53F
:10A210000050094A426702674FF40050C1F88401B8
:10A22000486003F580535A67704700BF00E100E0C3
:10A23000009000500040005A010000A0024603E0D8
:10A24000002318463BB932B1034B9B6D13F0010F4D
:10A25000F6D00123F5E770470040005A10B50C4BCB
:10A260001C6F14F0010307D114F0005301D0094A08
:10A270001367002C07DB10BD064A1367FFF776FF54
:10A2800001F046F8F0E704F00044024B1C67F2E7E7
:10A290000040005A0060005A08B5FFF7DFFF08BD14
:10A2A00030B583B0FEF712FE0E4B1D780E4B1C68C6
:10A2B000FEF710FE0CF0F6FA08B1FF2D03D154B1F1
:10A2C000204603B030BD01AA064B19780020FDF7E7
:10A2D0001EFA019CF3E7FEF7F9FD044B1C68FEF73C
:10A2E000F9FDEDE7FC100020001F0020041F0020F6
:10A2F00010B50446FEF7EAFD024B1C60FEF7EAFDCE
:10A30000002010BD041F0020D0F82C3103F580532D
:10A3100004221A6570470000012900D9704710B562
:10A32000084B1C68A4F5AC7408E00521D4F82C0196
:10A33000FFF714F8D4F85841A4F5AC7414F5AC7FC9
:10A34000F3D110BD081F002038B50446D4F82C31D5
:10A350009B6C13F0400FF9D000231A46D4F8381143
:10A3600094F83401FFF75EFB00231A46D4F840113D
:10A3700094F83C01FFF756FB94F8543113F0010FA9
:10A3800018D194F8543113F0020F1CD10021D4F8E5
:10A390002C01FEF7E3FF0021D4F83001FDF750FE59
:10A3A0000F4D04F5AC712846FDF7A7F92B689BB15A
:10A3B000002038BD00231A46D4F8481194F844010F
:10A3C000FFF730FBDDE700231A46D4F8501194F86C
:10A3D0004C01FFF727FBD9E7024800F087FEE7E7CB
:10A3E000081F00200C1F002010B50446D0F82C01D7
:10A3F000FEF7FBFFD4F82C319B6C13F0400FF9D023
:10A40000002010BDF0B58BB016461C46109D0023F1
:10A41000069307930893099323790BB18DF81830AD
:10A4200006ABF361637993B10123049303937C4BEF
:10A4300002937C4B0193002300937B4B0A462946F1
:10A4400000F0ACFA074620B138460BB0F0BD02234D
:10A45000EBE7A368C5F83031E369C5F84031237EE6
:10A4600085F83C316369C5F83831237C85F834318F
:10A47000636AC5F8483194F8203085F84431E36ABE
:10A48000C5F8503194F8283085F84C312368C5F868
:10A490002C3101213A20FDF7D3FD0123042261690B
:10A4A000207CFFF7BFFA01230222E169207EFFF73B
:10A4B000B9FA0023337085F854310121A068FDF703
:10A4C000BFFD637963BB01213620FDF7B9FD0A2189
:10A4D000A068FEF737FA31462068FFF72BF9E268EB
:10A4E000524B263203EB421210215160217C6069ED
:10A4F000E26841EA004103EB4212C2F8DC14227E1A
:10A50000E069E16842EA004203EB4113C3F8D42456
:10A510002379032B00F28180DFE803F05E1B4E56A7
:10A5200005214FF44060FEF70DFAA368562B0AD0C0
:10A5300031462068FFF7F8F895F8543143F00403EA
:10A5400085F85431CBE711214FF4A060FEF7FAF9FA
:10A55000EEE795F8543143F0010385F854310026B5
:10A5600000230222616A94F82000FFF75BFA94F856
:10A570002020616AE36842EA01425B0103F1A043E3
:10A5800003F5703341F2CC415A503EBB236803F5CA
:10A5900000530422DA64236803F580531A65052109
:10A5A0002068FEF7DBFE224B1B688BB305F5AC7110
:10A5B0001F48FDF79EF847E795F8543143F0020332
:10A5C00085F854310126E0E795F8543143F0030350
:10A5D00085F854310126C3E70026D6E7002304227C
:10A5E000E16A94F82800FFF71DFAE3680F4AA633E2
:10A5F00002EB43130221596094F82830E06AE168C5
:10A6000043EA004302EB411241F2D0415350BDE70F
:10A610000849094800F05AFDC8E7232714E700BF9E
:10A6200049A3000809A30008E9A3000800C00350DB
:10A63000081F0020001100200C1F0020D0F82C2142
:10A64000136DD26C134013F0040F00D1704710B596
:10A65000044600F077FA30B9D4F82C3103F50053F2
:10A6600004221A6510BDD4F82C01FEF7B7FE01468E
:10A67000204600F077FAD4F82C3103F50053042279
:10A68000DA64EFE780F82410704790F824007047F0
:10A6900090F82B00704780F82E10704790F82E002D
:10A6A0007047F8B504460F46154690F82430A3B914
:10A6B00000260120AE4222D294F82630002BF9D099
:10A6C0002368397820469847C8B901370136F1E741
:10A6D00023680D21204698470AE000260120AE425B
:10A6E0000DD294F82630002BF9D03B780A2BEFD00E
:10A6F000236817F8011B204698470136EFE7F8BD9D
:10A7000070B504460D4616460CF036F802280AD0FD
:10A71000324629462046FFF7C4FF0CF02DF80228E8
:10A720000BD0002070BD4FF0FF31D4F8D8000CF0F2
:10A7300015F90028ECD00220F4E7D4F8D8000CF08A
:10A740004BF90020EEE770B504460D46FEF7C5FB59
:10A75000A6699EB1E2692369D35C2B70236901333A
:10A760002361226A93420CD0A369013BA361FEF7E7
:10A77000BAFBA36820469847304670BDFEF7B3FB8E
:10A78000FAE700232361EFE738B50446FEF7A5FB9F
:10A79000054603E0D4F884000CF020FAD4F88400D5
:10A7A0000CF058FAA3699842F4D304E00021D4F8DD
:10A7B00084000CF0D3F9D4F884000CF04BFAA369B0
:10A7C0009842F3D82846FEF78EFB38BD2DE9F041BC
:10A7D00082B007460E4690461D460BF0CDFF02287C
:10A7E0000ED000232B602B6843451AD231463846E1
:10A7F000FFF7A9FFA8B101362C6801342C60F2E7FD
:10A800004FF0FF31386B0CF0A9F868BB97F82E3089
:10A81000002BE6D04FF0FF31D7F884000CF09EF902
:10A82000DFE797F8273063B13846FFF7ADFF0BF04D
:10A83000A3FF022812D02B68A3B1002002B0BDE80C
:10A84000F08111238DF8073001220DF10701384600
:10A85000FFF756FF012387F82730E5E7386B0CF048
:10A86000BBF8E8E71B20E9E70220E7E770B50446FC
:10A8700090F82B300A4601B113B102B983B970BD0B
:10A8800090F82C60FEF722FB05460121304600F0CF
:10A89000E3FB2846FEF71EFB012384F82B30EEE78E
:10A8A00094F82C60FEF712FB05460021304600F0BC
:10A8B000D3FB2846FEF70EFB002384F82B30DEE79F
:10A8C00038B5054604680BF057FF022854D0FFF74F
:10A8D000E7FC85425CD094F92830002B08DB03F0BC
:10A8E0001F015B0901228A4060332B4941F8232074
:10A8F00094F92830002B0CDB03F01F015B090122C7
:10A900008A402033244941F82320BFF34F8FBFF3FF
:10A910006F8F94F92930002B08DB03F01F015B09CE
:10A9200001228A4060331C4941F8232094F92930E0
:10A93000002B0CDB03F01F015B0901228A4020334E
:10A94000154941F82320BFF34F8FBFF36F8FD4F821
:10A9500084000CF09BF9206B0CF074F8D4F8D8004C
:10A960000CF070F800232B606B60AB602B616B61A7
:10A97000E3682046984738BD4FF0FF31D4F8D8003F
:10A980000BF0ECFF4FF0FF31206B0BF0E7FF9EE781
:10A990000020FFF7ADFC9EE700E100E02DE9F04369
:10A9A00089B015465268002A00F0B08006460C4671
:10A9B0001F46AB68002B00F0AB804FF4967200216D
:10A9C0002046FBF76BFC6B68E361AB6823622B7B73
:10A9D00084F82430AB7B84F825304FF0010884F8EC
:10A9E000268084F827802760109B6360119BA360FA
:10A9F000129BE36095F9003084F8283095F9013016
:10AA000084F829303460434B7360434BB360434B4D
:10AA10003361434B7361434BF360434B3362434BAE
:10AA2000736284F82E80424B04930027059704F14B
:10AA3000340306934FF05009CDF81C9004A80BF096
:10AA400035FF206304F1DC03069304A80BF02EFF0E
:10AA5000C4F8D800374B0093019704F188030293A0
:10AA6000CDF80C906A463946A8680CF00FF8C4F887
:10AA70008400314BB361314BF3619DF8503084F861
:10AA80002D309DF84C3084F82C3084F82B7084F8ED
:10AA90002A80697B2046FFF7E9FE95F90130BB4229
:10AAA00008DB03F01F015B0942468A4060332449FA
:10AAB00041F8232095F90130002B07DB03F01F013B
:10AAC0005B0901228A401E4941F8232095F9003094
:10AAD000002B08DB03F01F015B0901228A40603371
:10AAE000174941F8232095F90030002B07DB03F0CC
:10AAF0001F015B0901228A40114941F82320304699
:10AB0000FFF7F6FB002009B0BDE8F0832220FAE74A
:10AB10002120F8E701A70008CDA7000885A60008B6
:10AB20008BA60008C1A8000897A600089DA60008EB
:10AB30002C7A0308387A03086DA8000891A600084B
:10AB400000E100E010B50446FEF7C7F9A269236AE8
:10AB50009A4203D3FEF7C7F9002010BDFEF7C3F9F0
:10AB60000120FAE730B583B004460D4600E000BF8F
:10AB7000FEF7B3F994F825301BB1132D1DD0112D1C
:10AB800021D0E2696369D554636901336361A269C5
:10AB90000132A261226A93421BD0FEF7A4F90BF0A6
:10ABA000EBFD0238012817D994F825301BB1A269B2
:10ABB000236A9A4215D003B030BD002384F82630B2
:10ABC000FEF791F9F7E7012384F82630FEF78BF9B9
:10ABD000F1E700236361E0E7D4F884000BF0FEFFA7
:10ABE000E2E713238DF8073001220DF1070120461B
:10ABF000FFF757FD002384F82730DCE770B4BFF37C
:10AC00005F8F2C4B5A6A22F480325A62D3F8942018
:10AC100022F00102C3F89420BFF34F8FBFF36F8F70
:10AC2000254B2648834242D020F01F012039214C79
:10AC3000D4F8C05085F0A002D2B26A40C4F8C02057
:10AC4000B1F1005F0CD31E4D2A6841F00101C4F838
:10AC500098201C4EC4F89C60C4F8A01001322A60F1
:10AC6000834210D01F3323F01F0343F00303144823
:10AC700002681049C1F89820C1F89C30124BC1F805
:10AC8000A03001320260BFF35F8F0A4B0522C3F888
:10AC900094205A6A42F480325A62BFF34F8FBFF356
:10ACA0006F8FBFF34F8FBFF36F8F70BC70474FF044
:10ACB0008041BCE700ED00E0BC150020CC13002073
:10ACC000141F002003000020E1FFFF3F10B4BFF37A
:10ACD0005F8F284B5C6A24F480345C62D3F8944024
:10ACE00024F00104C3F89440BFF34F8FBFF36F8F7C
:10ACF0001F2A15D8BFF35F8F1E4B0522C3F894207F
:10AD00005A6A42F480325A62BFF34F8FBFF36F8F9B
:10AD1000BFF34F8FBFF36F8F00205DF8044B704778
:10AD20001A46D3F8C04084F4807303F47F43634031
:10AD3000C2F8C03010F01F0F02D020F01F002030EA
:10AD400011F01F0F01D021F01F0120F01F0040F073
:10AD50000300094C236821F01F0141F00301054A5B
:10AD6000C2F89830C2F89C00C2F8A01001332360EA
:10AD7000C0E700BF00ED00E0141F0020BFF34F8FBD
:10AD80000549CA6802F4E062044B1343CB60BFF389
:10AD90004F8F00BFFDE700BF00ED00E00400FA05A3
:10ADA00008B5FFF7EBFF08BD012000E001300228E5
:10ADB00004D8431E024AD35C002BF7D0C0B27047C0
:10ADC000481F0020F8B506460F46032903D8DFE8E0
:10ADD00001F00A040608002506E0042504E0102519
:10ADE00002E0402500E00125032E05D8DFE806F04B
:10ADF00002070A0D45F002050B4B1C6809E045F0FF
:10AE00000805F9E745F02005F6E745F08005F3E78A
:10AE1000246844B163681A682A42F9D05B683946ED
:10AE200030469847F4E7F8BD441F0020134B1B78C9
:10AE300013B310B5124B1B785BB9002000F0C6FBB2
:10AE400068B9104B01221A700F4B1A780F4B1A7009
:10AE500010BD00F093FB0A4B00221A70EDE700F0E2
:10AE6000C1FB064B00221A70074C01212078FFF726
:10AE7000A9FF01232370EBE7704700BF421F0020AA
:10AE80003D1F0020411F0020341F0020541F0020C0
:10AE900008B50B4B1B78024660B101210B440849F1
:10AEA0000B7032B1074B1B78012B02D9064B1B7874
:10AEB00013B108BDFF21F1E7FFF7B8FFF9E700BFC5
:10AEC000481F0020341F0020411F002010B5FDF74F
:10AED000FDFF0446054B1B782BB9FFF7A7FF204663
:10AEE000FDF7F8FF10BDFDF7F5FFFBE73C1F002065
:10AEF00010B5FDF7EBFF0446164B1B78D3B1164B8C
:10AF00001B782BB9144B01221A70144B00221A70B3
:10AF1000134B1B7893B92046FDF7DCFF012000F0AE
:10AF200055FBFDF7D3FF04460B4B1B7863B9094B68
:10AF300000221A702046FDF7CDFF10BD00F01EFB69
:10AF4000074B00221A70E6E700F04CFB024B002290
:10AF50001A70ECE7421F00203C1F0020411F002018
:10AF60003D1F002010B584B0A0B1831EDBB2012BC1
:10AF700013D803A9002000F02BFD70B9184B1B68F3
:10AF8000039A9A4212D80120FFF782FF154B012243
:10AF90001A7002E0134B1B780BB904B010BD0020EF
:10AFA000FFF776FF0F4B00221A70F6E70E4B1C6876
:10AFB00000F056FB20440399884206D30120FFF796
:10AFC00067FF084B01221A70E7E702230193002371
:10AFD0000093064A091A064800F09CFCDDE700BF12
:10AFE000381F00204C1F0020581F0020CDAE000845
:10AFF000181F002038B5FDF769FF0446114B1B7878
:10B000006BB900F01BFC0546C0B90F48FCF76EFB9E
:10B010000E4B00221A6000F01DFD0D4B186000F071
:10B02000C5F900F017FB0B4B1860064B01221A7094
:10B030002046FDF74FFF0025284638BD2046FDF786
:10B0400049FFF9E73E1F0020441F0020581F002041
:10B05000501F0020381F002038B50138144B1B5CEE
:10B060000A46A1B101210B4411490B5472B1114B95
:10B070001D78012D0AD9FFF797FE0446012808D94B
:10B08000032D09D00B4B1878A0420AD138BDFF21FF
:10B09000E9E7FFF72DFFF5E70228F3D100F0F2FA18
:10B0A000F0E72146FFF78EFE024B1C70EEE700BF73
:10B0B000481F0020341F002010B5FDF707FF04468D
:10B0C000FFF7B4FE2046FDF705FF10BD38B5044676
:10B0D0004160FDF7FBFE054621460348FCF709FBEE
:10B0E0002846FDF7F7FE38BD441F002038B5054659
:10B0F000FDF7ECFE044629460348FCF7FEFA20461D
:10B10000FDF7E8FE38BD00BF441F0020014B186862
:10B11000704700BF581F002038B5FDF7D7FE054621
:10B12000094B1B78012B0AD9FFF7F0FF044600F00A
:10B1300097FA04442846FDF7CDFE204638BDFDF7BA
:10B14000C9FE0024F9E700BF341F0020064B1B682E
:10B1500003FB00F000F5742000F23F20034BA3FB3B
:10B160000030800C704700BF501F002083DE1B435F
:10B1700038B5FDF7ABFE054600E000BF0DF004FF5B
:10B18000002842D100E000BF2846FDF7A3FEAAE058
:10B190000020FFF77DFE544B00221A7039E000F0CA
:10B1A0009DF943E02146FFF70DFE4AE04F4B002298
:10B1B0001A7017F0B9FF4DE04D4B01221A704D4B3C
:10B1C000187800F02DFA4C4B1B781BB14B4B1A78BA
:10B1D000484B1A7000E000BF2846FDF77BFEFDF7E4
:10B1E00075FE0546464B1B7843B1454B00221A704D
:10B1F000404B1B78414A107883423BD0414800F0D5
:10B2000059FB0DF0CFFE00283AD0374B1B78002BAE
:10B21000BED1FFF7C9FDFFF7A5FEFFF7C5FD044648
:10B22000012803D9324B1B78002BB8D0314B18784A
:10B23000A04208D02D4B00221A702F4B1B78002BF8
:10B24000B0D02C4B1C70294B1B781BB1294B1B78A1
:10B25000022BABD0012CB2D9254B1B78002BAED1E1
:10B26000294B1B78002BA7D100F082F9274B012234
:10B270001A70A1E701211F4B1970FFF7A3FDBDE76D
:10B280001A4B00221A701A4B1B78EBB11A4B1A702A
:10B290001E4B1B786BB9002000F098F978B901209B
:10B2A00000F0BEF92846FDF715FEFDF70FFE054636
:10B2B000F1E700F063F9154B00221A70EBE700F09C
:10B2C00091F90B4B00221A700020FFF74BFE094C3E
:10B2D00000212078FFF776FD0023237000E000BFF7
:10B2E0002846FDF7F7FD38BD4C1F00204A1F0020FF
:10B2F000421F0020341F0020411F0020541F002047
:10B30000401F0020181F00204B1F00203D1F002061
:10B3100008B50A4B1B7813B1094B1B7803B908BD5C
:10B3200000F060F90023064A1370064A13700123E7
:10B33000054A1370054A1370F1E700BF341F00205F
:10B34000411F0020421F00203F1F0020401F0020FF
:10B35000144B1B78834223D010B582B004460023DF
:10B360008DF8043002238DF8053010B900238DF8D4
:10B37000053001A8FDF7D4FD54B14020FFF7E6FEEB
:10B38000094A13681B1A1360064B1C7002B010BDEB
:10B390004020FFF7DBFE044A136803441360F3E721
:10B3A000704700BF08110020641F002010B582B054
:10B3B00000248DF8044001A8FDF75EFE2046FFF74B
:10B3C000C7FF404B1A6F02F007023F490A60D3F8EB
:10B3D000201103F580534FF4801058664FF400306D
:10B3E000586603F598339B69C3F3400337480370ED
:10B3F000032A2AD001F00701022924D0002234496F
:10B400000A705BB152B92F49D1F8001101F0030164
:10B41000012908BF42F001022D490A7053B1294B9E
:10B42000D3F8003103F00303022B42D0032B44D0A6
:10B43000012B0CD06420FFF789FE264A13680344D1
:10B44000136002B010BD0122D9E70122D7E7FBF754
:10B450004DFD0246002AEDD01F4BDB68C3F30B0302
:10B46000013303EB8303D80E5901C91A60F10000C0
:10B47000400240EAD1504902C91840F100044FEAA5
:10B48000841C4CEA916C8801411A6CEB0400CB18C7
:10B4900040F10001501E18184FF0000341F1000167
:10B4A0002BF030FBFFF752FE0A4A13680344136087
:10B4B000C0E7FBF783FD0246CCE7FBF72FFD024612
:10B4C000C8E700BF008000505C1F0020601F002004
:10B4D000631F0020641F002000C0015008B5FDF765
:10B4E00059FD08BD08B5084B1B7803B908BD064BCC
:10B4F00000221A70054A136F23F0070343F001037B
:10B500001367FBF7DDFCF1E7611F002000800050AE
:10B5100008B5134B1B7803B908BD022000F040FCAE
:10B520000028F9D000F084FA0028F5D00D4B9B6D6F
:10B5300013F4803F04D00B4BDB6D13F0020F09D1E5
:10B54000094B01221A70FEF703FE084B4FF48032BC
:10B550009A62E1E7054B4FF480329A62DCE700BF64
:10B56000631F00200040005A621F00200050005A54
:10B57000014B01221A707047611F002008B50F4B64
:10B580001B78ABB10E4B1B787BB90E4B9B6D13F444
:10B59000803F04D00B4BDB6D13F0020F09D1FEF797
:10B5A000D7FD094B4FF480329A62054B00221A7086
:10B5B00008BD054B4FF480329A62F9E7631F002003
:10B5C000621F00200040005A0050005A08B5044B8A
:10B5D0001B780BB9012008BDFEF730FEFBE700BF6A
:10B5E000631F002008B5FDF7D6FC094A136F23F04E
:10B5F0000703084909680B431367074B1B781BB106
:10B60000064B4FF480329A62FBF75AFC08BD00BF2C
:10B61000008000505C1F0020631F00200060005A63
:10B6200008B502280BD003280DD0012800D008BD92
:10B63000074A136923F00403136130BFF7E70020C2
:10B64000FDF77CFCF3E70020FDF790FCEFE700BF7F
:10B6500000ED00E008B54FF4C870FFF777FD08BDB6
:10B6600008B5064B1B7823B90020054B1B6818440E
:10B6700008BDFEF7BDFD00EBD000F6E7631F00201C
:10B68000641F0020704700000E4B1B68002201E081
:10B690001A469B680BB18342FAD183420ED14AB15C
:10B6A0008368936083685BB141695A690A445A614F
:10B6B000002070478268034B1A60F3E7022070474E
:10B6C00000207047801F00200A4B1B6800220A4997
:10B6D0000A7005E0084B01221A70704759690A4444
:10B6E000012A06D8D98811F0020FF3D19B68002BEC
:10B6F000F4D17047801F0020741F002008B500F0AF
:10B70000FBFA0B4B1B680B4A1268821A03E0521AB1
:10B71000002159619B683BB132B159699142F6D31E
:10B720008A1A5A610022F5E7024B186008BD00BF73
:10B73000801F00206C1F002070B505460C46C38892
:10B740002BB16C61134B1B68FBB100210CE0FFF7C0
:10B75000E3FC06468442F4D2FFF7AEFC3446F0E741
:10B76000A41A6C6119469B6823B15A69A242F7D9A1
:10B77000002AF5D031B18D60AB6013B15A69121B4C
:10B780005A6170BD034A1560F6E7024B1D60002345
:10B79000AB60F6E7801F002010B50B4B1B685B69A0
:10B7A0005BB10A4A14681C44022000F0B1FA20463A
:10B7B00000F0B6FAFFF788FF10BD022000F0A8FAEB
:10B7C000022000F0E5FAF5E7801F00206C1F002042
:10B7D00070B504460E4615469DF814200271049A71
:10B7E0000260002282600561C360BDF81830C3802A
:10B7F00000F082FA2844A061CEB900236361E368B7
:10B8000013B12168204698477DB1FDF75FFB0646DE
:10B81000FFF774FF29462046FFF78EFF064B1B6893
:10B82000A34206D03046FDF755FB002070BD3546DB
:10B83000EBE7FFF7B1FFF5E7801F002010B5FDF73C
:10B840004CFB0446144B1B78DBB9144A1360144AB2
:10B850001360144A138000F013FA012000F058FA24
:10B8600000F0AEFA0246104B186078B100230F4882
:10B8700040F2E7312BF046F90D4B1860064B0122E0
:10B880001A702046FDF72FFB002010BD2046FDF763
:10B890002AFB2320F9E700BF681F0020801F00203B
:10B8A0006C1F0020761F00207C1F002018FCFFFF6B
:10B8B000701F002070B540B30546FDF707FB044636
:10B8C000FFF71CFF124B1B68AB420CD0002628462A
:10B8D000FFF7DAFE054640B95EB10D4B1B6843B178
:10B8E000FFF75AFF08E00126F1E72046FDF7F2FADC
:10B8F00005E0074B1B6823B12046FDF7EBFA28460D
:10B9000070BD022000F03CFAF6E72225F7E700BF01
:10B91000801F0020B0B1F0B585B00F4614461D461B
:10B920000646FFF7C7FFBDF82C3002939DF828307C
:10B93000019300952346002239463046FFF748FF21
:10B9400005B0F0BD22207047B8B138B50C460546A9
:10B95000A9B100230B70FDF7C0FA0A4B1B6801E088
:10B96000012222702BB122781AB9AB42F8D09B6821
:10B97000F8E7FDF7B8FA002038BD222070472220F2
:10B98000FAE700BF801F0020F0B587B000248DF8D3
:10B990001740C8B10F4616461D4604460DF1170163
:10B9A000FFF7D2FF9DF8173083B9BDF8343002930A
:10B9B0009DF83030019300953346002239462046E9
:10B9C000FFF706FF07B0F0BD2220FBE70320F9E7F1
:10B9D000F8B505460F46FDF780FA0646124B1B6880
:10B9E000002407E000F088F9104B1B681B1A1C4468
:10B9F0000EE09B6893B15A691444DA88AA42F8D1E0
:10BA000000F07AF9094B1B68C01AA042EAD300245F
:10BA10003C603046FDF767FA002003E03046FDF752
:10BA200062FA1B20F8BD00BF801F00206C1F0020A1
:10BA3000014B1878704700BF741F002038B5FDF720
:10BA40004CFA054600F058F904462846FDF74BFA33
:10BA5000204638BD014B1868704700BF7C1F00208E
:10BA60000C4B1B68834213D310B50C460A4B196864
:10BA7000A1FB000140F2E733C0184FF47A724FF097
:10BA8000000341F100012BF03DF82060002010BDC3
:10BA900021207047701F00207C1F002008B5014640
:10BAA0001E4B186810B3431E184220D1CA0E4B011A
:10BAB0005B1A62F10002920042EA93729B005918ED
:10BAC00042F10003DB0043EA5173C900B0FA80F091
:10BAD000C0F11F0200F1010CC04321FA02F203FA87
