:020000040800F2
:100000000010002001020008B10100086906000884
:10001000B1010008B1010008B1010008B1010008F8
:10002000B1010008B101000858280008B10100081A
:10003000B1010008A0280008B1010008B1010008C2
:10004000B1010008B1010008B1010008B1010008C8
:10005000B1010008B1010008B1010008B1010008B8
:10006000B1010008B1010008B1010008B1010008A8
:10007000B1010008B1010008B1010008B101000898
:10008000B1010008B1010008B1010008B101000888
:10009000B1010008B1010008B1010008B101000878
:1000A000B1010008B1010008B1010008B101000868
:1000B000B1010008B1010008B1010008B101000858
:1000C000B1010008B1010008B1010008B101000848
:1000D000B1010008B1010008B1010008B101000838
:1000E000B1010008B1010008B1010008B101000828
:1000F000B1010008B1010008B1010008B101000818
:10010000B1010008B1010008B1010008B101000807
:10011000B1010008B1010008B1010008B1010008F7
:10012000B1010008B1010008B1010008B1010008E7
:10013000B1010008B1010008B1010008B1010008D7
:10014000B1010008B1010008B1010008B1010008C7
:10015000B1010008B1010008B1010008B1010008B7
:10016000B1010008B1010008B1010008B1010008A7
:1001700010B5054C237833B9044B13B1044800E0A3
:1001800000BF0123237010BD1010002000000000EC
:10019000C429000808B5034B1BB10349034800E01C
:1001A00000BF08BD0000000014100020C429000892
:1001B000FEE70000064B0748DA1C121AC11E22F0A7
:1001C0000302994288BF0022034902F019BB00BF15
:1001D0001010002008100020D0290008064B074806
:1001E000DA1C121AC11E22F00302994288BF0022B3
:1001F000002102F012BB00BF2C10002010100020C4
:1002000008B5084B83F30A88074B084AC3E9002264
:1002100000F00EF800F0ACFAFFF7CCFFFFF7DEFFBE
:1002200000F026FA0000002000100020A5EDF5FEE9
:10023000044B054A9A60D3F8882042F47002C3F850
:100240008820704700ED00E0000000084FF0984360
:100250005A6CD202FCD5586D00F470207047C0F380
:100260000C032DE9F04105460F4616460BB900F088
:10027000B3FB05F5005424F4FF5424F01F0405EBF0
:100280000608A04507D8324639462846BDE8F04161
:10029000022300F0AFBB204600F09EFB04F50054A3
:1002A000EFE770B44FF00065AD6A03462E698642F1
:1002B00006D86C6913449C4202D370BCFFF7CFBFD1
:1002C00070BC70471FB500F1006303F5A0230393D2
:1002D000104B144698421BD8039A0F4B9A4217D2E0
:1002E000039A9B1AA34213D358B94FF000639B6A39
:1002F0000A4A5869904204D91869019100F06CFBD0
:1003000001992246039804B0BDE81040FFF7A7BF4B
:1003100004B010BDFFFFFAF700E007080000050871
:100320007FB56FF0006200F17841914203461AD226
:100330006D460E4A02F110062C46106851680832CC
:1003400003C4B2422546F7D15A1E0DF10F010F33F7
:1003500011F8010912F8014F844204D19A42F7D1F1
:10036000012004B070BD0020FBE700BF4428000856
:10037000036913F0FE0F0CBF01200020704738B551
:1003800004460D46FFF7CCFF48B16369012B09D144
:100390002046FFF7EDFF08B1A3692B6038BD0120AF
:1003A0002C60FBE70020F9E72DE9F04103680446E3
:1003B00003F16043B3F5803FA0B034D84FF0006341
:1003C0009B6A42681E6996422DD8394B9A422AD8B8
:1003D000456B06F14002AA4268D89D4266D828467D
:1003E000FFF79EFF002861D02846FFF7C1FF80B1CC
:1003F0006B6973B1022B0FD1AB69C4F104011944CD
:100400004FF0FF32204601F0B9F82A4BC31A584288
:10041000584120B0BDE8F08140F2046328460493BF
:10042000FFF77EFF08B90020F3E72846FFF7A0FF9B
:100430000028F8D04FF00067D7F834804046FFF727
:100440006FFF0028EFD0503EB045ECD8284605A9F4
:10045000FFF795FF0028E6D0BA6A059B12699A4219
:10046000E1D89C42DFD8124A9342DCD806A801F0BA
:1004700059F9059A2146121B06A801F063F906A84E
:1004800001F062F9059C01F063F9039001F07EF937
:1004900021460090039B04F1200206A801F0C2F857
:1004A00004900498B0FA80F04009B2E70120B0E768
:1004B00000000808E320BBDE70B54FF0FF3290B0BB
:1004C00005460C4601F05AF81C4B984232D14FF4C5
:1004D00080621B4B00219A6601A81C2202F09DF944
:1004E000184B29466846043C009301F0D8FF21468A
:1004F000684601F0D4FF684601F0DAFFFFF7A6FE78
:100500000646B8B940F2022000F017FA1C22314624
:1005100009A802F082F90C4B294608A8089301F0BB
:10052000BEFF08A8214601F0BAFF08A801F0C0FFED
:10053000FFF78CFE002010B070BD00BFE320BBDED3
:100540000090004001000543010006434FF4806223
:1005500030B50446154B91B09A6600211C2201A8C3
:1005600002F05BF9124B21466846009301F097FFB9
:10057000684601F09DFFFFF769FE054698B940F215
:10058000022000F0DAF91C22294609A802F045F9F8
:10059000084B08A82146089301F081FF08A801F044
:1005A00087FFFFF753FE002011B030BD00900040E0
:1005B00000000243000003434FF4806210B50F4B6C
:1005C0008CB004469A6600211C2205A802F025F989
:1005D0000B4B01940493012302930A4B01A904A835
:1005E000039301F052FF04A801F062FFFFF72EFE13
:1005F000B0FA80F040090CB010BD00BF0090004080
:1006000000000843040000204FF0FF3313B50446F8
:1006100001A80193FFF7D0FF20B1019BA3422CBF9B
:100620000020012002B010BD0048704700000508FE
:1006300001F066BD01F0CABD38B50C46054680B173
:1006400079B100230B60074B036001F09EFD013080
:100650001EBF2B6843F4C0432B60236843F40003A0
:10066000236038BD0C1200084FF4017000F08AB905
:1006700013B54FF480303749374A4B6E5066486E99
:100680004FF000414AF6CD345166344903F48033CB
:100690004A6C0C6402F001024C6BE407FCD40124A8
:1006A0002F494C60A1F500510C6BE407FCD50AB151
:1006B0002C4A0A640028A2BF4FF000412A4A516622
:1006C0001BB94FF48032284B5A664FF04023D3F8C1
:1006D0008420110606D44FF400621A67D3F88420F0
:1006E000D206FBD4FFF7A4FF00F01BF908B900F015
:1006F00006F901F011FB044658B900F012F908B1EF
:1007000000F009F940F2012000F03CF94FF40170CB
:1007100018E000F006F908B900F0F7F800F018F951
:10072000012802D900F0EBF8FEE700F01BF90F4BAF
:100730000193019B002B0ADC40F205439C42E5D16A
:1007400040F2032000F01EF9002002B010BD019B12
:10075000013BEDE700800040009000400040094070
:10076000006009403254FFFF00A0004000350C003B
:1007700013B501244FF040238DF806408DF8074053
:10078000D3F894305B0610D500F010F9A0F20220E7
:1007900080B2072809D804FA00F010F0C90F1EBF74
:1007A00000238DF806308DF80730194B5B68013354
:1007B00008D14FF4027000F0C0F800238DF8063025
:1007C0008DF807309DF807305BB11148FFF7ECFD5D
:1007D0008DF806009DF806301BB94FF4027000F04A
:1007E000ACF89DF8063083B100F09BF808B100F03A
:1007F00092F8074B074A93601846016881F308880E
:1008000081F3098840688746FEE702B010BD00BF4B
:100810000060000800ED00E0B1F50D7F10B5044662
:100820000FD34FF40D72002101F0F7FF04F5DE72D3
:1008300004F5AA7104F12C000023BDE8104000F07B
:1008400049BA40F2052010BD13B504460091014697
:100850002C3000F07BFAC4F8300218B141F20703E3
:10086000984209D1A3784BB140F2032040F2022311
:10087000E278002A08BF184602B010BD40F20120FD
:10088000FAE72DE9F04387B00DF1080904460E465A
:1008900017460021102248461D46DDF8388001F039
:1008A000BCFF00211C22C8F80010284601F0B5FF4B
:1008B00032463B462146CDF8009004F12C0000F072
:1008C00045FA23789A0744BF6268C8F80020DB071E
:1008D00009D504F1080304F1240253F8041B9342E0
:1008E00045F8041BF9D1237840F20640002B18BFCD
:1008F000002007B0BDE8F0834FF40D7070474FF053
:1009000000534CF23C325A8070474FF000534AF685
:10091000C0325A8070474FF000534FF20F025A8096
:1009200070474FF000534AF6C0305B8823F00F0346
:100930009BB21B1A5842584170474FF0005208B5FD
:100940001080FFF7EEFF10B94FF20F03538008BD80
:1009500008B5FFF7E6FF20B14FF00053588800F0CC
:100960000F0008BD08B5FFF7DCFF50B14FF0005293
:10097000538803F00F010F2914BF013323F00F0335
:10098000538008BD08B5FFF7D8FFBFF34F8F054967
:10099000054BCA6802F4E0621343CB60BFF34F8F8C
:1009A00000BFFDE700ED00E00400FA054FF0005342
:1009B0004FF20F015A888A4201D1188870473AB91C
:1009C0001B8840F20220012B18BF4FF400707047C3
:1009D0004FF40070704700004FF4803208B5044BAC
:1009E0009A6601F06BFCB0FA80F0400908BD00BFC8
:1009F00000900040072BF8B506460F4614461D46EA
:100A000001D90020F8BD0121202001F0E7FB0121E0
:100A1000212001F0E3FB8CB144EA06039B07F0D1EF
:100A20004FF48032064B31469A66284623463A46B2
:100A300001F0A8FCB0FA80F04009E3E70120E1E70B
:100A400000900040134610B562B103439B070BD1E1
:100A50004FF48034054B9C6601F058FCB0FA80F0EE
:100A6000400910BD0120FCE70020FAE7009000409B
:100A7000002070470020704770B5D1E90152AA42AA
:100A800005D290F840302B449B1A402B10D90020FF
:100A900012E00A6890F84040D65C90F8412001339B
:100AA000224402F03F02013486548B6080F84040BB
:100AB0008B689D42EDD8012070BD2DE9F8431D469D
:100AC0001746D1E901329B1A90F84020044613449E
:100AD0009D420E469DF820909DF824805BD9FFF73B
:100AE000CBFF002861D1142341F2020084F8463084
:100AF000BDE8F88394F84120A25CFA5494F84120B0
:100B00000133013202F03F0284F8412094F8402082
:100B1000013A84F8402094F840200AB19D42E9D17E
:100B2000D6E90121914201D29D4236D89D42DAD1C7
:100B300029463846D4F8882000F020FDC4F8880003
:100B4000B9F1000F04D02A463946E06C00F0FAFDF6
:100B5000B8F1000F08D094F843308BB12B463A46D9
:100B60003946A06C00F04CFD94F8433043B1E36D7E
:100B7000A26D2B449342E36524BF002384F84330E5
:100B8000D4F81C3141F203002B44C4F81C31636DCE
:100B90002B446365ACE70023BDE73268525CFA542E
:100BA000B26801330132B260BAE70020A0E700006A
:100BB0007FB50023CDE90033082315460DEB030272
:100BC0000446FFF77AFF41F203039842064626D116
:100BD00094F8433063B10822E06C0DEB020100F0A1
:100BE000B1FD08230DEB03021146A06C00F008FDD7
:100BF000039A029B6A6094F843202B605AB9094A11
:100C0000934208D0084A934205D00822E06C0DEBCD
:100C1000020100F097FD6B68236500236365304691
:100C200004B070BDF70A0AF7FC0404FC2DE9F74391
:100C3000044658680E4617469846002842D08B074F
:100C400043D14FF000639B6A206E1B6902EB000CDE
:100C50001D1D65451CD81C33984219D28542294672
:100C600038BF01469C4594BFC1EB0C02C1EB0302A7
:100C7000081AC5F1680506EB0009681820444946C2
:100C8000019201F0BDFDFF214846019A01F0C5FD2A
:100C9000226E0F4B9A420BD2B9180233994207D9F0
:100CA000033B9B1AF258C4F880204FF0FF32F250F9
:100CB0003A46D8E90035206E3146A8470020226E1A
:100CC0003A44226603B0BDE8F08341F20200F9E73E
:100CD000050005082DE9F04100254FF0FF370446D7
:100CE0008846164603F0200380F842301822FF2180
:100CF000C0E91855A0F8405080F84350A0F844507F
:100D000080F84650C0F88870683001F086FD88226F
:100D10002946C4E91286C4F88070C4F8847004F1CE
:100D2000900001F07AFD40F20113A4F82431012370
:100D3000C4E9475784F8185184F8263116B1304673
:100D400000F0F0FC0020BDE8F08100002DE9F04F3C
:100D5000A7B0CDE913230293002304460D46309E2D
:100D6000DFF8A0931593159A029B9A4201D30020B5
:100D7000C7E094F84630142BF6D8DFE813F067008C
:100D8000AE00A800520039002E005902390051026D
:100D90003900DB01390051029603F8031500980170
:100DA0003C033C03CE02F8034FF00008636D0F2BA9
:100DB00000F291800127102316AA2046CDF8048066
:100DC000009713A9FFF779FE41F203030990099AEE
:100DD0009A4200F05E81099B44E00127D4E9143275
:100DE000934200F26A8184F8467041F2030339E0CD
:100DF0004FF00108D4E9147297426CD9BF1ADDE9AB
:100E00001423D21A94F84030032F1A4440F214826B
:100E1000032A00F21482204613A9FFF72DFE0023B7
:100E200020E00127636D072BDFD8082316AA204690
:100E3000CDE9007713A9FFF740FE41F203030C90C0
:100E40000C9A9A4200F0B8810C9B0BE016AA20463F
:100E500013A9FFF7ADFE41F203020690069B9342F1
:100E600002D0069B059345E0179A16992265002249
:100E70006265994A914240F0AC81022284F8462092
:100E8000F0E7012316AA009320460823019713A92F
:100E9000FFF713FE41F203030790079A9A4201D02D
:100EA000079BDFE7169B03F07F43B3F1407F05D03C
:100EB000142384F8463041F20903D3E7179BDA077D
:100EC00006D594F8423043F0010384F842300027FD
:100ED000636D072BD5D90123A7E1204616AA13A9D4
:100EE000FFF766FE41F203030890089F9F420BD074
:100EF000089F059741F20303059A9A423FF433AFE6
:100F0000059827B0BDE8F08F94F84420169B22B1D5
:100F1000724A93422DD10D234BE094F8422012F0F7
:100F2000010249D094F84310002945D16C4A9342FC
:100F300000F0A28023D86B4A934200F096800FD82D
:100F4000654A934215D04B4500F08380142316A8C0
:100F500084F84630FFF78CFD70B941F20807C8E706
:100F6000614A934205D0614A934202D0604A93425B
:100F7000ECD1142384F8463041F20107B9E75D4A09
:100F8000934215D009D85C4A9342DFD1102384F8EC
:100F90004630236DC4E91631ABE7504A9342BAD0CC
:100FA000013A9342D2D9554A9342E2D0544ADEE7FD
:100FB0000F2384F846309CE74C498B424DD02ED805
:100FC0004B498B4247D025D84B453DD0454A9342AB
:100FD00047D016A8FFF74CFD00284FD013231698D2
:100FE00084F84630C4F88C00FFF744FD94F8423092
:100FF0009B067FF57EAF00283FF47BAF4368002B54
:101000003FF477AF204698470890089B002B3FF4A9
:1010100070AFB1E7344A9342DBD10323C9E7374AC3
:1010200093421CD00BD82E4A934220D02B4A934295
:10103000CFD194F84330002B3FF46DAF99E7304A9D
:101040009342C6D10823B4E71AB194F84330002B79
:101050008FD10A23ADE70523ABE70623A9E70C23CD
:10106000A7E794F84330002B83D11123A1E794F82C
:101070004330002B7FF47DAF12239AE7142384F8CA
:10108000463094F84330002B3FF467AF41F2040739
:101090002FE7D4F848A000F097FB80230221CDE988
:1010A000000317AA3B46504600F080FA7EE6012373
:1010B00084F8433084F8463055E616AA2046CDE938
:1010C000007713A9FFF7F9FC41F203030A900A9A8B
:1010D0009A4219D00A9BC5E6EB17A603FC0404FC50
:1010E000F70A0AF7F30B0BF3F50909F5F60808F60A
:1010F000F40A0AF4FA0606FAF90707F9FD0303FDF4
:10110000FE0101FEEB17A65E0DF1580C05F1080378
:101110000DF1700E624603CA72451860596094461C
:1011200003F10803F6D1106818602B7843F001032F
:101130002B7053E60127D4F81C31083BC4F820314A
:10114000636D072B3FF651AE082318AA2046CDE960
:10115000007713A9FFF7B1FC41F203030B900B9A40
:101160009A4201D00B9B7DE62B7843F004032B7051
:10117000199BAB626B7858071AD5EB238DF8583062
:1011800017238DF85930A6238DF85A305E238DF839
:101190005B30236DC4F884300023636694F84530D7
:1011A00043F0020384F84530F3680BB11023636603
:1011B0000B2384F84630C3E72B7843F002032B70EF
:1011C000169B6B60236D083B6B62179BB3F1006F3E
:1011D00005D0142384F8463041F2010342E604238B
:1011E00084F8463094F8453043F0010384F84530E4
:1011F0000023636616E6042316AA2046CDE900778D
:1012000013A9FFF75AFC41F203030D900D9A9A427D
:1012100001D00D9B26E6236D042B02D9169B236675
:101220000127636D032BE6D9092384F84630DCE5FA
:101230000023636607233DE797423FF6ECAD402F5E
:1012400028BF4027974228BF1746032F88BF27F0A3
:1012500003073B4616AA2046CDE9008813A9FFF7ED
:101260002CFC41F203030E900E9A9A4201D00E9B81
:10127000F8E594F846B0BBF1070F04D1D6F808A002
:10128000BAF1000F1BD1042FC7F1040A88BF4FF039
:10129000000A16AB5246FF21D81901F0BEFABBF185
:1012A000090FBA4414D133465246204616A9FFF717
:1012B000BDFC0E900E9B002B3FF49CADD7E73A4649
:1012C0003368606E16A9D047626E3A44626691E553
:1012D000BBF1040F7FF48EAD6B7899077FF58AAD73
:1012E000F368002B3FF486AD626E042A0BD80AEB3C
:1012F0000203062B07D917AB9B1A1A68C4F884207F
:101300004FF0FF321A60F76852463368606E16A9D4
:10131000B847676E574467666CE594F8427017F0FB
:10132000200707D0D4F88C00FFF7A4FB074600285D
:101330003FF452AF4FF0010A42E04BB347B33B6971
:1013400033B320469847DDE9143294F840809B1A65
:1013500043448342FFF45FADD4E91421A2EB0108BA
:10136000B8F1400F28BF4FF04008984528BF984675
:1013700016AA43462046CDE900AA13A9FFF79DFB14
:1013800041F203030F900F9A9A4203D00F9B69E535
:101390000120D8E794F842309A0611D5002F3FF487
:1013A0001BAFD7F808B0BBF1000F3FF415AF3346C1
:1013B0004246204616A9D8470F900F9B002BE5D137
:1013C000D4E9142194F84230914203F02003B4D3BD
:1013D000002B3FF480AD002F3FF47DADFB68002B68
:1013E0003FF479AD3146204698470F900F9B002B74
:1013F0003FF471ADCAE74FF000618A6A496B126928
:10140000503A91423FF6E8AE112B0FD194F81831C3
:10141000002B7FF460AD41F206031093109A9A42BC
:1014200002D1142384F84630109B1BE594F8443015
:10143000002B7FF450ADCDE9003316AA402320469F
:1014400013A9FFF73AFB41F203031090109A9A4256
:10145000EAD1E06C00F078F994F81831A3B104F106
:10146000B403E06C00931EAA04F1940316A900F0E3
:10147000D9F81090109B9BB10023EB70142384F8D3
:10148000463041F20603EDE4E76C00F061F90390A9
:1014900000F07CF9039B00901EAA384616A9E6E7E7
:1014A0000123EB7084F8443015E5002316AACDE93A
:1014B00000332046042313A9FFF7FFFA41F2030388
:1014C0001190119A9A4202D0119B059318E5D4F815
:1014D0008820284B9A4205D0142384F8463041F2E4
:1014E0000503F2E70123EB7094F84530DB0707D5DD
:1014F000F7682FB104223368104604F18401B8471D
:10150000236E6BB377685FB34FF0FF3304F1800154
:10151000042212A81293029101F062F920B1042270
:10152000336802991448B84704F16809042249460F
:1015300012A801F055F998B14FF000639B6A14228C
:10154000D3F8108004F16C0108F10800D6E90037E7
:10155000B847D6E900370422494608EB0200B847ED
:101560000123AB700E2384F846300023ADE741F22F
:101570000700C6E4E320BBDE0400050830B50824FC
:10158000094B00255C66012403F5FE235C600144E1
:101590009D601A61DC60884201D1586A30BD10F844
:1015A000012B1A62F7E700BF00900040F7B516461E
:1015B0004FF480621D46114B04469A6620300F4658
:1015C000019000F0C9FFDDE90812019800F0C8FFA2
:1015D000002384F8587063643368C4F85930736822
:1015E000C4F85D30B368C4F861302B0C6DBA84F870
:1015F0006530A4F8665003B0F0BD00BF0090004015
:101600001FB50C46194600F14803CDE9014200938D
:1016100000F1440200F15803203001F01DF804B03D
:1016200010BD00002DE9F04315464FF480621C46C2
:10163000364B99B0DDF880900E4607469A66002832
:1016400061D000295FD0002D5DD0002C58D0304BE8
:10165000304AB9F1000F14BF984690461C22002171
:1016600011A801F0DAF82C4B414610A8109300F0B5
:1016700016FF202110A800F012FF0122274B019431
:1016800002920393CDF810900592069354B1B9F1EC
:10169000000F07D001A910A800F0EDFE04A910A8C2
:1016A00000F0E9FE079701271C4C07A910A808972E
:1016B000099400F0E0FE0AA910A80A960B970C9472
:1016C0000D950E970F9400F0D6FE0DA910A800F00E
:1016D000D2FE10A800F0ECFE114B00934FF098439F
:1016E0005A6CD202FCD55B6D40F2046003F47023A7
:1016F0000093009B002B08BF002019B0BDE8F083C9
:10170000DFF81080AAE740F20160F6E700900040A1
:101710001F2400801F24FC840000010620000020FC
:10172000785634124FF4806210B50446044B9A6622
:1017300000F002F92046BDE81040002100F000B999
:101740000090004000F001B9014600F00BB9000024
:101750004FF4806200B50B4B91B09A666946002346
:1017600040224FF4807000F0C1FEB0F5A02F07D0EA
:10177000B0F5302F044818BF002011B05DF804FB0D
:101780000148FAE7009000404CE307084FF48062FC
:1017900000B50B4B91B09A666946002340224FF486
:1017A000807000F0A3FEB0F5A02F07D0B0F5302F69
:1017B000044818BF002011B05DF804FB0148FAE7A7
:1017C000009000406CE307080048704786E2070875
:1017D0002DE9F34799460A9B0C46196805463F29AF
:1017E000164642D85A68002A41D0224A002E14BF19
:1017F000B046904601F03F07091928BF5A681960A2
:1018000024BF01325A60AFB1C7F1400AA24521D8C6
:101810002946524609EB070000F0F2FF012341463A
:1018200000934A463346002000F0A4F8B046403CFE
:1018300055443C443F2C0CD9A3092A460093414609
:101840003346002000F096F824F03F031D4404F0D6
:101850003F0400272CB12246294609EB070000F07F
:10186000CFFF002002B0BDE8F0879046C2E7DFF866
:101870000480BFE7F028000830B40546084611464A
:101880001A46DDE9023425B931B1029430BCFFF7C4
:101890009FBF024830BC70470846FBE780AFFFFFA0
:1018A0002DE9F0411746146886B01E46E3008DF816
:1018B0000F30630952688DF80E30630B8DF80D30D0
:1018C000630D8DF80C30D30003EB54738DF80B309F
:1018D00004F03F045309372C8DF80A304FEA523395
:1018E0004FEA525205468DF80820884694BFC4F14D
:1018F0003802C4F17802CDE900178DF809300D499E
:1019000003460020FFF7B8FF082143462A46009708
:101910000DEB0100FFF75CFF284605F1200350F8AE
:10192000042B984246F8042BF9D1002006B0BDE8FC
:10193000F08100BF102900086822002100F06DBF6F
:101940000023C0E900331846704707B500F12803AB
:101950000190009300F108030020FFF78DFF03B012
:101960005DF804FB02460B4600F128010830FFF742
:1019700097BF0000F0B517464FF480621D46254B17
:1019800093B00E469A660446202200210AA800F071
:1019900044FF01204FF000520197029003920496F9
:1019A00005900692079508900992002C2FD1189C5B
:1019B000194BA40121460AA80A9300F070FD03996F
:1019C0000AA80C430394069B04A943F02003069342
:1019D000099B43F02003099300F04DFD01A90AA8DB
:1019E00000F049FD07A90AA800F04FFD0AA800F081
:1019F0005FFD4FF098435A6CD202FCD55B6D13F437
:101A0000702F0CBF00206FF06F0013B0F0BD6FF0AF
:101A10007100FAE700900040000401032DE9F04155
:101A2000A2B0502204460D460EA8002100F0F5FE9B
:101A30003422002101A800F0F0FE01A800F08CFA89
:101A4000049B012B11D8002320466A1E9D424FEAB9
:101A500082024FF0FF0108BF1A4640F8043B00F035
:101A6000DCFE002022B0BDE8F081AB4258D300F08C
:101A70004FF9059B0C220EA90646DF6800F050FBCB
:101A80000028EFD1DFF8A4800E9B434515D1109AB2
:101A90000EA9304600F044FB4FF0FF3210990EA81B
:101AA000FFF76CFD204B984226D0FF212046AA006C
:101AB00000F0B3FE40F20550D4E737440C2238461C
:101AC0000EA900F02DFB0028CCD10E9B4345ECD194
:101AD0000EA93846109A00F023FB059B3046D968C2
:101AE00000F055FB0028BDD13046109A0EA900F039
:101AF00027FB0028CBD0B5E7109E11A9103EB608F1
:101B0000AE4228BF2E46B7003A46204600F078FE87
:101B1000AA1B9200B54238BF0022FF21E0199EE7C0
:101B200040F204509EE700BFE320BBDE39528FE154
:101B300044222DE9F043A3B00C46814600210DEB71
:101B4000020000F06AFE012350262E4A0021CDE952
:101B50000E2301A83422109600F05FFE01A800F0C9
:101B6000FBF9049BA34249D3012B0AD8D9F80030D2
:101B700040F204500133012B98BF002023B0BDE890
:101B8000F08300F0C5F8102C28BF1024059B4FEA05
:101B90008408DF68424649460744054611A800F01C
:101BA0002FFEC4F110040EAB08F10C001844FF2105
:101BB000A20000F032FE4C214FF0FF320EA8FFF7DA
:101BC000DDFCC043059B2190D968384600F0DFFA60
:101BD0000028D3D1324638460EA900F0B1FA0028C9
:101BE000CCD1059B2846D96800F0D1FA0028C5D190
:101BF000324628460EA900F0A3FABFE740F204508F
:101C0000BCE700BF39528FE130B59FB034220021CC
:101C1000054601A800F001FE01A800F09DF9049C12
:101C2000012C1ED921460EA8FFF7F8FE18B140F28C
:101C3000055398420ED100230EAA52F8041B481CEB
:101C40000AD11EAA02EB8303214643F8405C0EA88A
:101C5000FFF76EFF1FB030BDA94205D001339C4293
:101C6000EBD140F20250F5E740F20350F2E70000FA
:101C700010B5ADF50E7D4FF40D72002001A900F0F6
:101C80008DF940F20124002101A800F0BFF8A04224
:101C9000F9D040F20323984213D19DF8043059073C
:101CA00012D50B98FEF7B0FC70B18A9800F0A6F937
:101CB00050B1549800F1006000F58820FEF746FC12
:101CC00010B940F2054017E09DF804309A0710D58E
:101CD0004FF00062926A02999268914209D98A98FB
:101CE00000F0AAF90028ECD00A990848FEF7E4FBB6
:101CF000E7E7DB0703D400200DF50E7D10BD049946
:101D00008A9800F0BDF90028F5D1DAE7000005084F
:101D10000048704700400408FFF7AABF31B10A4BE2
:101D20005A68824205D80023C1E9003340F20140DD
:101D30007047013053F8302003EBC00043680A605D
:101D400000204B60704700BFB429000801221A70C0
:101D50007047000070B40C4611460C4A5568854225
:101D60000DD9013002EBC0067668E518B5420AD8F5
:101D700052F830001A46204470BC00F0D1B940F24D
:101D8000014070BC704740F20240FAE7B4290008F5
:101D900030B5CA681B4B04469A420D46A3B019D110
:101DA000FEF742FCD4F82432174A013352F833309C
:101DB000D4F82C221344984208D38033984209D295
:101DC00041F20D03C4F8303223B030BD00F5C0300D
:101DD0009842F5D88023D4F82C1202AAD4F8240211
:101DE000FFF7B8FF80232146009502AA04F12C00DA
:101DF000FEF7ACFFD4F82C32C4F830028033C4F8BC
:101E00002C32E1E7C5020008B42900081FB5002301
:101E1000CDE90033CDE90213D0F83032044693B94E
:101E2000D0E98A329A420ED26946FFF7B1FFD4F860
:101E3000300298B141F2070240F20123904208BFFC
:101E4000184604B010BDA3785BB140F2022040F206
:101E50000323E278002A18BF1846F2E740F2012077
:101E6000EFE740F20220ECE770B50D46002186B0A6
:101E70000DF1070302931F4B0446164611602846D6
:101E80001C22CDE903338DF80710059300F0C5FC43
:101E900094F87230132B28D0D4F830322BBBD4E90D
:101EA0008A21914207D2204602A9FFF771FF9DF8CF
:101EB0000730002BECD02278910744BF6168316075
:101EC000D20709D504F1080204F1240152F8040BE9
:101ED0008A4245F8040BF9D14BB9237840F2064009
:101EE000002B18BF002006B070BD0023E3E70020E0
:101EF000F9E700BF4D1D000870B40C4611460C4AAE
:101F0000556885420DD9013002EBC0067668E518A8
:101F1000B5420AD852F830001A46204470BC00F08E
:101F20000FB940F2014070BC704740F20240FAE73E
:101F3000B4290008074B5A68824207D9013003EBE5
:101F4000C002516853F8300000F021B940F201405E
:101F5000704700BFB429000870B5054688B0C0B10D
:101F60004FF4403200236C46C0E900230A4B05F1D0
:101F700014061A785B680272C360684600F0B2F813
:101F80000FCC0FC694E80F0086E80F0005F114038C
:101F90002B6108B070BD00BFB429000837B50C46EE
:101FA000054611462046FEF737FC48B969462846E3
:101FB000FFF7B4FE20B9019BC4F82452C4F82832BC
:101FC00003B030BD38B500F5DE7204460D4620235F
:101FD00000F5AA712C30FEF77DFED4F830321BB923
:101FE000D4E98A329A4203D3A07800B1E07838BDB0
:101FF00029462046FFF7CCFEEFE7000000B5ADF51F
:10200000137D4FF40D7205A9FFF7C8FF78B90423BB
:102010008DF81530074BCDE90100039001A905A803
:102020000493FFF7CFFF0DF5137D5DF804FB00204F
:10203000F9E700BFC50200084FF0006300B59B6AD6
:10204000ADF5137D9B688B4204D300200DF5137D05
:102050005DF804FB4FF40D7205A9FFF79FFF002800
:10206000F3D102238DF81530044BCDE90100039024
:1020700001A905A80493FFF7A5FFE7E7C50200083B
:1020800000B5ADF5137D4FF40D7205A9FFF786FF7E
:1020900078B901238DF81530074B0190CDE9023056
:1020A000049001A905A8FFF78DFF0DF5137D5DF8DC
:1020B00004FB0020F9E700BFA3020008B1F5002FE0
:1020C0000BD800F17843B3F5002F06D80844044933
:1020D00088428CBF0020012070470020704700BF5D
:1020E0000000080870B504460646044D0FCD0FC425
:1020F00095E80F0084E80F00304670BD9429000871
:102100004FF48032014B00209A66704700900040E7
:10211000024BD86900F00100704700BF0000034087
:1021200038B50C4611460546FFF7C8FF28B12946C9
:10213000204600F065FB002038BD40F20240FBE77E
:1021400038B50D4611460446FFF7B8FF80B940F296
:10215000024016E0E158013114D104339A42F9D813
:10216000AB0707D1022329462046FEF743FC05E0D2
:102170000023F3E729462046FEF764FC0028E6D05A
:10218000002038BD40F20340FBE70220704738B51D
:1021900041EA0003C3F30C0304460D469BB9FFF765
:1021A0008DFF48B12544204604F50054FEF714FC89
:1021B000AC4204D00028F6D140F2024038BD0028DD
:1021C000FAD00020FAE740F20440F7E74FF48032FB
:1021D000014B00209A66704700A00040430905D0DB
:1021E000012B0DD0022B094B18BF002300F01F005C
:1021F00041B103F58053012202FA00F018607047E4
:10220000034BF3E703F50053F5E700BF6880004098
:1022100064800040F0B5114A114C124E00F00105E7
:10222000E3695F0713D40DB9334213D103EA000702
:102230008F4207D10B4A1A40002A14BF6FF00100E9
:102240000020F0BD013AEBD16FF00200F9E74FF04A
:10225000FF30F6E76FF00100F3E700BF80969800CB
:10226000000003400200010070B5134C6061E36997
:102270005B071ED40E4656F8043B8D18A361AE4290
:102280000BD10423002121202361FFF7C3FF58B99C
:10229000BDE870402120FFF7BDBF08210846FFF7C9
:1022A000B9FF10B10423236170BD56F8043BA3614C
:1022B000E5E74FF0FF30F7E7000003404FF48032CE
:1022C00038B50E4B0E4C9A66E56941F671331540F0
:1022D0000122E3630B4B0021DA60022360612120BD
:1022E0002361FFF797FF10B92120FFF793FF012229
:1022F000054BDA600DB10023E36338BD0090004068
:102300000000034000100340002003402DE9F84383
:1023100015464FF48032184B89469A6603F51C33F4
:10232000DF690646174041F67132DA63012203F590
:102330008053DFF84C80DA6055B9284601220F4BF4
:10234000DA601FB10022A3F50053DA63BDE8F88319
:1023500006F5005404EA0804A41BAC4228BF2C462E
:10236000494622463046FFF77FFF0028E6D1264443
:10237000A1442D1BE0E700BF009000400020034077
:1023800000E0FFFF2DE9F04F06464FF43025012015
:10239000B400DFF8C0C004F1402404F58024CCF878
:1023A00004006560302500244FF48037DFF8A8E092
:1023B000DFF8A89005FB06E5EC652C662C67234C3E
:1023C000DFF89CA0A76641F6713704F51C34D4F8F9
:1023D0001C80E763E76800FA06F60743E7604BB93D
:1023E000E26818F4803F22F00102E26000D0E3636B
:1023F000184628E001F5005000EA0900401A98420A
:1024000028BF18466161D4F81CB087081BF0040F80
:1024100017D1013F3F0147F060576F66AA66C5F8C4
:102420006CA0CCF82460DEF834703E42FBD0084F3C
:1024300001447E630427CCF82860024427611B1AFC
:10244000CDE74FF0FF30BDE8F08F00BF00900040B7
:1024500000200440001004400000044000E0FFFFA2
:10246000180003404FF098435A6CD202FCD5586DC7
:1024700000F470207047436813B9416070475B688F
:102480005A68012AFBD159607047836813B981608B
:1024900070475B685A68012AFBD159607047C3696D
:1024A000032B9FBF00EB83020133D160C3617047F0
:1024B000C369042B15D84FF09842116CC902FCD5A2
:1024C00004339B0013650168103B116041680C30B8
:1024D000116050F8041C034411604FF09842984278
:1024E00000D1704750F8041B1160F8E7F0B50746BB
:1024F0000F4D10488DB0002B08BF05460E46144600
:1025000000211C2205A800F088F9012304A801A9D4
:102510003D4344F000540196049502930394FFF761
:10252000B4FFFFF7C5FFFFF79DFF0DB0F0BD00BF83
:1025300001000AFF010008FF4FF48062014B0020F8
:102540009A667047009000404FF48062014B002073
:102550009A66704700A000402422002100F05DB977
:1025600070B515460E4624220021044600F055F9A8
:1025700025F04003802B02D0B5F5807F08D120469E
:10258000314640F8045BEA0800F03AF9002070BDDB
:102590006FF01F00FBE700002DE9F04104681E46C4
:1025A00024F04003802B05468846174692B002D09F
:1025B000B4F5807F43D11C2200210BA800F02DF937
:1025C000224A234B0121B8F1010F18BF13460A9389
:1025D0002B1D0193E4081F4B44F0005402910AA8FC
:1025E00003940497059106930796089101A909930E
:1025F000FFF741FF04A90AA8FFF73DFF07A90AA8B2
:10260000FFF743FF29680AA8C908FFF748FF102110
:102610000AA8FFF744FFFFF78FFF98B90AA8FFF752
:1026200047FF4FF098435A6CD202FCD55C6DFFF720
:102630008BFF04F47024204612B0BDE8F0816FF0E7
:102640007100F9E74FF0FF30F6E700BF0001010429
:1026500000010004100000202DE9F04F9BB0074658
:10266000894698461646DDF894B072B115683B6805
:1026700023F04002802A03D0B3F5807F40F0A6808B
:102680000BEB0903002400930DE01546EFE795B12D
:10269000249A1BF80430525D01355340269A05F008
:1026A0000F05135501344C45F1D3002E00F09180F5
:1026B0000020356067E0A9EB040ABAF10F0F57D983
:1026C0001C22294613A800F0A8F8434B3A6812933D
:1026D0003B1D03930123D20842F00052049305925C
:1026E0003E4A2699CDF818802AF00F0A07930892DF
:1026F000CDF824800A930B920BEB04020C92214438
:102700004AF000520D9312A80E920F9103A9109354
:102710001192FFF7B0FE06A912A8FFF7ACFE0CA9B4
:1027200012A8FFF7A8FE0FA912A8FFF7AEFE09A98D
:1027300012A8FFF7AAFE396812A8C908FFF7AFFE72
:10274000514612A8FFF7ABFEFFF7F6FEC8B912A874
:10275000FFF7AEFE4FF098435A6CD202FCD55B6D8A
:10276000544403F470230193FFF7EEFE019B5BBB1F
:10277000269B0BEB040A1C44009B9A4506D14C4651
:1027800091E74FF0FF301BB0BDE8F08F8DB94246A6
:1027900001213846249BFFF7FFFE0028F3D108F102
:1027A000100212F8013D0133DBB213700BB99045F2
:1027B000F7D1249A1AF8013B525D0135534004F8D1
:1027C000013B05F00F05D7E71846DCE76FF01F0067
:1027D000D9E73046D7E700BF03030004100000200C
:1027E0000139024410B5904201D1002005E0037880
:1027F00011F8014FA34201D0181B10BD0130F2E7C0
:102800000A44431E914200D1704710B511F8014BA4
:10281000914203F8014FF9D110BD0244034693429F
:1028200000D1704703F8011BF9E70000F8B500BFBD
:10283000F8BC08BC9E467047F8B500BFF8BC08BCA1
:102840009E467047B814B6F1E0CFF3ADB7DD25C9A9
:10285000FA79B7130000000007B0CD5E0200000057
:1028600001000102DC2900000060000800A004084B
:10287000F00401003106000835060008A90300082D
:1028800019080008490800085029000883080008B2
:10289000F9080008000000003906000829060008B1
:1028A00013B779FAC925DDB7ADF3CFE0F1B614B8A7
:1028B0000102000001000000D829000840000000CB
:1028C0000100010200000000000000000000000004
:1028D00000000000000000000000000000000000F8
:1028E00000000000000000000000000000000000E8
:1028F0006A09E667BB67AE853C6EF372A54FF53A91
:10290000510E527F9B05688C1F83D9AB5BE0CD19BC
:102910008000000000000000000000000000000037
:1029200000000000000000000000000000000000A7
:102930000000000000000000000000000000000097
:102940000000000000000000000000000000000087
:1029500000010000591F00081D1D0008551D00083A
:10296000F91E0008351F0008311B00081D1A000859
:10297000091C00089D1F00080D1E0008691E0008A4
:102980001121000821210008412100088F210008A1
:102990008B2100081002030028000000280000001E
:1029A00000200000000008000000000004000000FB
:1029B0000000004001000000010000000040040889
:1029C00000000300D02900080810002002000000C9
:1029D000950100087101000887124EB2C7D5C92DB4
:1029E0001AA337BEFEF2DA4204717185A307978DF0
:1029F000CA7B11CD49F49A8D959837ACBE723902D5
:102A000027872EA8F1E06856BE9D59459514DF75BD
:082A1000B52E7D282FE4633090
:00000001FF
