:020000040800F2
:1060000000100020256C0008216C000821C5000844
:10601000E5A00008216C0008216C0008216C000834
:10602000216C0008216C0008216C0008E164010863
:10603000216C0008283F030871640108934301089C
:10604000216C0008216C0008216C0008216C0008FC
:10605000216C0008216C0008216C0008216C0008EC
:10606000216C0008216C0008216C00088D6A000872
:10607000996A0008216C0008216C0008216C000856
:10608000216C0008216C000839AF0008D9C600084F
:10609000216C0008216C0008216C0008216C0008AC
:1060A000216C0008216C00086D7000084970000820
:1060B000216C0008216C000841EF010821F901085A
:1060C000D9F80108D5F8010809F101081DF90108FE
:1060D000DDF80108F5F80108E1F8010881F9010887
:1060E00061F90108216C0008216C0008216C00088E
:1060F000216C0008C5960008216C0008216C00087E
:10610000216C0008216C0008216C0008216C00083B
:10611000216C0008216C00086D0F0208216C00083A
:10612000216C0008216C0008216C0008216C00081B
:10613000216C0008216C0008216C0008216C00080B
:10614000216C0008216C0008216C0008BD150108B5
:10615000216C0008216C0008216C000821DC01087A
:10616000216C0008216C000859C001085FC00108BB
:1061700010B5054C237833B9044B13B1044800E043
:1061800000BF0123237010BD78150020000000001F
:106190009CB4030808B5034B1BB10349034800E056
:1061A00000BF08BD000000007C1500209CB403085F
:1061B000A3F5803A704700BF174B002B08BF134B65
:1061C0009D46FFF7F5FF00218B460F461348144A02
:1061D000121A00F063F80E4B002B00D098470D4BBD
:1061E000002B00D098470020002104000D000D482E
:1061F000002802D00C4800E000BF00F02BF820007F
:10620000290000F06EFB00F011F800BF000008004C
:1062100000000000000000000010002078150020A1
:106220002CC30020000000000000000008B5074B50
:10623000044613B1002100E000BF054B1868836AD3
:1062400003B1984720462DF0CFFD00BF00000000AD
:10625000383E030870B50D4D00260D4C641BA4108C
:10626000A64209D10B4D00260B4C2DF0C9FD641B35
:10627000A410A64205D170BD55F8043B01369847DD
:10628000EEE755F8043B01369847F2E77015002019
:10629000701500207015002074150020024403467C
:1062A000934200D1704703F8011BF9E710B50B4B7F
:1062B000B6B01B685C680022694620460EF07EFD81
:1062C000012801D036B010BD9DF80030802BF2D1EE
:1062D00006F01AFC694604F07DFFECE7B8150020D3
:1062E00037B504460121254802F08AFE0FF0C4FBB1
:1062F000234D244B28601C6004F0A4FE214600249A
:106300000023214A286806F091FB01211F4B204AF7
:10631000009405200EF0F4FB1E4B01462A6818601D
:1063200003231D481AF022FC1B4806F0FFF906F073
:1063300027FA712006F000FA012005F01FFF204621
:1063400005F01CFF012006F0FDF8204605F0F8FEE0
:1063500022462146204609F067F8234604210F4AC9
:106360000F481AF0EDFA0E4C00224FF0FF31204694
:106370001AF0F5FA0130F7D103B030BD0040004B00
:10638000A8150020B8150020683E0308CC15002091
:10639000A2150020C8150020BC150020883E030867
:1063A000AC15002000B5C3788BB0012B0ED144236F
:1063B000002108488DF8043002F022FE064B4FF40D
:1063C000FA721B6801A998681AF0D4FB0BB05DF84B
:1063D00004FB00BF0040004BB815002037B500217A
:1063E0000025084604F000FE06F046F8092006F0F5
:1063F000A7F80F4B1D7004F015FF044604F018FFBA
:10640000019004F01BFF00900A4809F09BF9DDE9B8
:10641000002120464AF6CD331AF06AFF02220121FC
:10642000054B06481AF03EFA284603B030BD00BFBF
:106430008C100020583E0308683E0308E162000803
:10644000002307B58DF804300123044901A88DF815
:10645000053007F095FD03B05DF804FBA563000867
:106460000120704710B50C4630B904F0DBFE2070F7
:1064700004F0DEFE607010BD00230B704B70FAE775
:10648000014B1878704700BF1C160020014B18788C
:10649000704700BF1C160020002070470020704786
:1064A000014B1878704700BF1C160020014B18786C
:1064B000704700BF1C16002000207047054B18785D
:1064C00010B9012105F0F4BDFF2802D100210846D2
:1064D000F8E770471C16002007B506480123002185
:1064E00001AA006811F02CFE9DF8040003B05DF8CD
:1064F00004FB00BF201600200246034801230021B0
:10650000006811F0D3BD00BF2016002008B5054B70
:106510001870054B18701846FFF7EEFFFFF7CEFF17
:10652000012008BD1C1600209415002013B50C4C4A
:106530000120216807F0B8F9002211461046FFF744
:10654000E5FF08F02BFF04F067FE042301904FF4F1
:10655000A22120680DEB030211F0A8FD02B010BDCE
:106560002016002010B5254BA2B01B68DC68002265
:10657000204601A90EF022FC012801D022B010BD56
:106580009DF80430C32B0FD0C42B34D0C02BEED1D8
:106590009DF80C30002BEAD0029B002BE7D09DF831
:1065A0000D0004A99847E2E79DF808308BB906F082
:1065B000BDFA38B9FFF7BAFF322006F0BDF805F092
:1065C000F9FBD4E706F098FA05F044FB0028F1D176
:1065D000F2E7052B03D1742006F0AEF8C7E7062BCF
:1065E00001D17520F8E7072B01D13220F4E7082B01
:1065F000BDD13020F0E77320EEE700BFB8150020D2
:1066000008B5044B186811F0C9FEBDE80840FFF753
:106610008DBF00BF20160020042337B50F4D4FF467
:10662000A22128680DEB030211F08AFD044670B91F
:1066300004F0F2FDFFF750FF094B29681870094B71
:106640001870204607F030F9012003B030BD08F083
:10665000A5FEFFF7D5FF0020F7E700BF20160020BA
:10666000941500201C16002010B5084C2378FF3B21
:1066700018BF4FF0FF332370FFF720FF2378044843
:106680000370BDE81040FFF737BF00BF1C160020A5
:1066900094150020002840F2024018BF00207047E7
:1066A00082B06B4683E8030093E8030002B007F072
:1066B0007DBB70470368044A136043685360836876
:1066C00010469360704700BF9615002070B50446D1
:1066D000012005F043FD0430A0425D4D01D0302C77
:1066E00006D1032372202B7006F026F8FFF7A8FED0
:1066F0002B78032B00F2AA80DFE803F0022464A0C9
:10670000732C0AD1FFF77CFF00210122084607F015
:106710008FFF012372202B7010E0712CF4D14D48B3
:1067200004F006FEFFF778FF06F020FC00214A483F
:1067300005F0BAFA042004F0D5FD7020BDE87040E1
:1067400005F0FABF722C34D1002005F0F9FCFFF7F8
:10675000B5FE012005F002FD0230844201D0312C4B
:106760000CD13E4B1B689B691B784BB3032004F094
:10677000B9FD022372202B7005F0DEFF002005F02A
:10678000EDFC0230844209D1FFF76EFF3448FFF779
:1067900091FF01220146334806F04EF8002005F033
:1067A000DDFC0330844251D1BDE87040002004F08C
:1067B000AABD732CCDD1FFF723FFFFF72DFFC8E74C
:1067C0000120D4E7722C32D1022005F0B9FC01205F
:1067D00005F0C4FC0230844201D0332C14D10126D0
:1067E000002004F07FFD002005F0AAFC042004F046
:1067F00079FD72202E7005F09FFF08F085FA324671
:1068000019491A4806F018F8322C1FD10124042027
:1068100004F068FD72202C7005F08EFF08F074FA09
:106820002246BDE870401049104806F005B8732CA8
:10683000CDD1FFF7E5FEFFF7EFFEC8E7732C05D1DA
:10684000FFF7DEFEBDE8704005F058BE70BD00BF2A
:106850008C1000202016002090100020B815002079
:1068600024160020ADDD00086010002061EC000857
:1068700013B5084C002220680DF107010EF09EFAB6
:10688000012801D002B010BD9DF80700FFF71EFFE0
:10689000F0E700BFC8150020FFF70CBF01207047CC
:1068A0000023038002230B807047000010B50124F1
:1068B00004700C700821117008498A6CC96CDA7177
:1068C000080E1870080C5870D970080A110E19714A
:1068D000110C5971110A9870997110BD0080E00F68
:1068E000704708B504F044FBFFF7FAFF04F04DFBD6
:1068F000002008BD00F0DDB808B50321802001F0BC
:10690000FBFA03214FF4806001F0F6FA0A214FF4FC
:10691000C06001F0F1FA0A214FF4F06001F0ECFAE6
:106920000A213E2001F0E8FA0A212D2001F0E4FAC4
:106930000A21512001F0E0FA002008BD4FF4803018
:106940002649274A4B6E10B55066486E4FF00041FD
:106950004AF6CD345166234903F480334A6C0C6403
:1069600002F001024C6BE407FCD401241E494C6088
:106970001C4C216BC907FCD51C49D1F808168907A6
:106980005EBF4FF480241849CC6512B1154A1849EE
:1069900011640028A2BF4FF00041164A51661BB98E
:1069A0004FF48032134B5A6602F086FC00F095F8E3
:1069B00002F01CFC02F09EFC02F042FCFFF79CFF80
:1069C00002F02CFC00F07EF800F062FB0DF0EEFC13
:1069D00019F050FFBDE8104003F01ABC00800040E1
:1069E00000900040004009400060094000C007409E
:1069F0003254FFFF00A000400DF002BD00F0FABAD3
:106A000008B500F054F804F029F802F075FC0BF01A
:106A1000CBFF03F0BDFABDE8084000F035B808B57B
:106A200002F0D8FBBDE8084019F030BF7047000005
:106A300070B5124E9AB0354607AC0FCD0FC495E82D
:106A40000F0006F1200584E80F000FCD0FAC0FC436
:106A50000FCD0FC495E8070006F14C0384E807004A
:106A60000FCB03AC84E80F00054B2146009307AA27
:106A70000FAB044802F0CEFE1AB070BD983E03087A
:106A800030160020A8170020FFF7D2BF014B18686E
:106A900002F0D2BFA8170020FFF7F8BF08B5012306
:106AA00004221846002102F03BF9002008BDFFF740
:106AB000F5BF08B5002304221946012002F030F981
:106AC000002008BD08B501213A2000F021FEFFF7A3
:106AD00011FFBDE8084000F005B801213A2000F0A0
:106AE00017BE00002DE9F041484C8EB0264601AD9E
:106AF0000FCE0FC5336814342B6006AD0FCC0FC515
:106B000094E80F0085E80F0001213A2000F000FE14
:106B10000121572000F0FCFD4FF480733C4EADF88E
:106B20001C303C4B3046039301A906AB059301F0A2
:106B3000E1FE012304221946022002F0F1F80221AD
:106B400000230846012202F0EBF80123042203216E
:106B5000022002F0E5F8042201231146022002F08F
:106B6000DFF82D4C2D4B1025C4F8F8344FF00213EC
:106B7000C4F8F434A3F58033C4F8FC341C2304F5C2
:106B80000058C4F8E4344FF4487004F001FA04F5F6
:106B900080571420C8F8A05004F0FAF92320C7F851
:106BA000A05004F0F5F9B9213046C8F8A05001F022
:106BB0001FFE002301211A460220C7F8A05002F050
:106BC000AFF8002302211A46084602F0A9F8012373
:106BD00000220321022002F0A3F801230022042155
:106BE000022002F09DF8304601F0CAFD0021572036
:106BF000C4F8F814C4F8F414C4F8FC14C4F8E41489
:106C000000F086FD0EB0BDE8F08100BFF43E030841
:106C100000000A40E070720000C003400200030060
:106C2000FEE7000008B500F013F8064B064A0749D6
:106C30008B4201D3FFF7C0FA52F8040B43F8040B60
:106C4000F6E700BF001000202CB6030878150020DE
:106C5000044B054A9A60D3F8882042F47002C3F8C6
:106C60008820704700ED00E000600008014B1868C4
:106C7000704700BFAC100020084B1B6F03F00703E8
:106C8000022B04D0032B05D0012B05D0FEE7044BCB
:106C900018687047034BFBE70348704700800040CB
:106CA000AC100020B0100020002D310108B5FFF716
:106CB000E3FF054B1B6FC3F303330133B0FBF3F06A
:106CC000024B186008BD00BF00800040A8100020E3
:106CD0000048704700B4C404014B1868704700BFF7
:106CE000B0100020054B1860054B1B6F03F0070325
:106CF000032B01D1FFF7DABF704700BFB0100020AF
:106D0000008000400020704700487047002D31018E
:106D10004FF094439868C0F304400C2822D8DFE871
:106D200000F0092121212121071719211B1D1F0016
:106D30000F4870479B6803F04073B3F1807F13D016
:106D4000B3F1007F12D00B4A002B08BF10467047EA
:106D50000948704709487047094870470948704713
:106D60000948704700207047084870470848704736
:106D7000405DC60000093D000024F400C0EA210186
:106D800080BA8C010048E801005A620280841E002B
:106D900040420F004FF4004070474FF47A70704744
:106DA000014B1868704700BFB41000204FF000631B
:106DB0009B6A03F17842B2F5C04F03D21968064AC4
:106DC000914203D000230370836070470122027058
:106DD0009A689B694260F7E707B0CD5E70B54FF0E7
:106DE0000064A36A03F17843B3F5C04F0DD201F0FC
:106DF000DCFA0122074B1D781A7001F0DCFA3DB96C
:106E0000A36ABDE87040DB6918474FF4817070BD1C
:106E10000020FCE7D01700204FF00053074A1A600B
:106E2000BFF34F8F0649074BCA6802F4E062134371
:106E3000CB60BFF34F8F00BFFDE700BF02020FF032
:106E400000ED00E00400FA054FF000639B6A03F1D7
:106E50007842B2F5C04F07D21B6B03F17842B2F50E
:106E6000C04F01D29B6818474FF4817070474FF0B4
:106E700000639B6A03F17842B2F5C04F07D21B6BE7
:106E800003F17842B2F5C04F01D25B6918474FF465
:106E9000817070474FF000639B6A10B403F178442F
:106EA000B4F5C04F05D21B6B1BB15B6A5DF8044B98
:106EB00018474FF401705DF8044B70474FF00063C2
:106EC0009B6A03F17842B2F5C04F07D21B6B03F106
:106ED0007842B2F5C04F01D29B6A18474FF4017057
:106EE00070474FF0006370B59B6A0D4603F178431D
:106EF000B3F5C04FADF50C7D17D24FF40B7201A95D
:106F0000FFF7C8FF044660B940F20126294601A8F0
:106F1000FFF7D4FFB042F9D040F20323984218BFE4
:106F2000044620460DF50C7D70BD4FF40174F8E762
:106F30004FF000639B6A10B403F17844B4F5C04F7E
:106F400009D21B6B03F17844B4F5C04F03D29B6B9D
:106F50005DF8044B184740F201105DF8044B704790
:106F60004FF000639B6A03F17842B2F5C04F07D23D
:106F70001B6B03F17842B2F5C04F01D2DB6B1847AF
:106F800040F20110704700230360704703680B60F4
:106F900001607047036803B970478B4202D10B68E8
:106FA000036070471846F5E710B514460EF056FD1D
:106FB0002060002010BD000070B5044601250C4E75
:106FC00004B970BD94FAA4F3B3FA83F305FA03F29B
:106FD00006EB031124EA02044A68002AF0D0D8B272
:106FE0000B7B13B189689047EAE79047E8E700BF59
:106FF000D417002008B51A2001F0E0F928B14FF0AD
:107000008062074BC3F880211A601B2001F0D6F97B
:1070100028B14FF00062024BC3F880211A6008BD0E
:1070200000E100E038B505460C4601F0BEF900224B
:10703000044B03EB05135C601A73BDE8384001F0A4
:10704000BAB900BFD4170020074BD3F82404D3F8F3
:10705000202403F50053104000F0553020F050205C
:10706000C3F82004FFF7A8BF00C00340074BD3F8C4
:107070002404D3F8202403F50053104000F0AA3074
:1070800020F0A020C3F82004FFF796BF00C0034003
:10709000024B1968024B186810F038BFBC10002072
:1070A000B81000207047000037B5920004460D4626
:1070B00001922CF0B9FE431C0BD060B92946204642
:1070C000019A2CF00FFE0028044808BF002003B0EE
:1070D00030BD0348FBE70348F9E700BF10E000F0CC
:1070E00021E000F024E000F013B5044601A801F00F
:1070F00061FF9DF80630012223804FF48073002049
:107100006380054B9B680A3303F01F0302FA03F305
:10711000636002B010BD00BF0080E00F01F0F0BE60
:1071200008B501F0DDFE002008BD10B5044644EAB4
:10713000010313F00303084609D1934201D1002053
:1071400010BD54F8231040F823100133F5E7214611
:1071500092002CF0D7FDF2E710B504462CF05CFE4F
:10716000431C15D0B0B90C4B20469B680A3303F082
:107170001F020123934023F003032344984201D1CB
:10718000002010BD50F8042B0132F7D00348F8E777
:107190000348F6E70348F4E70080E00F0EE000F054
:1071A00021E000F024E000F008B501F0F7F8014B11
:1071B000186008BD481D0020014B186801F0F2B8A6
:1071C000481D00200A460139014402F03BBF00007F
:1071D000034B5A6812B19A6A002AFAD1704700BF6D
:1071E00000400640426810B5B2FA82F2144CC2F177
:1071F0001F0163680BB1FFF7EBFF0122114B5A60CF
:10720000636813F00203FBD1027A002A14BF022440
:107210000024427842EA0112094922438A60427AF4
:107220000124002A18BF0223827A13434B62064BC3
:107230005C60037813B1FFF7CBFFCC6010BD00BFDB
:10724000004006400060064000500640044B9A6A29
:10725000D006FCD419639A6AD206FCD4704700BFEA
:1072600000400640014B186B704700BF00400640CD
:1072700008B5FFF7ADFF02230449CB6000230B6282
:10728000FFF7A6FF0123CB6008BD00BF004006400A
:107290004FF04023D3F88420D206FBD4D3F88400E7
:1072A000C0F381107047000038B5174B0546D3F87E
:1072B00020310C4603F00703013B052B20D8DFE803
:1072C00003F0030B130F171BFFF7D0FC052305B1C9
:1072D000286004B1237038BDFFF7FEFC0323F6E7F6
:1072E000FFF716FD0723F2E7FFF70EFD0223EEE797
:1072F000FFF7BCFC0623EAE7FFF7EEFC0423E6E712
:1073000000231846E3E700BF0080004038B5124B69
:107310000546D3F828310C4603F00703013B032B45
:1073200017D8DFE803F0020E120AFFF79FFC0523CF
:1073300005B1286004B1237038BDFFF7E9FC0723CD
:10734000F6E7FFF7C9FC0323F2E7FFF7DDFC0223B2
:10735000EEE700231846EBE70080004073B50D46CA
:107360000021124A0191D2F88041064604F003043C
:10737000022C13D0032C0CD0012C14D101A8FFF740
:1073800093FF0F230EB1019A326005B12B7002B04A
:1073900070BDFFF7BDFC07230190F3E7FFF7B4FCD6
:1073A00023460190EEE70B46ECE700BF008000406B
:1073B000002337B50193154B0546D3F820320C4610
:1073C00003F00703013B032B1ED8DFE803F0020E96
:1073D0001318002101A8FFF799FF11230DB1019A9D
:1073E0002A6004B1237003B030BDFFF791FC07237E
:1073F0000190F3E7FFF7CEFC0A230190EEE7FFF7D9
:10740000CFFC09230190E9E70023E7E70080004073
:1074100038B5104B0546D3F840310C4603F0030352
:10742000022B0BD0032B0DD0012B0FD1FFF7B2FC99
:107430000A2305B1286004B1237038BDFFF7B0FC02
:107440000923F6E7FFF7A9FC0B23F2E70023184610
:10745000EFE700BF00800040002337B50193164BD3
:107460000546D3F860320C4603F00703013B032BBB
:107470001FD8DFE803F0020E1914002101A8FFF75E
:1074800013FF0F230DB1019A2A6004B1237003B0DA
:1074900030BD002101A8FFF7BBFF1023F2E7FFF783
:1074A00037FC07230190EDE7FFF72EFC0223019044
:1074B000E8E70023E6E700BF0080004038B5134B43
:1074C0000546D3F800320C4603F00703013B032BBB
:1074D00018D8DFE803F0020A0E12FFF75BFC0A235C
:1074E00005B1286004B1237038BDFFF759FC0923AA
:1074F000F6E7FFF752FC0B23F2E7FFF7D7FB0E236B
:10750000800AEDE700231846EAE700BF008000404C
:1075100038B5134B0546D3F808320C4603F0070381
:10752000013B032B18D8DFE803F0020A0E12FFF725
:1075300031FC0A2305B1286004B1237038BDFFF780
:107540002FFC0923F6E7FFF728FC0B23F2E7FFF7F0
:10755000ADFB0E23800AEDE700231846EAE700BFE3
:107560000080004038B5104B0546D3F840320C4639
:1075700003F00303022B0BD0032B0DD0012B0FD1F3
:10758000FFF708FC0A2305B1286004B1237038BD59
:10759000FFF706FC0923F6E7FFF7FFFB0B23F2E7F3
:1075A00000231846EFE700BF0080004038B5104BBD
:1075B0000546D3F850320C4603F00303022B12D0D9
:1075C000032B08D0012B0AD00023184605B12860F0
:1075D00004B1237038BDFFF7E0FB0B23F6E7FFF79C
:1075E000D9FB0A23F2E7FFF7DBFB0923EEE700BF35
:1075F0000080004038B5104B0546D3F860310C468A
:1076000003F00303022B0BD0032B0DD0012B0FD162
:10761000FFF7C0FB0A2305B1286004B1237038BD11
:10762000FFF7BEFB0923F6E7FFF7B7FB0B23F2E7F3
:1076300000231846EFE700BF0080004070B5054604
:1076400014460E4600F0AAFE296881EA040202EA06
:1076500006044C402C60BDE8704000F0A3BE000062
:10766000B0F5207F1FD009D8B0F5007F15D003D822
:1076700068B1B0F5C07F0AD000200CE0B0F5607FA3
:10768000FAD10B4BD3F88000C0F3011003E0084B94
:10769000186FC0F3033001307047054BD3F89000EA
:1076A000C0F30460F7E7024B186FC0F38020F2E7E5
:1076B000008000404FF4803238B50E4B05469A6684
:1076C0000020FFF7CDFF0C4B6843DC690B4D1440E5
:1076D00041F67132DA635A68A84222F4401203D9A3
:1076E000012918BF42F480125A600CB10022DA63FB
:1076F00038BD00BF0090004000000340005A620205
:1077000008B5FFF7E5FABDE808400021FFF7D2BF52
:10771000430905D0012B0DD0022B094B18BF0023C4
:1077200000F01F0041B103F58053012202FA00F07E
:1077300018607047034BF3E703F50053F5E700BF0C
:1077400068800040648000401FB504460020B4F506
:10775000807F029000F0F5806BD8002C00F0D5807F
:10776000203CA3B2602B74D8602C72D8DFE814F0F0
:10777000CD00D000CD00D000DF00DF00DF00DF0053
:10778000DF00D000E4007A00FB009A007A00D0000D
:10779000D000D000710071007100710071007100A3
:1077A0007100FB00D000D000D00023010001D00008
:1077B0007100710071007100710071007100710041
:1077C00071007100710071000501DF00CD00CD0076
:1077D000CD00AD007A007A00B5000A018F00C40028
:1077E000C4007100710071007100710071007100BE
:1077F0007100710071007100710071007100710001
:1078000071007100710071007100710071007100F0
:1078100071007100710071007100710071007100E0
:1078200071007100710071007100710071007100D0
:10783000C900B4F5E06F00F09B8038D8B4F5607FE4
:1078400070D01AD8B4F5007F6CD005D8B4F5C07FDD
:107850005BD0029804B010BDB4F5207F58D0B4F5C9
:10786000407FF6D1FFF722FA02464FF42070FFF76F
:10787000F7FEB2FBF0F0400845E0B4F5B06F5BD026
:107880000AD8B4F5806F52D0B4F5A06FE1D10021D1
:1078900002A8FFF78DFDDCE7B4F5C06F63D0B4F547
:1078A000D06FD6D1002102A8FFF708FED1E7B4F5CA
:1078B000286F67D016D8B4F5186F5ED00AD8B4F523
:1078C000F06F78D0B4F5106FC3D1002102A8FFF794
:1078D0001FFEBEE7B4F5206FBBD1002102A8FFF761
:1078E000BBFDB6E7B4F5306F56D0B2D3B4F5386F00
:1078F00039D0B4F5406FACD1002102A8FFF706FDE6
:10790000A7E7FFF7B9F90290A3E7FFF7CFF9FAE786
:10791000FFF7CCF902464FF42070FFF7A1FEB2FB4F
:10792000F0F0F0E7FFF7A8F902462046F5E700215E
:1079300002A8FFF7B9FC8CE7002102A8FFF70EFDB3
:1079400087E74FF0E02303901B695B0705D5FFF73E
:10795000ADF90390039B02937BE70DF1070103A8A8
:10796000FFF756FDF6E7002102A8FFF751FD70E78B
:10797000002102A8FFF7F6FD6BE7002102A8FFF740
:1079800015FE66E700210E4B0391D3F8703203F029
:107990000303012BDED1E2E7094BD3F8903203F069
:1079A0000303012B04D0022BADD1FFF7B1F9AAE7F5
:1079B000FFF7AAF9A7E7002102A8FFF71BFE48E797
:1079C0000080004008B58020FFF7BEFE034B9842C0
:1079D0009EBF4FF48032024B1A6708BD005A620204
:1079E00000A00040002307B5B0F5807F8DF802307D
:1079F00000F0D48079D858286AD8382808D8243894
:107A000083B2092B4AD99DF8020003B05DF804FB4C
:107A100039381F28F7D801A353F820F0C57B000898
:107A2000077A0008077A0008077A0008D17B000867
:107A30001B7C0008077A0008077A0008077A00080C
:107A4000077A0008077A0008077A0008077A000812
:107A5000077A0008077A0008077A0008077A000802
:107A6000077A0008077A0008277C0008117B0008C5
:107A7000077A0008077A0008077A0008597B00088F
:107A8000077A0008077A0008337C00083F7C00086A
:107A90000F7C00087D7B00087D7B00080928B2D898
:107AA00001A353F820F000BF117B0008117B0008F0
:107AB000117B0008117B0008117B0008077A000881
:107AC000917B0008077A0008C57B0008317B00081D
:107AD000802898D16C4B1B6F03F00703013B032BED
:107AE00091D8DFE803F0CE518890B0F5086F75D0DB
:107AF00024D8B0F5C06F65D010D8B0F5A06F00F0F5
:107B00008680B0F5B06F43D0B0F5806F7FF47BAF67
:107B100000200DF10201FFF7C7FB74E7B0F5E06F3D
:107B20007BD0B0F5F06F53D0B0F5D06F7FF46BAF72
:107B300000200DF10201FFF7C1FC64E7B0F5286FEA
:107B40007DD00FD8B0F5186F6DD0B0F5206F70D024
:107B5000B0F5106F7FF457AF00200DF10201FFF771
:107B6000D7FC50E7B0F5306F7CD0FFF44CAFB0F5E8
:107B7000386F27D0B0F5406F7FF445AF00200DF18E
:107B80000201FFF7C3FB3EE705238DF802303AE719
:107B900000200DF10201FFF7E1FB34E701934FF004
:107BA000E0231B695B0707D5FFF780F80C238DF8EE
:107BB00003309DF80330E8E70DF1030101A8FFF75A
:107BC00027FCF6E700200DF10201FFF721FC1AE780
:107BD00000200DF10201FFF70DFD14E72A4BD3F849
:107BE000003103F00303022B07D0032B09D0012B34
:107BF0000BD1FFF771F80323C7E7FFF7D1F809238B
:107C0000C3E7FFF77FF80823BFE70123BDE70020A4
:107C10000DF10201FFF7CCFBF5E600200DF10201AA
:107C2000FFF7A0FCEFE600200DF10201FFF7BEFC1C
:107C3000E9E600200DF10201FFF70EFCE3E600216A
:107C4000114B0191D3F8703203F00303012B04D0E0
:107C5000022B14BF0B46142397E701A8FFF7D8FBAC
:107C6000102392E7084AD2F8902202F00302012A78
:107C700005D0022A89D1FFF74BF8072385E7FFF7E4
:107C800043F8022381E700BF0080004070B504463E
:107C90008020FFF7A7FE032800F083804FF48012B6
:107CA0004F4B504E5A6645F60E034FF0A062C6F891
:107CB00080304D4B9A624FF4803203F580539A62C4
:107CC000B56D15F48035FBD1637822781B0543EA46
:107CD0000263A2794FF440611343E278434843EAD8
:107CE0000243227943EA0233627943EA8213336121
:107CF000B369E27A03F000431343E27943EA826313
:107D0000227A43EA0263627A43EA0243A27A43EAAE
:107D10000223B3614FF40062FFF790FC617B336A8A
:107D2000002918BF0825227B23F00F0343EA010333
:107D300043EA82032B4A45EA030515622C4D31D1F3
:107D4000A37C916AA07BDB000D4043EA4013E17BFA
:107D50002B4343EA011343F480339362254B916D27
:107D600033EA0101FBD14FF080711F488162136932
:107D7000A57823F4700343EA055313614FF00043E1
:107D80008361237C0BB91C4B9962637C1BB94FF454
:107D90008032194B9A62E37C1BB1124B174AC3F82D
:107DA000802070BD022909D100234FF47F41136167
:107DB000134893614FF40852FFF740FC0949237CB4
:107DC0008A6AA07B1B062A4043EA40131343A27C25
:107DD00043EAC203627C43EA02438B62DBE700BFF3
:107DE000009000400040004A0050004A3840004ADD
:107DF000C7FFFEFE030001000060004AF1A7FFFF7D
:107E00003440004A014B93F900007047DC10002019
:107E10000029CCBF01210021FFF74CBCB0F5207F29
:107E200010B50C4642D008D8B0F5007F33D003D847
:107E300088B1B0F5C07F0ED010BDB0F5607FFBD12A
:107E40001F4B013CD3F8801021F0300141EA0414AB
:107E5000C3F88040F0E7FFF753FC00F035F84FF42B
:107E60008031184A164B1167196F013C21F470419B
:107E700041EA04341C67FEF719FF0446FFF708FACD
:107E8000C0F102012046FFF7C3FF00F023F8BDE870
:107E90001040FFF797BD0A4B013CD3F8901021F03A
:107EA000F85141EA0464C3F89040C5E7044B013C33
:107EB000196F21F4806141EA84241C67BCE700BF8C
:107EC000008000400090004002214FF42070FFF736
:107ED000A5BF000008B54FF4C070FFF735FCBDE842
:107EE0000840044988428CBF022101214FF42070D0
:107EF000FFF794BF80F0FA02B0F5807FF8B50C462A
:107F000000F0538174D8582866D8382804D824380B
:107F100083B2092B46D9F8BD39381F28FBD801A3F5
:107F200053F820F01D820008177F0008177F000813
:107F3000177F00083F820008A5820008177F00080D
:107F4000177F0008177F0008177F0008177F0008B9
:107F5000177F0008177F0008177F0008177F0008A9
:107F6000177F0008177F0008177F0008177F000899
:107F7000C78200081D800008177F0008177F0008CF
:107F8000177F00089B800008177F0008177F0008F4
:107F90002D8300084F83000883820008D9800008E1
:107FA000D98000080928B6D801A353F820F000BFF3
:107FB0001D8000081D8000081D8000081D8000082D
:107FC0001D800008177F000889810008177F0008BE
:107FD0001D8200085780000880289CD18B1E062B2C
:107FE00000F2CF80DFE803F0CAB8CD89CDCDC7005D
:107FF000B0F5086F00F034813ED8B0F5C06F00F0E6
:108000000D811CD8B0F5A06F00F03B81B0F5B06FCA
:1080100000F0BA80B0F5806F7FF47DAF023CE4B22F
:10802000052C8CBF0021B04BB04A98BF195DD2F827
:10803000203123F007030B43C2F820316BE7B0F582
:10804000E06F00F02F81B0F5F06F00F0F880B0F530
:10805000D06F7FF460AF093CE4B2052C8CBF0021E7
:10806000A34BA24A98BF195DD2F8003223F0070350
:108070000B43C2F800324EE7B0F5286F00F067817D
:108080001CD8B0F5186F00F01E81B0F5206F00F01D
:108090004D81B0F5106F7FF43EAF093CE4B2052C82
:1080A0008CBF0021934B914A98BF195DD2F80832DA
:1080B00023F007030B43C2F808322CE7B0F5306F0A
:1080C00000F05681FFF427AFB0F5386F00F0A680BE
:1080D000B0F5406F7FF41FAF023CE4B2052C8CBFBB
:1080E0000021854B814A98BF195DD2F8283123F0D1
:1080F00007030B43C2F828310DE7002502264FF491
:1081000080370121022000F0B5F9FFF7F9FAFFF7F7
:10811000DBFE7A4B754A1F67136F23F00703334367
:108120001367FEF7C3FD0646FFF7B2F8C0F1020180
:108130003046FFF76DFE0121002000F0DBF9FFF76C
:10814000C9FEFFF73FFC002D7FF4E5AE032C7FF462
:10815000E2AE6B4B9F62DEE64FF48012674B032664
:108160005A664FF48032674B9D6A03F58053C5F31E
:1081700000659A62C3E700250426C0E700250126B2
:10818000BDE700252E46BAE7023CE4B20D2C8CBFB9
:1081900000215D4B554A98BF195DD2F8803123F01C
:1081A00003030B43C2F88031B5E60C2920D01BD85D
:1081B000A1F10904022C3FF6AEAE4FF480324B4BD6
:1081C0005249586E03F580535A664B6A43F00103D7
:1081D0004B62C1035CBF4E4B5A664FF0E0221369FD
:1081E00023F00403136196E610297FF494AEE4E7CC
:1081F0004FF480323D4B4549586E03F580535A6623
:108200004B6A23F001034B62C3035CBF404B5A66C9
:108210004FF0E022136943F00403E3E7093CE4B2C2
:10822000022C8CBF00213B4B304A98BF195DD2F81D
:10823000403123F003030B43C2F840316BE6093CA5
:10824000E4B2022C8CBF0021334B284A98BF195D41
:10825000D2F8603123F003030B43C2F860315AE6D1
:10826000CC1EE4B2062C8CBF00212C4B1F4A98BFB9
:10827000195DD2F8003123F003030B43C2F800313B
:1082800049E6073CE4B20A2C8CBF0021244B174A74
:1082900098BF195DD2F8203223F007030B43C2F8D0
:1082A000203238E6093CE4B2022C8CBF00211D4B81
:1082B0000E4A98BF195DD2F8403223F003030B43F6
:1082C000C2F8403227E6093CE4B2022C8CBF002100
:1082D000154B064A98BF195DD2F8503223F00303BC
:1082E0000B43C2F8503216E69A3F03080080004064
:1082F000A33F0308A33F0308BB3F030800900040CF
:108300000060004A0040004A8C3F030800C007405C
:1083100000A00040A03F0308A03F0308A93F0308B6
:10832000B03F0308A03F0308A03F0308023CE4B2AB
:108330000E2C8CBF0021174B174A98BF195DD2F83D
:10834000603223F007030B43C2F86032E3E5102CE0
:108350000CD0142C14BF002102210F4AD2F8703225
:1083600023F003030B43C2F87032D4E50121F4E794
:1083700002290CD0072914BF00210221064AD2F895
:10838000903223F003030B43C2F89032C3E501217E
:10839000F4E700BFC13F030800800040EFF3108006
:1083A00072B6704700B962B67047EFF311803023A0
:1083B00083F31188704780F311887047054B420999
:1083C00053F8223000F01F0023FA00F0C04300F001
:1083D0000100704700E100E0024A536B0342FCD108
:1083E000704700BF004009404FF04022536F417872
:1083F00023F4407343EA0123536770477047704783
:108400000A4A10B51369044643F00403136102F0ED
:10841000A5F9FFF7F3FF30BFFFF7F1FF02F0B2F964
:108420001CB9BDE81040FEF741BC10BD00ED00E0F6
:10843000084A10B51369044643F00403136102F0BF
:108440008DF930BF02F09EF91CB9BDE81040FEF76F
:108450002DBC10BD00ED00E0704770474FF040228A
:10846000D36E017923F030030B43D3667047704716
:1084700070477047F8B504464FF04023D3F8842086
:10848000D106FBD4D3F88430C3F381139C422DD0A2
:10849000FEF7F2FB012C064602D12146FFF7B8FC9D
:1084A000FFF77CFF4FF00072114B07465A662046DB
:1084B000FFF7DFFF4FF480634FF04025621E9340CB
:1084C0002B676B6E9A0103D4D5F884309B060AD5CE
:1084D0003846FFF767FF022C08D13046BDE8F84068
:1084E0000021FFF795BCD5F88430EAE7F8BD00BF5E
:1084F0000060004007B518B90191FEF7BDFB019976
:10850000064B1B7843B1064B984205D8012003B0B7
:108510005DF804EBFFF7AEBF0220F8E7FC1D00207A
:10852000005A62020278034B012100201A70FFF703
:10853000E1BF00BFFC1D00204FF00042144B10B5FE
:108540005A664AF6CD3313494C6C0B6404F00104AF
:1085500078B90120FFF740FF4B68DB0704D50E4BCD
:1085600058600B6BD807FCD514B10A4B0B4A1A6440
:1085700010BD0B6B1A07FCD42022074B9A62012214
:10858000A3F580535A60034A936A9B06FCD5EBE738
:108590000090004000400940006009403254FFFF55
:1085A00070B54FF040244AF6E853E56EE66E0221BE
:1085B0002366802025F0030545F00205FFF79CFCAB
:1085C00046F003060020FFF7B7FFFFF750FFFFF765
:1085D0004FFFE566E666E566E666E566E666E5663D
:1085E000E666E56670BD00004FF0004238B5174BF7
:1085F00001465A664AF6CD334FF04022144C656C62
:10860000236443780B205B0043F00103D363FFF73F
:10861000E3FE63688A7823F4F87343EA0213636025
:10862000CA784B7943EA0223A3600A798B7943EA3B
:10863000022323610878FFF77FFFEB0748BF054B54
:108640004FF0010048BF236438BD00BF00900040D8
:10865000004009403254FFFF4FF00042114B70B50B
:108660005D6E03F580535A664AF6CD3304460E49D3
:1086700080204E6C0B64FFF7AFFE0B6A23F00F03F4
:108680000F2C94BF234343F00F030B62F30744BF47
:10869000064B0B64002DA2BF4FF00042044B5A66FC
:1086A00070BD00BF00800040004009403254FFFF11
:1086B00000A000404FF000420F4B70B55D6E03F517
:1086C00080535A664AF6CD3304460C4980204E6CDE
:1086D0000B64FFF781FE0B6A23F4F85343EA04238B
:1086E0000B62F30744BF064B0B64002DA2BF4FF093
:1086F0000042044B5A6670BD0080004000400940B3
:108700003254FFFF00A00040436D0B42FCD1704784
:1087100008B54368DA0714D58368DB0702D5036917
:10872000D90707D50A2350218363FFF7EDFF836C38
:108730009A07FCD1012200F500535A6043689B0759
:10874000FCD408BD38B50C460121024600F5805323
:10875000596004F00F0540F6FF71FFF7D5FF78214F
:108760008563FFF7D1FF04F00103610748BF43F0C1
:108770000203916C01F003019942FAD138BD000067
:1087800010B5FFF7C5FF042300F5805100F5005236
:108790000B6113610B6113610B6113610B61136159
:1087A000202341F2020103610023C3608360416121
:1087B0004FF4A021836141620449C3610362836273
:1087C000C36243630365D164036310BDFF3F0D03C0
:1087D00009B9FFF79DBFFFF7B5BF836C1B06FCD53A
:1087E000C06BC0B27047836C5B06FCD541647047B8
:1087F000836C5A06FCD54164836C1B06FCD5C06BA8
:1088000080B27047F8B50446154669B9354B9842B1
:1088100034D0354B984233D0344884420CBF582072
:108820000020FEF791FF0146A368D80730D5B1FBC1
:10883000F5F166684D1E16F0010627D02821204666
:10884000FFF762FFA36C9A071CD1A36CDB071BD454
:10885000A36C13F0020F0CBF002706272046FFF77A
:1088600057FF236923F07F4343EA05652561CEB1B5
:1088700039462046BDE8F840FFF7AABF5620D0E7AA
:108880005720CEE70527E9E70927E7E73746E8E776
:108890006368A06800F0E00040281BD003D8D8B17E
:1088A00020281BD0F8BD60281AD08028FAD10123D7
:1088B00005FB03F24901B1FBF2F10D4A20392046D4
:1088C00002EAC1020121FFF71FFF2263BDE8F84061
:1088D000FFF71ABF0623EBE71023E9E70823E7E7D2
:1088E0000423E5E70000014B00000A4000400A4075
:1088F000F8FF7F00436870B504460D460E691BB152
:1089000040F6FF71FFF700FF2046FFF739FF2269AD
:108910006B7BA97B22F087020B43134343F0800358
:10892000236116B32A692369117823F0F8030B43F6
:10893000117F43EAC113117943EA4113517A43EAA3
:108940000113D17B43EA81132361E168D2E9053049
:1089500021F0F04121F4702103430B43117B527B42
:1089600043EA812343EAC233E360A368EA7B23F04E
:108970000303134343F00103A3602EB32A69A168E4
:10898000538803F4C0430B43A3605179A36843EABF
:108990008123A3609379D079616A1B01000203F0FF
:1089A000700300F4E06021F4772121F4EE610343C9
:1089B0000B43117A527F090301F4E04112040B4387
:1089C00002F470221343636263692A7B23F00F036E
:1089D00013436361B6B12B695A89A2615A7B3AB1DC
:1089E000264A944224D19A7B254902F00F024A6616
:1089F000DA7B3AB1214A94422DD11B7C204A03F004
:108A00000F031366D5E901122046FFF7FBFE05218F
:108A10002046FFF797FE0021FFF776FE2B78A36331
:108A2000FFF772FEA36CDB4313F4405FFAD170BD15
:108A3000144A944209D002F580429442D8D19A7BDC
:108A40000F4902F00F02CA67D2E79A7B0C4902F085
:108A50000F020A67CCE70B4A944209D002F5804224
:108A60009442CFD11B7C064A03F00F039367C9E7FA
:108A70001B7C034A03F00F03D366C3E70000014BDE
:108A80000090034000000A40436870B504460D465C
:108A900016461BB140F6FF71FFF736FE2046FFF782
:108AA0006FFEE9896B7B62690B43298A22F44C5281
:108AB0000B4322F00F0213436361A2682B7B297ED4
:108AC00022F0804222F0E2020B4313436A6913430F
:108AD000A360AB681BB9A36843F00043A360EB69D4
:108AE000002B64D0A268197A42EA8152A260A2687F
:108AF000997A42EA4142A2609A88A16802F4C0428F
:108B00000A43A260A268597842EA8102A260A26880
:108B1000597B42EAC102A260A268997B42EA011233
:108B2000A260A268997842EA8122A260DA799979F2
:108B3000520242EA8122E2601A7802F0FD01012924
:108B400008BFE168A2F1020204BF41F00401E16044
:108B5000012A364A4AD8944244D0354A944243D0F6
:108B600034498C420CBF02214FF0FF31324A490197
:108B70000A44022151605A7A04F580518A621AB17E
:108B8000E26842F40062E260DA7A82B1E26829497E
:108B900042F40042E260254A1B7B9442274A03F0DC
:108BA0000F0308BF53668C42136708BFD36736B103
:108BB00096F8203004F5805153B301230B62052150
:108BC0002046FFF7BFFDAA6812B16968FFF71AFED9
:108BD00020462978FFF7FCFDA36CDB4313F4405FCC
:108BE000FAD170BD0021C1E70121BFE794420BD04B
:108BF0000F4A94420AD00F498C420CBF02214FF019
:108C0000FF310F4A4901B3E70021FAE70121F8E7F4
:108C1000E26996F8223096F8210022F00902034317
:108C2000134343F00103CB61C9E700BF0000014BD0
:108C300000000A4000400A40C0D4034000900340B6
:108C4000C0E403400022FFF71FBFFFF7FBBF70B572
:108C5000054614460E46FFF7A1FB296881EA040287
:108C600002EA06044C402C60BDE87040FFF79ABB56
:108C7000072AF7B501F0030614461F464FF003011B
:108C80002CD89500A94000FA05F21C480191FFF785
:108C9000DEFF01991A4806FA05F2FFF7D8FF194BD3
:108CA00019499DF82000002F08BF1946012303FA37
:108CB00004F40C60154B1649002808BF0B461C60D5
:108CC000144B9DF82400C3F820441031A3F6DC3384
:108CD000002808BF0B461C6003B0F0BDA2F10805D8
:108CE000AD00A94000FA05F20B480191FFF7AFFF74
:108CF00001990A4806FA05F2CFE700BF00C4034015
:108D000008C4034010E4034010D4034014D40340CB
:108D100014E4034000E0034004C403400CC40340D7
:108D20002DE9F04105460F461E4690464AB1012303
:108D30003022184C8B4002FB00442EB304F58254C1
:108D4000236030230F216B43072F88BFA7F108044E
:108D5000114895BFBC00A40004330C3308FA04F298
:108D6000A1401844FFF773FFB8F1000F0AD10121A9
:108D70003020084A01FA07F700FB05223EB102F550
:108D800082521760BDE8F08104F50154D8E702F57E
:108D90000152F6E700C0034030C00340114B0140D0
:108DA000D3F8302422EA0002C3F83024D3F8302468
:108DB0001143C3F83014D3F82C240243C3F82C24F5
:108DC0004FF04022D36E03F03003202B1FBFD36E31
:108DD00023F0300343F01003D366034BC3F82004A1
:108DE000704700BF00C0034000E00340036C0B422B
:108DF000FCD1704711B1012902D07047C2617047A0
:108E00000262704710B50C4660210246FFF7EEFF84
:108E100014B10123136110BD0223FBE70A460121AF
:108E200000F5805310B55960137804463BB9436987
:108E3000DB0704D54021FFF7D9FF022303615378F4
:108E40009078002B0CBF00214FF48051D36800B9FB
:108E50001BB141F4007103B16362D3780BB141F4EB
:108E6000807113790BB141F0400153790BB141F09E
:108E70008001D37990791B0143EA8003107A034380
:108E80000B43E360137843B16369DB0705D420210A
:108E90002046FFF7ABFF0123236110BD10B511B1D0
:108EA000012905D010BD0821FFF7A0FFC262F9E734
:108EB0001021FFF79BFF0263F4E7436813B1036CD3
:108EC000002BFAD1704710B50124024600F58051FD
:108ED0004C60FFF7F2FF8C6093689B07FCD410BDD9
:108EE0004FF48032054B9A6641F6713203F51C331C
:108EF000DA63012203F50053DA6070470090004006
:108F000041F671320121064BDA6303F50052D1605C
:108F10000022DA634FF48032A3F518339A66704763
:108F2000000003404FF40032014B1A67704700BF46
:108F3000005000404FF04023D3F89400704743683E
:108F400013B9416070475B685A68012AFBD15960C8
:108F50007047836813B9816070475B685A68012A5B
:108F6000FBD159607047C369032B9FBF00EB83029D
:108F70000133D160C3617047C369042B15D84FF02A
:108F80009842116CC902FCD504339B00136501683B
:108F9000103B116041680C30116050F8041C034410
:108FA00011604FF09842984200D1704750F8041B6E
:108FB0001160F8E74FF48032064B5A6603F5E6235A
:108FC0009B69C3F38512827003F03F021B0B427052
:108FD000037070470090004040F6B732064B5B6864
:108FE0009BB293429FBF4FF47A72B3FBF2F3034AF2
:108FF000D05C88BF002070470080E00FD03F03089E
:109000004369002B0FDB51B9436ADA07FCD4012214
:1090100000F500535A6043689B07FCD47047012356
:1090200000F5805043607047436810B5DA07044686
:109030000AD5FFF7BAF9636ADB075CBF0123E36077
:10904000BDE81040FFF7B7B910BDF8B54368054655
:109050000C464BB16B6A002BFCD1012205F5005385
:109060005A606B689B07FCD46378227A002BA37844
:1090700014BF4FF0200C4FF0000C002BE37814BF0E
:1090800004270027002B237914BF08260026002B75
:10909000637A14BF10200020002B14BF4FF480719E
:1090A0000021E379120742EA0362A37942EA03430B
:1090B00043EA0C033B43334303430B43AB60284673
:1090C0002178FFF79DFF63790BB100232B62F8BD78
:1090D00038B50446064D0FF0B6FC0FCC0FC50FCCCB
:1090E0000FC594E8030085E80300002038BD00BFE9
:1090F000001E002047F6FF739A42F0B563D00429A2
:1091000063D8334BCF0003EBC10013F831108478E0
:10911000012913D10025C3781B1B9D4202D3E018FF
:10912000C0B2F0BD591B4668A3EB510136F911607E
:109130009642D4BF0D4601F1FF33EEE740680028A8
:10914000EFD0B0F90010914204DBB0F90210914267
:10915000B8BF114682883B44FF2A19BFC82228267F
:10916000B0F90620B0F90860A2EB01020CBF01259E
:10917000002592FBF6F25F782A447B1E934228BFBB
:1091800013464FF47A7E00EBC305AE68EA88AC461E
:1091900011FB02621E4622EAE272013302F5FA7204
:1091A0009F42B2FBFEF204D9BCF80CC008359445CE
:1091B000EBD200EBC6008088904228BF1046A04248
:1091C00038BF2046ACE7FF20ABE70020A9E700BF8F
:1091D000001E002008B50448FFF77AFFBDE80840EC
:1091E00001200FF032BC00BFD43F030813B50024A8
:1091F000094B18689A889B7900906846ADF804205E
:109200008DF806308DF80040FFF7EEF90920FFF7E2
:1092100023FA204602B010BD2C4103084FF0402233
:10922000536F13B543F001035367002420236846AE
:1092300000948DF80430FFF711F9204602B010BDFC
:1092400070B586B001AA1546174B03F110061446F7
:1092500018685968083303C4B3422246F7D1186826
:10926000124B2060D3F84C21120314D4D3F8504190
:10927000E4B28DF80E40FEF7C5FD204480F30800EF
:109280008DF80D000A48FDF72DFD2846FEF7FEFC7F
:10929000002006B070BD074B1C884FF6FF739C4240
:1092A00008BF7924E5E700BF334103080080E00FE1
:1092B000C01753020001E00F6FF00402502110B5F7
:1092C0000A480B4C12F0800FD3B21BBF03F00F0300
:1092D000043BA3181B1802F101020CBF83F8001312
:1092E00019764C2AEED1002010BD00BF00ED00E041
:1092F00000E100E000F07AB838B501F0AFFB0446B9
:10930000E0B901F0ABFC4FF4167343430C4803F58E
:10931000742303F23F23B3FBF0F30A4A0A491360B4
:109320000A220D680948013A12F0FF0240F8043B96
:10933000F9D103EBC3022B4413440B60204638BD24
:1093400040420F00641E0020301E0020341E00200A
:1093500070470000012208B5034B1A7001F072FC3F
:10936000024B186008BD00BF2C1E0020601E0020AC
:10937000F8B5144C237823B301F064FC124B134D61
:109380001B68134EC01A012838BF0120114B124F21
:1093900018602B7856F8232046F82300111A3A68F3
:1093A0000E48521A0A213A600932B2FBF1F2013337
:1093B000DBB20260B3FBF1F201FB12332B7000232E
:1093C0002370F8BD2C1E0020601E00205C1E0020B3
:1093D000341E0020281E0020301E0020641E0020A5
:1093E000014B1868704700BF641E002020234FF413
:1093F00080120A4981F82D33094B5A66094B0A4AF3
:1094000003F50050426702674FF4005003F58053A4
:10941000C1F8840148605A67704700BF00E100E06E
:10942000009000400040004A010000A0054B064AA1
:109430001B78916DC90700D513B10028F9D1704789
:10944000012070477C1E00200040004A2DE9F843AF
:109450008E4B1E6F9D6A9C6AF00705F0807504F4C0
:10946000803451D54FF0010989498A4A91F800802A
:10947000894FC2F87090B8F1000F00F0F980002019
:1094800008703978494500F2ED804FF480319162DF
:109490004FF08071A2F5805291629A6DD103FCD495
:1094A0007E49DA6A096822F470620A43DA627C480B
:1094B0007C4A99690068126821F47F01024321F413
:1094C0007F410A439A617848784A196912680068AE
:1094D00021F47F6121F00F0102430A431A617449AC
:1094E0009A69096822F0FF020A439A614FF080737B
:1094F000002D40F0B380674A93624FF48033002C14
:1095000000F0AE806B4A936216F0005200F0828049
:109510000121604F5D4B3A675D4ADFF884C11170ED
:109520005D49DFF88CE10A7801320A70DA6A5B493A
:1095300002F47060086098695A4900F47F4008603E
:10954000996901F47F01CCF80010D3F818C05FFAD4
:109550008CFCCEF800C0D3F810C0DFF850E10CF45A
:109560007C6CCEF800C0D3F810C0DFF83CE10CF002
:109570003F0CCEF800C04FF4803C4FF0807EC7F81F
:1095800028C0DFF830C1CCF828E04FF0004ECCF80E
:1095900028E0D3F858C01CF4803FFAD14FF0004CBB
:1095A00022F4706242F40072B0F5C84FC7F828C0C8
:1095B000DA6202D8B1F5C80F0CD9344A3E49936932
:1095C000096823F47F0323F47F4343EA012343EA3A
:1095D000014393612D4A39491369096823F47F6374
:1095E00023F00F03880843EA910343EA80131361D1
:1095F000936923F0FF030B4393614FF08073002DB9
:109600003DD102F5005293624FF48033002C38D0E4
:10961000284A9362002E1FDA4FF000421D4B1B496F
:109620001A67274A1278BAB14FF480329A624FF023
:109630008072A3F580539A628A6DD203FCD44FF0F6
:1096400000429A614FF0807205B9124B9A624FF452
:109650008033C4B1174A9362BDE8F883154A4BE7DB
:109660000C4A50E7FFF774FE154B83F800904BE768
:10967000FFF77EFE00F0B6FF87F8008044E70D4A52
:10968000C1E7044AC5E7034AE5E700BF0040004AD6
:109690007C1E00200060004A7D1E0020801E0020ED
:1096A000781E0020741E0020701E00206C1E0020FA
:1096B000681E00200050004AE4100020E010002046
:1096C0007E1E0020FFF7C2BE73B5FEF767FE0D4D8C
:1096D0000D4B2E781C68FEF765FE0AF005FF38B1C9
:1096E000FF2E05D00020297801AAFDF75DFC019C22
:1096F0002CB9FEF753FE054B1C68FEF753FE2046BF
:1097000002B070BDE8100020841E0020881E0020DA
:1097100010B50446FEF742FE024B1C60FEF742FE07
:10972000002010BD881E00200422D0F82C3103F543
:1097300080531A657047000038B50446D0F82C21D4
:10974000936C5906FCD50023D4F834111A4694F8CA
:109750003201FFF7E5FA0023D4F83C111A4694F8D9
:109760003801FFF7DDFA94F85031DA0707D5002306
:10977000D4F844111A4694F84001FFF7D1FA94F84E
:1097800050319B0707D50023D4F84C111A4694F8A2
:109790004801FFF7C5FA0021D4F82C01094DFFF765
:1097A00017F80021B4F83001FDF7B2FF284604F5A0
:1097B000AA71FDF7EFFB2B6813B9034800F0EEFD2B
:1097C000002038BD8C1E0020901E002010B50446DD
:1097D000D0F82C01FFF707F8D4F82C21936C5B0626
:1097E000FCD5002010BD0000012910B506D8084B9B
:1097F0001C68A4F5AA7414F5AA7F00D110BDD4F892
:109800002C010521FEF7E4FFD4F85441F1E700BF35
:109810008C1E00202DE9F0418AB01C4606AB06469E
:1098200088461846174600211022109DFCF736FD89
:10983000227903460AB18DF81820FB61637930461E
:10984000002B14BF01230223CDE90333734B42469F
:109850000293734B2946019300230093714B00F050
:1098600071FA0646002840F0AB80E3880121A5F894
:109870003031A3693A20C5F83C31237D85F8383171
:109880002369C5F83431237B85F83231236AC5F862
:109890004431237F85F84031A36AC5F84C3194F8F0
:1098A000243085F848312368C5F82C31FDF730FFA6
:1098B000012304222169207BFFF732FA01230222CF
:1098C000A169207DFFF72CFA3E7085F850610121D7
:1098D000E088FDF71DFF637943BB01213620FDF7CA
:1098E00017FF0A21E088FEF707FB39462068FFF7DB
:1098F000ACF91020A1684C4B01F1260203EB421297
:109900005060227B206903EB411342EA0042C3F816
:10991000DC24A169227D42EA0142C3F8D4242379E0
:10992000032B79D8DFE803F0351A507005214FF486
:109930004060FEF7E1FAE388562B04D111214FF481
:10994000A060FEF7D9FA39462068FFF77BF995F851
:10995000503143F0040385F85031CAE7002795F8E9
:10996000503143F0010385F8503100230222216A6F
:10997000207FFFF7D5F9216A227FA36842EA0142DE
:1099800041F2CC415B0103F1804303F570335A503F
:1099900007BB04232068052100F50052D36400F5BD
:1099A00080521365FEF714FF204B1B681BB920493A
:1099B000204800F0E1FC1D4805F5AA71FDF7E6FA24
:1099C00030460AB0BDE8F08195F8503143F002030B
:1099D00085F8503100230422A16A94F82400FFF78F
:1099E0009FF90220A168104B01F1A60203EB42127D
:1099F00003EB411341F2D041506094F82420A06A57
:109A000042EA00425A50C4E795F85031012743F02A
:109A1000030385F85031A8E72326D1E739970008DA
:109A200029970008CD97000800C003408C1E002035
:109A3000EC100020901E0020D0F82C2110B5136DE2
:109A4000D26C044613405B0710D500F03BFA70B1AE
:109A5000D4F82C01FEF7C1FE0146204600F042FA80
:109A60000422D4F82C3103F50053DA6410BD04222B
:109A7000D4F82C3103F500531A65F7E780F8241069
:109A8000704790F82400704790F82B00704780F8DA
:109A90002E10704790F82E007047000000280DDB54
:109AA0000122430900F01F0002FA00F0044A2033AB
:109AB00042F82300BFF34F8FBFF36F8F704700BF93
:109AC00000E100E0002809DB0122430900F01F004B
:109AD00002FA00F0024A603342F82300704700BFE8
:109AE00000E100E070B5054604680AF079FC022840
:109AF0000AD14FF0FF31D4F8D8000AF039FD4FF009
:109B0000FF31206B0AF034FDFFF7DEFD854202D104
:109B10000020FFF7FDFD94F92800FFF7D3FF94F92B
:109B20002800FFF7BBFF94F92900FFF7CBFF94F95A
:109B30002900FFF7B3FFD4F884000AF06DFE206B14
:109B40000AF070FDD4F8D8000AF06CFD002320461E
:109B5000C5E90033C5E90433AB60E368BDE8704094
:109B60001847F8B504460D4690F82B3081B173B90B
:109B700090F82C60FEF712FC05460121304600F0FB
:109B800077FB2846FEF70EFC012384F82B30F8BD46
:109B9000002BFCD090F82C70FEF700FC06462946FE
:109BA000384600F065FB3046FEF7FCFB84F82B508E
:109BB000EDE790F8243070B505460C468E18E3B9F1
:109BC000A6420AD095F82630002BF9D028462B68FB
:109BD00014F8011B98470028F2D070BD95F8263084
:109BE0005BB123780A2B03D10D2128462B689847B7
:109BF00028462B6814F8011B9847A642EED1ECE7E3
:109C0000F8B505460E4617460AF0EAFB0228044658
:109C10000AD03A4631462846FFF7CBFF0AF0E0FB70
:109C200002280BD00020F8BD4FF0FF31D5F8D80046
:109C30000AF09EFC0028ECD02046F4E7D5F8D800C6
:109C40000AF0C6FCEEE72DE9F342044689461746C2
:109C50001E460AF0C5FB022805460FD14FF0FF3122
:109C6000206B0AF085FC00286AD194F82E302BB1C5
:109C70004FF0FF31D4F884000AF04EFD002509F1C1
:109C8000FF3935603368BB4205D2FEF78EFBA2690F
:109C90009ABBFEF790FB94F827305BB911230122A1
:109CA00020460DF107018DF80730FFF7A9FF0123CA
:109CB00084F82730FEF779FB0546D4F884000AF0D3
:109CC00093FDA369984230D3D4F884000AF08CFD48
:109CD000A36998422ED82846FEF76DFB0AF080FB58
:109CE000022802D1206B0AF073FC3368002B0CBFF2
:109CF0001B20002002B0BDE8F082E16922698A5C85
:109D000009F8012F2169226A0131914208BF2946D1
:109D1000A2692161013AA261FEF74DFBA3682046CA
:109D20009847336801333360ACE7D4F884000AF015
:109D300029FDC2E70021D4F884000AF0EDFCC3E756
:109D40002846D7E72DE9F0431F46536806460C46E0
:109D5000154689B0002B00F098809368002B00F026
:109D600096804FF4967200212046FCF797FA6B68B4
:109D70004FF00008E361AB684FF0500923622B7B82
:109D8000684684F82430AB7B276084F8253040F2A5
:109D900001130127E384109BCDF804806360119BBD
:109DA000A360129BE3602B7884F828306B7884F8EA
:109DB0002930384B34607360374BB360374B3361B5
:109DC000374B7361374BF360374B3362374B7362FA
:109DD000374B84F82E70009304F134030293CDF8CE
:109DE0000C900AF083FB04F1DC03206368460293C5
:109DF0000AF07CFB2F4B04AA4146CDE90438C4F895
:109E0000D80004F18803A868CDE906390AF02EFCD1
:109E1000294BC4F88400B361284B2046F3619DF8B8
:109E2000503084F82B8084F82D309DF84C3084F825
:109E30002A7084F82C30697BFFF793FE95F90100B6
:109E4000FFF740FE95F90130434506DB5A0903F060
:109E50001F039F401A4B43F8227095F90000FFF74B
:109E600031FE95F90030002B08DB0122590903F07F
:109E70001F0302FA03F3124A42F821303046FFF77B
:109E800047FC002009B0BDE8F0832220FAE721203A
:109E9000F8E700BF019C0008479C00087D9A000875
:109EA000839A0008E59A00088F9A0008959A00089E
:109EB0004741030851410308639B0008899A000841
:109EC00000E100E010B50446FEF76FFAA269236ACC
:109ED0009A4203D2FEF76FFA012010BDFEF76BFA2B
:109EE0000020FAE737B504460D46FEF75EFA94F80F
:109EF000253002466BB1132D07D1002384F826309C
:109F000003B0BDE83040FEF756BA112D01D1012350
:109F1000F4E76369E1691046CD54A16963690131D1
:109F2000A161216A01338B42636104BF0023636135
:109F3000FEF741FA0AF054FA0238012803D8D4F89F
:109F400084000AF01FFCA269236A9A420BD11323F2
:109F5000012220460DF107018DF80730FFF729FE99
:109F6000002384F8273003B030BD0000BFF34F8FCB
:109F7000BFF36F8F054B5A6A22F480325A62D3F8CE
:109F8000942022F00102C3F89420704700ED00E015
:109F900070B52548254CFFF7E9FF844208BF4FF014
:109FA0008043234A18BF20F01F03D2F8C01018BF07
:109FB000203B21F0FF0141F0A001B3F1005FC2F8A6
:109FC000C0100CD31B4D1C4E296843F00103C2F88E
:109FD00098100131C2F89C60C2F8A0302960844218
:109FE00010D01448154B0268114923F01F0343F0A9
:109FF0000303C1F89820C1F89C30114B0132C1F81D
:10A00000A0300260BFF34F8FBFF36F8F0522084B64
:10A01000C3F894205A6A42F480325A62BFF34F8FD9
:10A02000BFF36F8F70BD00BFC413002070150020F8
:10A0300000ED00E0981E0020030000208F15002096
:10A04000E1FFFF3F10B51446FFF790FF1F2C21D909
:10A05000194A1A4CD2F8C03021F01F0123F47F4373
:10A0600043F48073C2F8C030C30618BF20F01F004D
:10A070002368114A18BF203020F01F00C2F8983022
:10A0800040F0030041F003010133C2F89C00C2F824
:10A09000A0102360BFF34F8FBFF36F8F0522064BD5
:10A0A000C3F894205A6A42F480325A62BFF34F8F49
:10A0B000BFF36F8F002010BD00ED00E0981E002060
:10A0C000BFF34F8F0549064BCA6802F4E0621343A1
:10A0D000CB60BFF34F8F00BFFDE700BF00ED00E096
:10A0E0000400FA0508B5FFF7EBFF08BD054B1A7829
:10A0F0002AB95B78002B14BF02200320704701208F
:10A10000704700BFCC1E00200329F8B598BF124B42
:10A1100005460E468CBF00245C5C032805D8DFE8AA
:10A1200000F002080B0E44F002040C4B1F684FB9FC
:10A13000F8BD44F00804F8E744F02004F5E744F0E3
:10A140008004F2E77B681A68144203D0314628463F
:10A150005B6898473F68EAE75D410308C81E002036
:10A1600038B5104D2B78ABB10F4C23781BB100F0F4
:10A1700035FB00232370002000F054FB0B4C50B142
:10A1800000F05AFB0023012120782B70FFF7BCFF61
:10A190000123237038BD0122054B1A702278054B2C
:10A1A0001A70F7E7C61E0020C11E0020B81E00204E
:10A1B000C51E0020D81E002010B5FEF7EFF8064B94
:10A1C00004461B781BB1BDE81040FEF7EBB8FFF763
:10A1D000C7FF2046F7E700BFC01E0020002814BFBD
:10A1E0000121FF21074A13780B44137008D0064B56
:10A1F0001B78012B04D9054B1B780BB9FFF7B0BFB7
:10A20000704700BFCC1E0020B81E0020C51E0020D5
:10A2100070B5FEF7C3F8114E054633788BB900F0E0
:10A220001DFC044620B12846FEF7BCF8204670BD50
:10A2300000F014FD0A4B18600A48FCF7A4FE0A4B14
:10A240001C6000F015FA00F02BFB084B002418608E
:10A25000012328463370FEF7A5F8E7E7C21E002069
:10A26000D41E0020C81E0020DC1E0020BC1E0020C2
:10A2700000292DE9F34114BF0121FF21254A00F1F6
:10A28000FF30135C0B4413543AD0234E317801292C
:10A2900036D9FFF72BFF0128044634D81F4FFEF7AD
:10A2A0007DF83B781BB31E4D2B781BB901222A7019
:10A2B0001C4A1370DFF8708098F8003033B10190B9
:10A2C00000F08CFA0023019888F80030FEF76AF855
:10A2D000012000F0A7FAFEF761F82B782BB101906E
:10A2E00000F0AAFA002301982B7000233B70FEF7C0
:10A2F00059F83078A04203D02146FFF705FF3470AB
:10A3000002B0BDE8F0810329F3D10228F1D100F0B9
:10A31000DBFAEEE7CC1E0020B81E0020C61E00208F
:10A32000C01E0020C51E0020C11E002068B5FEF71B
:10A3300035F8094B06461B78012B04D8FEF732F896
:10A340000025284668BD054B1D6800F0ADFA0544A0
:10A350003046FEF727F8F4E7B81E0020DC1E002088
:10A3600007B5FEF71BF80190FFF7FAFE019803B05E
:10A370005DF804EBFEF716B838B541600446FEF709
:10A380000DF8054621460448FCF700FE2846BDE8C6
:10A390003840FEF707B800BFC81E002013B5019073
:10A3A000FDF7FCFF044601990448FCF7F3FD204645
:10A3B00002B0BDE81040FDF7F5BF00BFC81E002089
:10A3C000054B1B685843054B00F5742000F23F20F5
:10A3D000B0FBF3F0704700BFD41E002040420F00D6
:10A3E0002DE9FF47FDF7DAFF044600E000BF0CF05F
:10A3F00011FA002800F09C806D4E6E4F337823B127
:10A400000020FFF7EBFE00233370FFF76FFE0546D9
:10A41000002800F09580851EEDB2012D40F2988055
:10A42000FFF764FE0128804604D9634B1B780BB903
:10A4300000F092F9614DDFF8A4912878DFF8A0A12F
:10A4400040450AD0002389F800309AF8003013B94B
:10A450004146FFF759FE85F8008099F800303BB17E
:10A460002B78022B04D1002389F8003016F048F82D
:10A47000B8F1010F0FD9DFF8408198F8003053B9D7
:10A480004F4B1B7823B900F0A3F901224D4B1A70F2
:10A49000012388F80030287800F0ECF99AF80030B1
:10A4A00013B1494B1B782B7000E000BF2046FDF72D
:10A4B00079FFFDF773FF454B04461A7852B100222D
:10A4C0001A70414B28781B78984203D101212970DA
:10A4D000FFF71AFE384600F0FBFA0CF0A5F98046AB
:10A4E00000288BD1344F89F800003B789BB1DFF80E
:10A4F000D4908AF8000099F800301BB100F06EF992
:10A5000089F80080002000F08DF9002846D000F086
:10A5100093F900233B70337823B10020FFF75EFEF0
:10A520000023337000212878FFF7EEFD00232B7005
:10A5300000E000BF204604B0BDE8F047FDF732BFA1
:10A540003378002B3FF46CAFFFF748FE357067E7B8
:10A55000002003A900F03EFB054600287FF460AF11
:10A560001B4B039A1B689A4205D80120FFF736FE61
:10A570000123337054E7174BD3F8008000F094F9AF
:10A58000039940448842F0D20223091ACDE90053CE
:10A5900038462B46104A00F0C3FA41E7012000F08C
:10A5A00069F92046FDF7FEFEFDF7F8FE0446A9E72F
:10A5B000D01E00209C1E0020C61E0020B81E0020B9
:10A5C000CF1E0020C11E0020D81E0020C41E002067
:10A5D000BC1E0020DC1E0020B9A10008CE1E0020F9
:10A5E000C51E002010B5094B1B786BB1084C2378B1
:10A5F00053B100F021F90023064A237013700123A0
:10A60000054A1370054A137010BD00BFB81E002024
:10A61000C51E0020C61E0020C31E0020C41E002030
:10A6200073B5114E04463378834212D000238DF85F
:10A63000043080B102238DF8053001A8FDF7D4FE67
:10A640000A4D402054B1FFF7BBFE2B68181A286052
:10A65000347002B070BD8DF80500EEE7FFF7B0FE74
:10A660002B681844F3E700BFF4100020E81E002018
:10A6700073B5002401A88DF80440FDF753FF204670
:10A68000FFF7CEFF4FF480102C4B2D491A6F02F0CC
:10A6900007020A602B49D3F8203148664FF4003096
:10A6A000486601F598318969032A01F002013DD01D
:10A6B00003F00703981E434243412348234D037090
:10A6C00061B31E4A3BB9D2F8003103F00303591EAF
:10A6D0004B424B410370D2F8003103F00303022BCD
:10A6E00026D0032B27D0012B18D1FCF7F5FAA8B1FF
:10A6F000174B411EDC680023024608461946C4F386
:10A700000B04144E013404EB8404E4FB060129F02D
:10A7100031F9FFF755FE2B68184428606420FFF7D5
:10A720004FFE2B681844286002B070BD0123C4E7B7
:10A73000FCF736FBDBE7FCF7E5FAD8E700800040E2
:10A74000E01E002000900040E61E0020E81E0020D1
:10A7500000C0014040420F00FDF77EBE074B1A7853
:10A7600052B100221A70064A136F23F0070343F018
:10A7700001031367FCF79ABA704700BFE41E00207C
:10A780000080004008B50E4B1B788BB1022000F012
:10A79000BFFB68B100F050FA50B10A4B9A6DD2037A
:10A7A00007D5DB6D9B0704D54FF48032064B9A62C8
:10A7B00008BD0122054B1A70FEF7CCFDF4E700BF7F
:10A7C000E61E00200040004A0050004AE51E00201E
:10A7D0000122014B1A707047E41E002038B50D4B62
:10A7E0001B7873B10C4C23788BB90C4B0C4D9A6DC4
:10A7F00012F4803F06D0DB6D9B0703D54FF4803306
:10A80000AB6238BDFEF7A6FD4FF48033AB62002388
:10A810002370F6E7E61E0020E51E00200040004AF7
:10A820000050004A034B1B780BB1FEF7FFBD01201F
:10A83000704700BFE61E002008B5FDF70EFE094A6E
:10A840000949136F096823F007030B431367074B8C
:10A850001B781BB14FF48032054B9A62BDE808406B
:10A86000FCF724BA00800040E01E0020E61E002015
:10A870000060004A02280AD003280BD001280CD11E
:10A88000064A136923F00403136130BF70470020A8
:10A89000FDF7B6BD0020FDF7CBBD704700ED00E031
:10A8A0004FF4C870FFF78CBD08B5054B187818B188
:10A8B000FEF796FD00EBD000024B1B68184408BD64
:10A8C000E61E0020E81E00207047000010B500F0D2
:10A8D000CFFA0A4C0A4B19682368C31A01B10BB9A5
:10A8E000206010BD4A699A423ABF9B1A0022D21AD0
:10A8F0004A6128BF00238968F0E700BFF01E0020EE
:10A90000041F0020C38870B504460D463BB9FFF70D
:10A910000DFD8542064602D2FFF722FD35460F495E
:10A9200065610B68ABB90C60A36011E0AD1A9A6861
:10A93000184665612AB113465A69AA42F6D950B140
:10A940001A4613468460A36013B15969491B5961C3
:10A9500070BD0020F0E70C60F5E700BF041F002089
:10A9600038B5134D2B685B6993B1124A0220146805
:10A970001C4400F087FA204600F090FA00230E49AC
:10A980002A680B70D088800709D501230B7038BD69
:10A99000022000F077FA022000F0AEFAEEE79268AB
:10A9A000002AF4D050690344012BEBD9EFE700BF34
:10A9B000041F0020F01E0020F81E002070B516466F
:10A9C0009DF81420C0E903360271049ABDF81830CE
:10A9D00002600022C380826004460D4600F048FAFF
:10A9E0003044A0613DB9E368656113B12046216838
:10A9F000984796B13546FDF7D1FC0646FFF766FF4E
:10AA000029462046FFF77EFF054B1B68A34201D174
:10AA1000FFF7A6FF3046FDF7C5FC002070BD00BF64
:10AA2000041F002000220C490B687BB183420AD12D
:10AA300083687AB1936083681BB15A6941690A449B
:10AA40005A61002070471A469B68EEE70028EFD055
:10AA5000022070470B60EEE7041F002070B5FDF781
:10AA6000A4FC144E05463478FCB9134B1C60134B00
:10AA70001C60134B1C8000F0CBF9012000F002FA9F
:10AA800000F056FA0F4B0246186020B92846FDF731
:10AA900092FC232070BD234640F2E7310A4828F09B
:10AAA00069FF0A4B1860012333702846FDF783FCC9
:10AAB0000020EFE7EC1E0020041F0020F01E002005
:10AAC000FA1E0020001F002018FCFFFFF41E0020CB
:10AAD0002DE9F0410546F8B1FDF760FC0F4F064641
:10AAE000FFF7F4FE2846D7F80080FFF79BFF0446E7
:10AAF00028B13046FDF756FC2046BDE8F081A84558
:10AB00003B6803D123B1FFF72BFFF2E7002BF0D115
:10AB1000022000F0E5F9ECE72224EDE7041F002015
:10AB200070B586B015461E460446059180B1FFF704
:10AB3000CFFFBDF82C30002202939DF8283020462C
:10AB4000CDE9006305992B46FFF738FF06B070BDCD
:10AB50002220FBE738B50C46054698B191B1002399
:10AB60000B70FDF722FC0121074B1B680BB122780B
:10AB70001AB1FDF720FC002038BDAB4214BF9B6822
:10AB80002170F3E72220F7E7041F0020F0B51F46ED
:10AB9000002387B00D46164604468DF81730A0B145
:10ABA0000DF11701FFF7D6FF9DF817207AB9BDF810
:10ABB0003430294602939DF830302046CDE90073A9
:10ABC0003346FFF7FBFE07B0F0BD2220FBE7032072
:10ABD000F9E700002DE9F04107468846FDF7E5FB5F
:10ABE00000260546124B1C6824B92846FDF7E3FBF6
:10ABF0001B2016E063691E44E388BB4215D100F0B8
:10AC000037F90C4C2368C01AB0420CD200F030F96E
:10AC100022683244121A2846C8F80020FDF7CBFB00
:10AC20000020BDE8F0810022F5E7A468DCE700BF62
:10AC3000041F0020F01E0020014B1878704700BF51
:10AC4000F81E002038B5FDF7B0FB054600F010F9FE
:10AC500004462846FDF7AFFB204638BD014B186877
:10AC6000704700BF001F00200C4B70B51B680D46DD
:10AC7000834211D340F2E73100248C462146084B31
:10AC80004FF47A721E680023E0FB06C1604628F08C
:10AC900071FE2860204670BD2120FCE7F41E0020D4
:10ACA000001F00200F4B10B51A689AB14FF47A714B
:10ACB000531E1342A0FB01010ED1B2FA82F2C2F17F
:10ACC0001F04531CD243E04001FA03F3184321FA56
:10ACD00002F20243104610BD002328F04BFE02464C
:10ACE000F8E700BF001F0020C2072DE9F347044624
:10ACF0000BD53F4A138801339BB21380FFF7E6FD63
:10AD00003C4B1B680BB1FFF72BFEA3076DD5FDF77E
:10AD10004CFB002605463746FFF7D8FDB146DFF865
:10AD2000D480D8F800400CB163698BB10022324B5B
:10AD3000012F1A7002D1022E08BF1F70002C44D0C0
:10AD4000FFF70EFE284602B0BDE8F047FDF733BB23
:10AD500023461A792179914288BF1C469B6813B11A
:10AD60005A69002AF5D02846FDF725FB256985B3E9
:10AD700000F07EF8A269861AF317B54279EB030357
:10AD800028DA23691344A3610123226982B17BB9C4
:10AD9000A91B0191FDF709FB824601992046FFF7A7
:10ADA000B1FDA369226950461344A361FDF703FB7B
:10ADB000E368E688013713B1204621689847FDF71C
:10ADC000F4FA0546FFF782FDABE7022000F088F8B1
:10ADD000B8E72E46FDF7E9FA82462046FFF722FE45
:10ADE0005046FDF7E8FA0023CFE702B0BDE8F08750
:10ADF000FA1E0020041F0020FC1E0020034B5A688E
:10AE000012B19A6A002AFAD1704700BF004006408A
:10AE100030B5144B85B001AC93E8070084E8070017
:10AE200001213D20FCF774FC0125002320468DF80C
:10AE300004300295FCF7D6F903220B4C04F50053BD
:10AE40009A615A61FCF714FAFFF7D8FFE560FFF743
:10AE5000D5FF4FF48022054BC3F880211A6005B05E
:10AE600030BD00BF644103080040064000E100E03F
:10AE7000014B186A704700BF004006400020FCF7F5
:10AE8000F1B9000000F001038207034A48BF43F014
:10AE900002039361704700BF0050064070B50F4E2B
:10AEA0000446356AFFF7EAFF73699B0704D4431B26
:10AEB000052B01D8A84210D1631B042B98BF6C1D31
:10AEC000B4F1FF3F2CBF2146611E0020FCF7BEF904
:10AED000BDE870400220FFF7D5BF70BD00400640BE
:10AEE00000F001038207034A48BF43F00203936165
:10AEF000704700BF0060064000F001038207034A6C
:10AF000048BF43F002035361704700BF0050064042
:10AF1000064B01285B6904D0022805D1C3F3400029
:10AF2000704703F001007047002070470040064062
:10AF30003D20FCF709BC000010B5FDF736FA0446C9
:10AF4000094B5B699A07094A03F0010003F0030308
:10AF500048BF40F002005361FFF7C6FE2046BDE83F
:10AF60001040FDF728BA00BF0040064000600640D0
:10AF700008B5FBF7E3FCFBF741FDFBF741FDFBF7F1
:10AF80004EFDBDE80840FBF751BDFBF735BD0000A5
:10AF900010B50446FBF78AFE0C4BA0F57A729A4274
:10AFA00012D84FF47A73B0FBF3F05C43084BB3FB59
:10AFB000F0F0B4FBF0F0022806D9BDE810400323FE
:10AFC000B0FBF3F000F00CB810BD00BFFFC99A3B16
:10AFD00040420F00000000000000000000000000E0
:10AFE000013800D0FCE7704707B5034604480091DC
:10AFF00000F134020C2115F02DFF03B05DF804FBC5
:10B00000081F002038B50B4D134604460A4601467A
:10B01000284615F065FF022808D048B994F830306A
:10B02000EA181C3382F8640045F82300012038BD7B
:10B030000020FCE7081F0020014815F01BBF00BFDF
:10B04000081F00200146014815F078BF081F0020A6
:10B0500070B40546AC68084611461A46DDE9033669
:10B0600074B12D68012D04D0022D05D0042070BCD0
:10B070007047234670BC1847A446039670BC6047CF
:10B080002046F4E7F7B504460A4D0B48A84201D321
:10B0900004200BE087880E78B74209D1089DCDE9DE
:10B0A000003513460A462146FFF7D2FF03B0F0BD34
:10B0B0001C30EBE724B603089CB40308F8B505463A
:10B0C0000F46064C064EB44200D3F8BD3946204622
:10B0D000A8470028F9D11C34F5E700BF9CB4030849
:10B0E00024B603082DE9F04304468046002685B0C7
:10B0F00090F800C0BDF830509DF8347000EB0C1E85
:10B10000F04505D166450DD1002005B0BDE8F083BE
:10B1100098F8049008F11008B9F1030F1CBF01362C
:10B12000F6B2EDE7002BEFD08DF80020ADF802501D
:10B13000009E26F47F46012EE6D0022A03D1002F7E
:10B14000E2D0002DE0D0A64511D1002600F1040E7A
:10B15000B445D9DD34011EF80480B8F1030F1CD1C9
:10B160002044C0E90313027195B90120CDE7267987
:10B1700096420BD1E688AE4208D1267ABE4205D16E
:10B180002669B34202D1E668B142BDD01034DAE795
:10B19000C580002FE9D00772E7E70136D8E710B580
:10B1A000034603240022017000EB01118B4200D101
:10B1B00010BDC3E903221C71DA801A721033F5E75F
:10B1C00007B513460022CDE90022FFF78BFF03B03D
:10B1D0005DF804FBF8B506460D46044600273378B3
:10B1E000BB4200DCF8BD2379012B07D0022B0CD029
:10B1F00043B929462369E068984703E02A79E38840
:10B200009A42F6D001371034E9E72A79E3889A4266
:10B21000F8D16A79237AF3E7014B186A704700BFC7
:10B22000283F0308014B93F822007047283F03088A
:10B23000014B93F821007047283F0308014B93F816
:10B2400020007047283F03082DE9F047DDF82490DF
:10B250001F460C469046064601F04EFC00F0FAFCF4
:10B26000054601F03DFC436893F800A0B9F1000FDA
:10B270001AD11AF0040F22D13DB3B54209D147B11A
:10B28000214638469DF8202028F01EFDA0B9202C2C
:10B2900012D0042D17D1722C15D1B8F1040F12D190
:10B2A000B6FA86F0400908E0214648469DF8282075
:10B2B00028F00AFD0028DCD00120BDE8F087032D2E
:10B2C00008D0042D0BD00020F7E7A4F1200358424A
:10B2D0005841F2E7032EF6D1002FD1D1F3E7042E27
:10B2E000D9D1CCE710B58AB0044601F0E7FB65235D
:10B2F000002201A980688DF804308DF8084015F00F
:10B3000039FC0AB010BD10B5BEB0044601F0D6FB42
:10B3100015238DF80030002269460068019415F06D
:10B3200029FC18B114B100210220A0473EB010BD85
:10B3300038B5064D0446064928460CF0E7FD10B91D
:10B340000120256038BD0020FCE700BFF81F002069
:10B350007041030800487047F81F0020452300B5DE
:10B360008BB08DF8043001F0A9FB4FF4FA7201A9FB
:10B37000806815F0FFFBB0FA80F040090BB05DF873
:10B3800004FB0000602200210148FAF787BF00BFDC
:10B390004820002010B5074C23784BB9012360608A
:10B3A00004F10C00237004F05BF904F1100010BDEF
:10B3B0000020FCE74820002008B5054B984204D146
:10B3C000043804F05FF9012008BD0020FCE700BF4D
:10B3D000582000202DE9F8430F4D064695F80090BF
:10B3E0000F46B9F1010F144614D105F10C0840467F
:10B3F00004F01EF9404604F04BF9386034B10430D3
:10B40000C6F8008038602046BDE8F88310354C4609
:10B410003560F8E70024F6E7482000200022024BC0
:10B420005A601A70704700BF48200020064B10B5C4
:10B430005B68044603B19847E378012B03D1BDE86C
:10B440001040FFF7EBBF10BD48200020024B5868AA
:10B4500000F00100704700BF0040004B014601486A
:10B46000FDF7CEBD0040004B002313B5ADF804300E
:10B470000123104C8DF8073063788DF8060093B1E6
:10B480002378C3F3C20304EB83035B680BB101A809
:10B4900098472378C3F3C202013262F3C5032370D5
:10B4A0006378013B6370044B1B6803B1984702B09B
:10B4B00010BD00BFB0200020F820002010B50E4CB9
:10B4C00063788BB12378C3F3C20304EB83035B6817
:10B4D00003B198472378C3F3C202013262F3C50374
:10B4E00023706378013B6370044B1B6813B1BDE8A4
:10B4F0001040184710BD00BFD4200020F8200020C5
:10B5000010B50C4601F0E6FA074B084A1860084BE4
:10B510001C60138803F0C0031380064A138803F0ED
:10B52000C003138010BD00BFFC200020B02000200D
:10B53000F8200020D420002070B5134D06462B7A49
:10B540000C468B421AD3C9B101F0D6FA00F082FB47
:10B5500030B9AEB91C21E86801FB0400183870BD91
:10B560001C206FF01B0110FB0410EC68044416B99A
:10B5700004F10C00F3E704F11400F0E70020EEE71B
:10B5800005F11800EBE700BF0021002030B514469C
:10B590005268C1B01279CDE9001002B9A270244DF1
:10B5A0006A78072A40D82A7802F0070205EB82025F
:10B5B0005360009BAA2B39D82246694601A803F0A4
:10B5C0005FFDDDE9002163680DF112001B88ADF815
:10B5D000BC30184B039323788DF8103028F092FB81
:10B5E0000022009BADF8BE208DF8113063788DF8F5
:10B5F000C12043F001038DF8C030636802A95B7974
:10B600008DF8C23001238DF808300B4B186815F007
:10B61000B1FA38B92B785A1C62F302032B706B789D
:10B6200001336B7041B030BD0120FBE70220F9E728
:10B63000B020002069B40008FC20002030B5264C62
:10B64000C1B0CDE9001060781546072802D9012065
:10B6500041B030BD207800F0070004EB800043606B
:10B66000002AF4D0AA2934D8694601A803F008FDBD
:10B67000DDE900216B680DF112001B88ADF8BC30CC
:10B68000164B03932B788DF8103028F03BFB0022EB
:10B69000009BADF8BE208DF811306B788DF8C1207D
:10B6A0008DF8C0306B6802A95B798DF8C230012338
:10B6B0008DF808300A4B186815F05CFA0028C7D1DD
:10B6C00023785A1C62F3020323706378013363709A
:10B6D000BEE70220BCE700BFD4200020BDB40008B4
:10B6E000FC20002030B5114A114C438854600A6098
:10B6F00023800379A178C3F3060513F07F0318BFF5
:10B70000012365F30601A17023714378637125233A
:10B71000137003789B0744BF27231370037AC3F386
:10B72000060393700023537030BD00BF202100201A
:10B73000A8200020037813F00C0F14BF0120002074
:10B740007047000008B50246FFF7F4FF074B38B911
:10B7500092F90820002A06DB1878421E5042504118
:10B7600000221A7008BD0120FAE700BF0021002066
:10B77000014B1870704700BF002100200020704767
:10B7800070B5002405460E4613789CB08DF8143031
:10B79000537B21468DF81530138908A8ADF8163073
:10B7A0009DF818304D226FF306038DF818309DF880
:10B7B0001E308DF81C4064F300038DF81E308DF8A8
:10B7C0000F40FAF76BFD0DF10F0300933246294647
:10B7D00008AB05A8FFF756FC04280FD09DF80F30E2
:10B7E00053B104A905A8FFF77DFF2346049A9DF8ED
:10B7F0000F1008A8FFF722FF1CB070BD3246294683
:10B8000005A8FFF7BBFFF7E700223A4B2DE9F3410C
:10B81000394D19782A7019B11A7002B0BDE8F0815B
:10B82000364C374E217881B13268364B571A7A42FE
:10B830007A41DA70344A12881A8000B180789870A0
:10B84000324B1B680BB12F489847217833689942D7
:10B85000E3D22F4B1A6853788DF800302D4B1B78AC
:10B860008DF8013029B9990744BF43F004038DF8DE
:10B8700001309378234E8DF8023002F055F9224AB8
:10B880000388019013803380234B1A7812F007024B
:10B8900006D0224B1A781AB190F90220D243D20F67
:10B8A000DFF884801E4F41463846FFF793FD48B9C4
:10B8B0004FF481737380154B1B68002BADD011487A
:10B8C0009847AAE76A46174BD8F800103868FFF780
:10B8D0005DFE40B10223B37002F040F9B0FA80F08F
:10B8E0004009F070E7E701232B70237801332370C0
:10B8F00093E700BF2D210020352100204C2100209E
:10B90000442100204E2100204A210020382100201F
:10B910004021002052210020482100202C2100201D
:10B920003C21002009B800082821002007B5074B5A
:10B930008DF806001B8801A8ADF8043001238DF8AE
:10B940000730FFF761FF03B05DF804FB4A210020D8
:10B9500030B51A4C1A4D85B0062200216846FAF718
:10B960009DFC20686A4600F10801043002F00AF9E3
:10B970009DF902302870002B1CDA236811495A788F
:10B980009B788DF8082000228DF80A308DF8092068
:10B990000D4BBDF800200D481A8009680C4B00685B
:10B9A00002AACDF80CD0FFF7F1FD003818BF012036
:10B9B00005B030BD0028CFD10220F9E7402100209A
:10B9C00034210020282100204A2100203C21002091
:10B9D000D1BA00082DE9F0410024C6B01D21684607
:10B9E00015F02BFB314D324B324E1C702B683470EE
:10B9F000AA2B56D8AA2221460DF12A00FAF74EFCAE
:10BA00002D4B2A6819680DF12A0028F07BF92B4B81
:10BA10008DF8284009932B68294F8DF8293002F0C2
:10BA20009DF8012838603ED9264B93F80080B8F184
:10BA3000000F38D1244D2B689B69187910F007044A
:10BA40001CD0224B1B681B788DF8D530FF238DF856
:10BA5000D43000F0FFF80223337004238DF8D600B1
:10BA60008DF820302B680022186808A915F082F89C
:10BA7000003818BF012046B0BDE8F08102F054F84C
:10BA80000178684615F0CDFA3B6801349C42F5D345
:10BA900003231D22694635A88DF8203028F032F99D
:10BAA000E0E70120E7E70220E5E700BF28210020CA
:10BAB0004C210020522100203C2100202DB90008FB
:10BAC000442100203421002030210020402100208A
:10BAD00070B5214D04462B880380837853B102F062
