:020000040800F2
:1000000000100020B5010008B1010008E505000856
:10001000B1010008B1010008B1010008B1010008F8
:10002000B1010008B1010008A0270008B1010008D3
:10003000B1010008E0270008B1010008B101000883
:10004000B1010008B1010008B1010008B1010008C8
:10005000B1010008B1010008B1010008B1010008B8
:10006000B1010008B1010008B1010008B1010008A8
:10007000B1010008B1010008B1010008B101000898
:10008000B1010008B1010008B1010008B101000888
:10009000B1010008B1010008B1010008B101000878
:1000A000B1010008B1010008B1010008B101000868
:1000B000B1010008B1010008B1010008B101000858
:1000C000B1010008B1010008B1010008B101000848
:1000D000B1010008B1010008B1010008B101000838
:1000E000B1010008B1010008B1010008B101000828
:1000F000B1010008B1010008B1010008B101000818
:10010000B1010008B1010008B1010008B101000807
:10011000B1010008B1010008B1010008B1010008F7
:10012000B1010008B1010008B1010008B1010008E7
:10013000B1010008B1010008B1010008B1010008D7
:10014000B1010008B1010008B1010008B1010008C7
:10015000B1010008B1010008B1010008B1010008B7
:10016000B1010008B1010008B1010008B1010008A7
:1001700010B5054C237833B9044B13B1044800E0A3
:1001800000BF0123237010BD0810002000000000F4
:10019000F828000808B5034B1BB10349034800E0E9
:1001A00000BF08BD000000000C100020F828000867
:1001B000FEE7000008B500F021F800F0A3FA0A4BB2
:1001C0000A4A0B498B4206D300210A4B0A4A934242
:1001D00006D300F00BFA52F8040B43F8040BF1E7D6
:1001E00043F8041BF3E700BF00100020F8280008C4
:1001F000081000200810002024100020044B054A9D
:100200009A60D3F8882042F47002C3F888207047BF
:1002100000ED00E0000000084FF098435A6CD20255
:10022000FCD5586D00F470207047C0F30C032DE925
:10023000F04105460F4616460BB900F095FB05F553
:10024000005424F4FF5424F01F0405EB0608A045D5
:1002500007D8324639462846BDE8F041022300F06F
:1002600091BB204600F080FB04F50054EFE770B42A
:100270004FF00065AD6A03462E69864206D86C6968
:1002800013449C4202D370BCFFF7CFBF70BC7047D1
:100290001FB500F1006303F5A0230393104B144630
:1002A00098421BD8039A0F4B9A4217D2039A9B1A73
:1002B000A34213D358B94FF000639B6A0A4A5869A6
:1002C000904204D91869019100F04EFB0199224631
:1002D000039804B0BDE81040FFF7A7BF04B010BDFD
:1002E000FFFFFAF700E00708000005087FB50346A6
:1002F000E8B1B0F1006F1AD36D460E4A02F1100654
:100300002C4610685168083203C4B2422546F7D122
:100310005A1E0DF10F010F3311F8010912F8014FA8
:10032000844204D19A42F7D1012004B070BD00206C
:10033000FBE700BF8C270008036913F0FE0F0CBF1A
:1003400001200020704738B504460D46FFF7CEFF68
:1003500048B16369012B09D12046FFF7EDFF08B1D1
:10036000A3692B6038BD01202C60FBE70020F9E772
:100370002DE9F0410368044603F16043B3F5803F83
:10038000A0B034D84FF000639B6A42681E69964261
:100390002DD8394B9A422AD8456B06F14002AA4221
:1003A00068D89D4266D82846FFF7A0FF002861D094
:1003B0002846FFF7C1FF80B16B6973B1022B0FD1E3
:1003C000AB69C4F1040119444FF0FF32204601F03B
:1003D000A1F82A4BC31A5842584120B0BDE8F08119
:1003E00040F2046328460493FFF780FF08B9002019
:1003F000F3E72846FFF7A0FF0028F8D04FF000678A
:10040000D7F834804046FFF771FF0028EFD0403E18
:10041000B045ECD8284605A9FFF795FF0028E6D09F
:10042000BA6A059B12699A42E1D89C42DFD8124A07
:100430009342DCD806A801F03DF9059A2146121B2B
:1004400006A801F047F906A801F046F9059C01F05D
:1004500047F9039001F062F921460090039B04F1F3
:10046000200206A801F0A6F804900498B0FA80F0E3
:100470004009B2E70120B0E700000808E320BBDE36
:1004800070B54FF0FF3290B005460C4601F042F8CF
:100490001B4B984231D14FF480621A4B00219A666F
:1004A00001A81C2202F05DF9174B2946684600930B
:1004B00001F099FF2146684601F095FF684601F07A
:1004C0009BFFFFF7A9FE0646B8B940F2022000F0F4
:1004D000FBF91C22314609A802F043F90B4B2946CF
:1004E00008A8089301F07FFF08A8214601F07BFFD0
:1004F00008A801F081FFFFF78FFE002010B070BD4B
:10050000E320BBDE009000400100054301000643EC
:100510004FF48062134B10B59A664FF0FF338CB0E6
:100520001C220021044605A8009302F01AF90E4B84
:10053000CDF804D00493012302930C4B04A801A925
:10054000039301F046FF04A801F056FFFFF764FE95
:1005500030B9009BA3422CBF002001200CB010BD7D
:100560000020FBE70090004000000843040000204A
:100570004FF4806230B50446154B91B09A66002165
:100580001C2201A802F0EDF8124B214668460093A8
:1005900001F029FF684601F02FFFFFF73DFE0546F9
:1005A00098B940F2022000F08FF91C22294609A8D0
:1005B00002F0D7F8084B08A82146089301F013FF72
:1005C00008A801F019FFFFF727FE002011B030BD89
:1005D00000900040000002430000034301F03ABDD8
:1005E00001F098BD4FF4017000F094B913B54FF4C9
:1005F00080303C493C4A4B6E5066486E4FF000419B
:100600004AF6CD345166394903F480334A6C0C64A0
:1006100002F001024C6BE407FCD4012434494C6025
:10062000324C216BC907FCD53249D1F808168C072A
:100630005EBF4FF480242E49CC6512B12B4A2E495F
:1006400011640028A2BF4FF000412C4A51661BB92B
:100650004FF48032294B5A664FF04023D3F8842060
:10066000110606D44FF400621A67D3F88420D2062C
:10067000FBD4FFF7B3FF00F01BF908B900F006F94F
:1006800001F018FB044658B900F012F908B100F067
:1006900009F940F2012000F03DF94FF4017018E033
:1006A00000F006F908B900F0F7F800F018F9012891
:1006B00002D900F0EBF8FEE700F01BF9104B0193B4
:1006C000019B002B0ADC40F205439C42E5D140F23D
:1006D000032000F01FF9002002B010BD019B013B78
:1006E000EDE700BF0080004000900040004009405E
:1006F0000060094000C007403254FFFF00A00040E6
:1007000000350C0013B501244FF040238DF806404E
:100710008DF80740D3F894305B0610D500F00EF941
:10072000A0F2022080B2072809D804FA00F010F0E5
:10073000C90F1EBF00238DF806308DF80730194B06
:100740005B68013308D14FF4027000F0BDF800235C
:100750008DF806308DF807309DF807305BB11148F1
:10076000FFF706FE8DF806009DF806301BB94FF422
:10077000027000F0A9F89DF8063083B100F098F8F7
:1007800008B100F08FF8074B074A936018460168DC
:1007900081F3088881F3098840688746FEE702B044
:1007A00010BD00BF0060000800ED00E0B1F50A7F59
:1007B00010B5044610D34FF40A72002101F0D1FFA6
:1007C000002304F5D872637004F5A47104F12C00C1
:1007D000BDE8104000F048BA40F2052010BD13B546
:1007E0000446009101462C3000F076FAC4F8240249
:1007F00018B141F20703984209D1A3784BB140F2F6
:10080000032040F20223E278002A08BF184602B013
:1008100010BD40F20120FAE72DE9F04387B00DF159
:10082000080904460E4617460021102248461D4678
:10083000DDF8388001F095FF00211C22C8F8001077
:10084000284601F08EFF32463B462146CDF8009007
:1008500004F12C0000F040FA23789A0744BF626844
:10086000C8F80020DB0705D51C22284604F1080142
:1008700001F06AFF237840F20640002B18BF0020E9
:1008800007B0BDE8F0834FF40A7070474FF0005393
:100890004CF23C325A8070474FF000534AF6C03257
:1008A0005A8070474FF000534FF20F025A80704742
:1008B0004FF000534AF6C0305B8823F00F039BB221
:1008C0001B1A5842584170474FF0005208B510802B
:1008D000FFF7EEFF10B94FF20F03538008BD08B5C4
:1008E000FFF7E6FF20B14FF00053588800F00F00EB
:1008F00008BD08B5FFF7DCFF50B14FF00052538838
:1009000003F00F010F2914BF013323F00F035380AD
:1009100008BD000008B5FFF7D7FFBFF34F8F0549AB
:10092000054BCA6802F4E0621343CB60BFF34F8FFC
:1009300000BFFDE700ED00E00400FA054FF00053B2
:100940004FF20F015A888A4201D1188870473AB98C
:100950001B8840F20220012B18BF4FF40070704733
:100960004FF40070704700004FF4803208B5044B1C
:100970009A6601F047FCB0FA80F0400908BD00BF5C
:1009800000900040072BF8B506460F4614461D465A
:1009900001D90020F8BD0121202001F0C3FB012175
:1009A000212001F0BFFB8CB144EA06039B07F0D184
:1009B0004FF48032064B31469A66284623463A4623
:1009C00001F084FCB0FA80F04009E3E70120E1E7A0
:1009D00000900040134610B562B103439B070BD152
:1009E0004FF48034054B9C6601F034FCB0FA80F083
:1009F000400910BD0120FCE70020FAE7009000400C
:100A0000002070470020704770B5D1E90152AA421A
:100A100005D290F840302B449B1A402B10D900206F
:100A200012E00A6890F84040D65C90F8412001330B
:100A3000224402F03F02013486548B6080F840402B
:100A40008B689D42EDD8012070BD2DE9F8431D460D
:100A50001746D1E901329B1A90F84020044613440E
:100A60009D420E469DF820909DF8248056D9FFF7B0
:100A7000CBFF00285CD1142341F2020084F84630F9
:100A8000BDE8F88394F84120A25CFA5494F8412020
:100A90000133013202F03F0284F8412094F84020F3
:100AA000013A84F8402094F840200AB19D42E9D1EF
:100AB000D6E90121914201D29D4231D89D42DAD13D
:100AC00029463846D4F8882000F024FDC4F8880070
:100AD000B9F1000F04D02A463946E06C00F0FAFD67
:100AE000B8F1000F08D094F843308BB12B463A464A
:100AF0003946A06C00F04CFD94F8433043B1E36DEF
:100B0000A26D2B449342E36524BF002384F8433055
:100B1000636D41F203002B446365B1E70023C2E734
:100B20003268525CFA54B26801330132B260BFE7F6
:100B30000020A5E77FB50023CDE900330823154643
:100B40000DEB03020446FFF780FF41F203039842D6
:100B5000064626D194F8433063B10822E06C0DEBD1
:100B6000020100F0B7FD08230DEB03021146A06C53
:100B700000F00EFD039A029B6A6094F843202B60FC
:100B80005AB9094A934208D0084A934205D008222C
:100B9000E06C0DEB020100F09DFD6B682365002306
:100BA0006365304604B070BDF70A0AF7FC0404FC24
:100BB0002DE9F743044658680F4616469846002824
:100BC00048D08B0749D14FF000639B6A216E1B69A7
:100BD00002EB010C1D1D65451CD81C33994219D22E
:100BE0008D42284638BF08469C4594BFC0EB0C0296
:100BF000C0EB0302411AC5F1680507EB010928445F
:100C000049462044019201F09FFDFF214846019A88
:100C100001F0A7FD236E124A934211D2F11802325D
:100C200091420DD90F4D0422ED1A3D44294604F19D
:100C3000800001F089FD0422FF21284601F091FD8A
:100C4000D8E900353246206E3946A8470020226E8A
:100C50003244226603B0BDE8F08341F20200F9E7B6
:100C60000500050804000508F8B503F02003002579
:100C700080F842304FF0FF3304460F461646C0F866
:100C800088301822FF21C0E91855A0F8405080F89C
:100C90004350A0F8445080F84650683001F061FDA0
:100CA0000422FF2104F1800001F05BFD0422FF21FA
:100CB00004F1840001F055FD88222946C4E912762A
:100CC00004F1900001F04DFD84F8185116B1E06C6C
:100CD00000F0F0FC0020F8BD2DE9F04FA7B0CDE901
:100CE00013230293002304460E46309DDFF8A093A1
:100CF0001593159A029B9A4201D30020C7E094F8FD
:100D00004630142BF6D8DFE813F06700AE00A800D9
:100D1000520039002E004D02390045023900FC0115
:100D2000390045029A03FD0315008C01400340037E
:100D3000D202FD034FF00008636D0F2B00F291808B
:100D40000127102316AA2046CDF80480009713A986
:100D5000FFF77BFE41F203030990099A9A4200F0E3
:100D60005281099B44E00127D4E91432934200F2F6
:100D70005E8184F8467041F2030339E04FF0FF0BC7
:100D8000D4E91437BB426CD9DB1BDDE91472BF1AFE
:100D900094F84020032B174440F20882032F00F2FE
:100DA0000882204613A9FFF72FFE002320E0012729
:100DB000636D072BDFD8082316AA2046CDE90077FC
:100DC00013A9FFF742FE41F203030C900C9A9A42DA
:100DD00000F0AC810C9B0BE016AA204613A9FFF78C
:100DE000A9FE41F203020690069B934202D0069BA5
:100DF000059345E0179A1699226500226265994A83
:100E0000914240F0A081022284F84620F0E70123BD
:100E100016AA009320460823019713A9FFF715FE91
:100E200041F203030790079A9A4201D0079BDFE73C
:100E3000169B03F07F43B3F1407F05D0142384F861
:100E4000463041F20903D3E7179BD90706D594F83A
:100E5000423043F0010384F842300027636D072BD2
:100E6000D5D901239BE1204616AA13A9FFF762FEFC
:100E700041F203030890089F9F420BD0089F0597FB
:100E800041F20303059A9A423FF433AF059827B025
:100E9000BDE8F08F94F84420169B2AB1724A934221
:100EA00040F087800D2336E094F84220D20741D5E8
:100EB00094F84320002A3DD16C498B4233D022D88C
:100EC0006B4A934275D014D86A4A934200F08880E6
:100ED00004D8644A93426CD04B456AD0142316A8B8
:100EE00084F84630FFF78CFD002865D141F20807F1
:100EF000C5E7614A934279D0F0D8604A934258D00E
:100F00005F4A9342E9E7584A9342CBD006D85D4AFC
:100F10009342E3D10F2384F84630B0E75A4A934214
:100F200047D05A4AEDE7102384F84630236DC4E9D0
:100F30001632A4E7524A93424AD02BD84C4A9342E5
:100F400044D022D84B453FD04A4A934244D016A8B9
:100F5000FFF756FD00284BD01323169884F846302F
:100F6000C4F88C00FFF74EFD94F842309B0686D5FE
:100F7000002884D04368002B81D0204698470890F1
:100F8000089B002B3FF47BAF16E03C4A9342DED136
:100F90000323C0E73C4A93421CD010D8364A934200
:100FA00020D0314A9342D2D194F84330002B3FF401
:100FB00079AF142384F8463041F201075FE7334AE2
:100FC0009342C4D10823A6E70A23A4E70523A2E796
:100FD0000623A0E70C239EE794F84330002BE8D1CA
:100FE000112398E794F84330002BE2D1122392E7C3
:100FF000142384F8463094F84330002B3FF476AF46
:1010000041F204073BE7D4F848A000F0A5FB802399
:101010000221CDE9000317AA3B46504600F092FAA0
:101020008AE6012384F8433084F8463061E616AA44
:101030002046CDE9007713A9FFF707FD41F203032E
:101040000A900A9A9A4201D00A9BD1E61C2216A95C
:1010500006F1080001F078FB337843F001033370A8
:1010600082E600BFEB17A603FC0404FCF90707F9AE
:10107000F40A0AF4F30B0BF3F70A0AF7F50909F57A
:10108000F60808F6FA0606FAFD0303FDFE0101FE66
:10109000EB17A65E337843F004033370199BB362F9
:1010A00073785F072AD5EB238DF8583017238DF816
:1010B0005930A6238DF85A305E23042204F15001E2
:1010C00004F184008DF85B3001F03EFB002094F8C1
:1010D0004530606643F0020384F84530EF686FB135
:1010E00004222B6816A9B8470822606E2B68EF68A7
:1010F00018A91044B847636E103363660B2384F855
:101100004630636D072B3FF636AE012318AACDE9B2
:1011100000332046082313A9FFF797FC41F203038D
:101120000B900B9A9A42B5D00B9B61E6337843F053
:1011300002033370169B7360236D083B7362179B29
:10114000B3F1006F05D0142384F8463041F2010357
:101150004EE6042384F8463094F8453043F001030A
:1011600084F845300023636622E6042316AA20464D
:10117000CDE9007713A9FFF768FC41F203030D9056
:101180000D9A9A4201D00D9B32E6236D042B02D9B1
:10119000169B23660127636D032BE6D9092384F888
:1011A0004630E8E50023636607233DE79F42FFF4EE
:1011B000F8AD402B28BF40239F4228BF1F46012384
:1011C000032F88BF27F003070DF158084246CDE9E9
:1011D000003320463B4613A9FFF737FC41F20303D7
:1011E0000E900E9A9A4201D00E9B01E694F846208A
:1011F000072A27D1D5F808A0BAF1000F22D02B6812
:101200003A464146606ED047636E3B446366B7E53D
:1012100008F803B00133032BFAD9042FC7F1040AED
:1012200088BF4FF0000A092ABA440DD12B46524616
:1012300041462046FFF7BCFC0E900E9B002B3FF46E
:101240009FADD1E73B46E6E7042A25D1737898079E
:101250007FF596ADEB68002B3FF492AD636E042BE7
:1012600010D80AEB030106290CD917AFFF1A39462B
:1012700004F18400039201F067FAFF213846039AD3
:1012800001F06FFAEF68524641462B68606EB8472E
:10129000676E5744676673E50B2A7FF471AD737808
:1012A00059077FF56DADEF68002FECD168E594F834
:1012B000427017F0200707D0D4F88C00FFF7A2FB8C
:1012C000074600283FF442AF4FF0010A42E04BB31B
:1012D00047B33B6933B320469847DDE9143294F8AD
:1012E00040809B1A43448342FFF45BADD4E9142150
:1012F000A2EB0108B8F1400F28BF4FF04008984515
:1013000028BF984616AA43462046CDE900AA13A94D
:10131000FFF79BFB41F203030F900F9A9A4203D011
:101320000F9B65E50120D8E794F842309A0611D565
:10133000002F3FF40BAFD7F808B0BBF1000F3FF41C
:1013400005AF2B464246204616A9D8470F900F9B63
:10135000002BE5D1D4E9142194F84230914203F0F6
:101360002003B4D3002B3FF47CAD002F3FF479ADC4
:10137000FB68002B3FF475AD2946204698470F9037
:101380000F9B002B3FF46DADCAE74FF000618A6AF6
:10139000496B1269403A91423FF6D8AE112B0FD1FA
:1013A00094F81831002B7FF45CAD41F206031093E2
:1013B000109A9A4202D1142384F84630109B17E504
:1013C00094F84430002B7FF44CADCDE9003316AADD
:1013D0004023204613A9FFF738FB41F20303109086
:1013E000109A9A42EAD1E06C00F076F994F818313C
:1013F000A3B104F1B403E06C00931EAA04F19403BA
:1014000016A900F0D7F81090109B9BB10023F37041
:10141000142384F8463041F20603E9E4E76C00F057
:101420005FF9039000F07AF9039B00901EAA3846FA
:1014300016A9E6E70123F37084F8443011E5002390
:1014400016AACDE900332046042313A9FFF7FDFABD
:1014500041F203031190119A9A4202D0119B059315
:1014600014E5D4F88820294B9A4205D0142384F837
:10147000463041F20503F2E70123F37094F845305A
:101480009B0707D0EF682FB104222B68104604F1A8
:101490008401B847236E73B36B6863B34FF0FF33B7
:1014A00004F18001042212A81293029101F03CF988
:1014B00028B1D5E90037042202991548B84704F14C
:1014C00068090422494612A801F02EF998B14FF09C
:1014D00000639B6A1422D3F8108004F16C0108F1B8
:1014E0000800D5E90037B847D5E900370422494656
:1014F00008EB0200B8470123B3700E2384F846308E
:101500000023ACE741F20700C1E400BFE320BBDEEB
:101510000400050830B50824094B00255C66012449
:1015200003F5FE235C6001449D601A61DC60884223
:1015300001D1586A30BD10F8012B1A62F7E700BFDD
:1015400000900040F7B516464FF480621D460F4BE1
:1015500004469A6620300F46019000F0A1FFDDE9B5
:101560000812019800F0A0FF00230C2263643146AA
:1015700084F8587004F1590001F0E6F82B0C6DBAAC
:1015800084F86530A4F8665003B0F0BD00900040C8
:101590001FB50C46194600F14803CDE901420093FE
:1015A00000F1440200F15803203000F0F9FF04B0CC
:1015B00010BD00002DE9F04315464FF480621C4633
:1015C000364B99B0DDF880900E4607469A660028A3
:1015D00061D000295FD0002D5DD0002C58D0304B59
:1015E000304AB9F1000F14BF984690461C220021E2
:1015F00011A801F0B6F82C4B414610A8109300F04A
:10160000F2FE202110A800F0EEFE0122274B0194EB
:1016100002920393CDF810900592069354B1B9F15C
:10162000000F07D001A910A800F0C9FE04A910A856
:1016300000F0C5FE079701271C4C07A910A80897C2
:10164000099400F0BCFE0AA910A80A960B970C9406
:101650000D950E970F9400F0B2FE0DA910A800F0A2
:10166000AEFE10A800F0C8FE114B00934FF0984357
:101670005A6CD202FCD55B6D40F2046003F4702317
:101680000093009B002B08BF002019B0BDE8F08339
:10169000DFF81080AAE740F20160F6E70090004012
:1016A0001F2400801F24FC8400000106200000206D
:1016B000785634124FF4806210B50446044B9A6693
:1016C00000F0FCF82046BDE81040002100F0FAB818
:1016D0000090004000F0FBB8014600F005B90000A2
:1016E0004FF4806200B50B4B91B09A6669460023B7
:1016F00040224FF4807000F09DFEB0F5A02F07D07F
:10170000B0F5302F044818BF002011B05DF804FB7D
:101710000148FAE7009000404CE307084FF480626C
:1017200000B50B4B91B09A666946002340224FF4F6
:10173000807000F07FFEB0F5A02F07D0B0F5302FFD
:10174000044818BF002011B05DF804FB0148FAE717
:10175000009000406CE307080048704786E20708E5
:101760002DE9F34799460A9B0C46196805463F291F
:10177000164642D85A68002A41D0224A002E14BF89
:10178000B046904601F03F07091928BF5A68196012
:1017900024BF01325A60AFB1C7F1400AA24521D837
:1017A0002946524609EB070000F0CEFF01234146CF
:1017B00000934A463346002000F09EF8B046403C75
:1017C00055443C443F2C0CD9A3092A46009341467A
:1017D0003346002000F090F824F03F031D4404F04D
:1017E0003F0400272CB12246294609EB070000F0F0
:1017F000ABFF002002B0BDE8F0879046C2E7DFF8FB
:101800000480BFE72028000830B40546084611468A
:101810001A46DDE9023425B931B1029430BCFFF734
:101820009FBF024830BC70470846FBE780AFFFFF10
:101830002DE9F0431546146887B09946E3008DF80A
:101840000F30630956688DF80E30630B8DF80D303C
:10185000630D8DF80C30F30003EB54738DF80B30EF
:1018600004F03F047309372C8DF80A304FEA5633E1
:1018700094BFC4F13802C4F1780207468846CDE926
:1018800000158DF809300C490346760D00208DF8BF
:101890000860FFF7B9FF082143463A460DEB010007
:1018A0000095FFF75DFF20223946484600F04CFFC7
:1018B000002007B0BDE8F08340280008682200211E
:1018C00000F04FBF0023C0E900331846704707B54A
:1018D00000F128030190009300F108030020FFF7B6
:1018E00093FF03B05DF804FB02460B4600F12801AC
:1018F0000830FFF79DBF0000F0B517464FF4806237
:101900001D46254B93B00E469A66044620220021C0
:101910000AA800F026FF01204FF000520197029024
:101920000392049605900692079508900992002C60
:101930002FD1189C194BA40121460AA80A9300F044
:1019400052FD03990AA80C430394069B04A943F093
:1019500020030693099B43F02003099300F02FFD19
:1019600001A90AA800F02BFD07A90AA800F031FD83
:101970000AA800F041FD4FF098435A6CD202FCD502
:101980005B6D13F4702F0CBF00206FF06F0013B06D
:10199000F0BD6FF07100FAE7009000400004010311
:1019A0002DE9F041A0B0502204460D460CA80021BC
:1019B00000F0D7FE30220021684600F0D2FE6846D3
:1019C00000F074FA039B012B0ED800234FF0FF3276
:1019D00023600123AB4203D3002020B0BDE8F08197
:1019E00044F823200133F5E7AB426AD300F05EF9F7
:1019F000049B0C220CA90646DF6800F03BFB002884
:101A0000EBD1DFF8C8800C9B434516D10E9A0CA988
:101A1000304600F02FFB4FF0FF320E990CA8FFF775
:101A200079FD294B984233D04FF0FF3304EB850505
:101A3000A54213D044F8043BFAE737440C22384659
:101A40000CA900F017FB0028C7D10C9B43450BD015
:101A50004FF0FF3304EB8505AC4202D140F2055054
:101A6000BBE744F8043BF7E70CA938460E9A00F0B0
:101A700001FB049B3046D96800F02CFB0028ACD158
:101A800030460E9A0CA900F005FB0028BED0A4E752
:101A90000E9B2246103B9B08AB4228BF2B460FA94A
:101AA00004EB8300824207D14FF0FF32AB4293D266
:101AB00044F823200133F9E751F8046B42F8046B32
:101AC000F0E740F2045088E7E320BBDE39528FE1B3
:101AD000F0B5A1B00C464422002106460FA800F044
:101AE00040FE01232F4A0021CDE90C235023302250
:101AF00068460E9300F035FE684600F0D7F9039B68
:101B0000A3424CD3012B08D8336840F20450013370
:101B1000012B98BF002021B0F0BD00F0C7F8049B56
:101B2000102C214628BF1021DF68334605460744A4
:101B30000FAA06EB8100984226D14FF0FF331029FF
:101B400027D14C214FF0FF320CA8FFF7E3FCC04334
:101B5000049B1F90D968384600F0BCFA0028DAD1FF
:101B6000502238460CA900F095FA0028D3D1049BE6
:101B70002846D96800F0AEFA0028CCD15022284679
:101B80000CA900F087FAC6E753F8044B42F8044B5F
:101B9000D1E70CAA02EB8102D3600131CFE740F21A
:101BA0000450B8E739528FE130B59DB030220021A2
:101BB0000546684600F0D5FD684600F077F9039CBD
:101BC000012C1ED921460CA8FFF7EAFE18B140F2FD
:101BD000055398420ED100230CAA52F8041B481C4E
:101BE0000AD11CAA02EB8303214643F8405C0CA8EF
:101BF000FFF76EFF1DB030BDA94205D001339C42F6
:101C0000EBD140F20250F5E740F20350F2E700005A
:101C100010B5ADF50A7D4FF40A726946002000F058
:101C200067F940F201240021684600F09CF8A042C8
:101C3000F9D040F2032398421FD19DF80030590794
:101C40000CD49DF800309A071CD4DB0715D50399F6
:101C5000869800F0BFF980B1002010E00A98FEF7E6
:101C600057FC0028EDD0869800F072F90028E8D0E3
:101C70000D48FEF77DFC0028E3D140F205400DF54C
:101C80000A7D10BD4FF00062926A019992689142FC
:101C9000DBD9869800F07AF90028EED0099902483D
:101CA000FEF7EEFBE9E700BF0000050800487047BB
:101CB00000400408FFF7ACBF31B10A4B5A688242BA
:101CC00005D80023C1E9003340F2014070470130DC
:101CD00053F8302003EBC00043680A6000204B60DB
:101CE000704700BFE828000801221A707047000002
:101CF00070B40C4611460C4A556885420DD9013026
:101D000002EBC0067668E518B5420AD852F83000F2
:101D10001A46204470BC00F0ADB940F2014070BCDE
:101D2000704740F20240FAE7E828000830B5044660
:101D30000D46A3B0D0F8201202AA8023D0F81802D2
:101D4000FFF7D6FF80232146009502AA04F12C005C
:101D5000FEF7C2FFD4F82032C4F824028033C4F85E
:101D6000203223B030BD1FB50023CDE90033CDE9CB
:101D70000213D0F82432044693B9D0E987329A424C
:101D80000ED26946FFF7D2FFD4F8240298B141F28F
:101D9000070240F20123904208BF184604B010BD6C
:101DA000A3785BB140F2022040F20323E278002ADC
:101DB00018BF1846F2E740F20120EFE740F2022098
:101DC000ECE7000070B50D46002186B00DF1070369
:101DD00002931D4B04461646116028461C22CDE98D
:101DE00003338DF80710059300F0BBFC9DF8073016
:101DF00053B994F87230132B06D0D4F824321BB99F
:101E0000D4E987329A4217D323789A0744BF62688D
:101E10003260DB0705D51C22284604F1080100F0DA
:101E200093FC9DF8073063B9237840F20640002BFD
:101E300018BF002006B070BD204602A9FFF776FF4C
:101E4000D4E70020F6E700BFE91C000870B40C4698
:101E500011460C4A556885420DD9013002EBC00687
:101E60007668E518B5420AD852F830001A46204480
:101E700070BC00F00FB940F2014070BC704740F2F6
:101E80000240FAE7E8280008074B5A68824207D95F
:101E9000013003EBC002516853F8300000F01AB96A
:101EA00040F20140704700BFE828000870B50546C1
:101EB00088B0C0B14FF4003200236C46C0E9002363
:101EC0000A4B05F114061A785B680272C360684613
:101ED00000F0B2F80FCC0FC605F1140394E8070028
:101EE00086E807002B6108B070BD00BFE828000835
:101EF00037B50C46054611462046FEF757FC48B953
:101F000069462846FFF7D8FE20B9019BC4F818524D
:101F1000C4F81C3203B030BD38B500F5D8720446A1
:101F20000D46202300F5A4712C30FEF79DFED4F859
:101F300024321BB9D4E987329A4203D3A07800B186
:101F4000E07838BD29462046FFF7F0FEEFE70000B5
:101F500000B5ADF50F7D4FF40A7204A9FFF7C8FF75
:101F600078B904238DF81130074BCDE900000290B9
:101F7000694604A80393FFF7CFFF0DF50F7D5DF8C9
:101F800004FB0020F9E700BF910200084FF0006356
:101F900000B59B6AADF50F7D9B688B4204D3002092
:101FA0000DF50F7D5DF804FB4FF40A7204A9FFF7ED
:101FB0009FFF0028F3D102238DF81130044BCDE9A7
:101FC00000000290694604A80393FFF7A5FFE7E726
:101FD0009102000800B5ADF50F7D4FF40A7204A917
:101FE000FFF786FF78B901238DF81130074B009079
:101FF000CDE901300390694604A8FFF78DFF0DF588
:102000000F7D5DF804FB0020F9E700BF6F020008B8
:10201000B1F5002F0BD800F17843B3F5002F06D8A7
:102020000844044988428CBF0020012070470020EA
:10203000704700BF0000080870B504460646044D0E
:102040000FCD0FC495E8070084E80700304670BD47
:10205000CC2800084FF48032014B00209A6670476C
:1020600000900040024BD86900F00100704700BFAB
:102070000000034038B50C4611460546FFF7C8FF7F
:1020800028B12946204600F05FFB002038BD40F211
:102090000240FBE738B50D4611460446FFF7B8FF8E
:1020A00080B940F2024038BDE15801310CD104330F
:1020B0009A42F9D829462046FEF78CFC0028F0D039
:1020C0000020F0E70023F3E740F20340EBE74FF096
:1020D000FF30704738B541EA0003C3F30C030446F0
:1020E0000D469BB9FFF794FF48B12544204604F5FF
:1020F0000054FEF739FCAC4204D00028F6D140F27F
:10210000024038BD0028FAD00020FAE740F204402F
:10211000F7E700004FF48032014B00209A667047C9
:1021200000A00040430905D0012B0DD0022B094B24
:1021300018BF002300F01F0041B103F580530122B6
:1021400002FA00F018607047034BF3E703F5005301
:10215000F5E700BF6880004064800040F0B5114A98
:10216000114C124E00F00105E3695F0713D40DB95D
:10217000334213D103EA00078F4207D10B4A1A40BA
:10218000002A14BF6FF001000020F0BD013AEBD12E
:102190006FF00200F9E74FF0FF30F6E76FF0010053
:1021A000F3E700BF809698000000034002000100A2
:1021B00070B5134C6061E3695B071ED40E4656F898
:1021C000043B8D18A361AE420BD1042300212120D2
:1021D0002361FFF7C3FF58B9BDE870402120FFF726
:1021E000BDBF08210846FFF7B9FF10B104232361E2
:1021F00070BD56F8043BA361E5E74FF0FF30F7E709
:10220000000003404FF4803238B50E4B0E4C9A66F6
:10221000E56941F6713315400122E3630B4B002160
:10222000DA600223606121202361FFF797FF10B974
:102230002120FFF793FF0122054BDA600DB1002347
:10224000E36338BD009000400000034000100340ED
:10225000002003402DE9F84315464FF48032184B17
:1022600089469A6603F51C33DF690646174041F636
:102270007132DA63012203F58053DFF84C80DA60B3
:1022800055B9284601220F4BDA601FB10022A3F591
:102290000053DA63BDE8F88306F5005404EA080445
:1022A000A41BAC4228BF2C46494622463046FFF7C5
:1022B0007FFF0028E6D12644A1442D1BE0E700BFA4
:1022C000009000400020034000E0FFFF2DE9F04FA8
:1022D00006464FF430250120B400DFF8C0C004F1F9
:1022E000402404F58024CCF80400656030250024E7
:1022F0004FF48037DFF8A8E0DFF8A89005FB06E58B
:10230000EC652C662C67234CDFF89CA0A76641F691
:10231000713704F51C34D4F81C80E763E76800FAD1
:1023200006F60743E7604BB9E26818F4803F22F0F5
:102330000102E26000D0E363184628E001F5005096
:1023400000EA0900401A984228BF18466161D4F893
:102350001CB087081BF0040F17D1013F3F0147F065
:1023600060576F66AA66C5F86CA0CCF82460DEF8EA
:1023700034703E42FBD0084F01447E630427CCF802
:102380002860024427611B1ACDE74FF0FF30BDE8FB
:10239000F08F00BF00900040002004400010044077
:1023A0000000044000E0FFFF180003404FF0984396
:1023B0005A6CD202FCD5586D00F470207047436807
:1023C00013B9416070475B685A68012AFBD15960B4
:1023D0007047836813B9816070475B685A68012A47
:1023E000FBD159607047C369032B9FBF00EB830289
:1023F0000133D160C3617047C369042B15D84FF016
:102400009842116CC902FCD504339B001365016826
:10241000103B116041680C30116050F8041C0344FB
:1024200011604FF09842984200D1704750F8041B59
:102430001160F8E7F0B507460F4D10488DB0002B3E
:1024400008BF05460E46144600211C2205A800F0D0
:1024500088F9012304A801A93D4344F000540196E2
:10246000049502930394FFF7B4FFFFF7C5FFFFF74E
:102470009DFF0DB0F0BD00BF01000AFF010008FF85
:102480004FF48062014B00209A6670470090004034
:102490004FF48062014B00209A66704700A0004014
:1024A0002422002100F05DB970B515460E462422A5
:1024B0000021044600F055F925F04003802B02D09E
:1024C000B5F5807F08D12046314640F8045BEA0824
:1024D00000F03AF9002070BD6FF01F00FBE700002C
:1024E0002DE9F04104681E4624F04003802B054688
:1024F0008846174692B002D0B4F5807F43D11C22A3
:1025000000210BA800F02DF9224A234B0121B8F13C
:10251000010F18BF13460A932B1D0193E4081F4BAC
:1025200044F0005402910AA803940497059106937D
:102530000796089101A90993FFF741FF04A90AA88A
:10254000FFF73DFF07A90AA8FFF743FF29680AA87C
:10255000C908FFF748FF10210AA8FFF744FFFFF75B
:102560008FFF98B90AA8FFF747FF4FF098435A6CBE
:10257000D202FCD55C6DFFF78BFF04F4702420467B
:1025800012B0BDE8F0816FF07100F9E74FF0FF3055
:10259000F6E700BF00010104000100041000002064
:1025A0002DE9F04F9BB00746894698461646DDF860
:1025B00094B072B115683B6823F04002802A03D0C2
:1025C000B3F5807F40F0A6800BEB09030024009355
:1025D0000DE01546EFE795B1249A1BF80430525DE3
:1025E00001355340269A05F00F05135501344C452B
:1025F000F1D3002E00F091800020356067E0A9EB58
:10260000040ABAF10F0F57D91C22294613A800F06B
:10261000A8F8434B3A6812933B1D03930123D20859
:1026200042F00052049305923E4A2699CDF8188054
:102630002AF00F0A07930892CDF824800A930B9290
:102640000BEB04020C9221444AF000520D9312A8A5
:102650000E920F9103A910931192FFF7B0FE06A9F5
:1026600012A8FFF7ACFE0CA912A8FFF7A8FE0FA94D
:1026700012A8FFF7AEFE09A912A8FFF7AAFE396853
:1026800012A8C908FFF7AFFE514612A8FFF7ABFE2C
:10269000FFF7F6FEC8B912A8FFF7AEFE4FF0984359
:1026A0005A6CD202FCD55B6D544403F47023019341
:1026B000FFF7EEFE019B5BBB269B0BEB040A1C4461
:1026C000009B9A4506D14C4691E74FF0FF301BB076
:1026D000BDE8F08F8DB9424601213846249BFFF7B3
:1026E000FFFE0028F3D108F1100212F8013D01337A
:1026F000DBB213700BB99045F7D1249A1AF8013B5D
:10270000525D0135534004F8013B05F00F05D7E752
:102710001846DCE76FF01F00D9E73046D7E700BF67
:1027200003030004100000200139024410B5904258
:1027300001D1002005E0037811F8014FA34201D038
:10274000181B10BD0130F2E70A44431E914200D12C
:10275000704710B511F8014B914203F8014FF9D1C0
:1027600010BD02440346934200D1704703F8011B99
:10277000F9E70000F8B500BFF8BC08BC9E467047FA
:10278000F8B500BFF8BC08BC9E467047B814B6F157
:10279000E0CFF3ADB7DD25C9FA79B713000000002B
:1027A00007B0CD5E01000000030000020429000014
:1027B0000060000800A00408F0000100DD0500082A
:1027C000E105000871030008AD070008DF070008F5
:1027D0008028000819080008870800080000000089
:1027E00013B779FAC925DDB7ADF3CFE0F1B614B868
:1027F000010100000000000000290000400000006E
:1028000003000002000000000000000000000000C3
:1028100000000000000000000000000000000000B8
:102820006A09E667BB67AE853C6EF372A54FF53A61
:10283000510E527F9B05688C1F83D9AB5BE0CD198D
:102840008000000000000000000000000000000008
:102850000000000000000000000000000000000078
:102860000000000000000000000000000000000068
:102870000000000000000000000000000000000058
:1028800000010000AD1E0008B91C0008F11C000882
:102890004D1E0008891E0008D11A0008A119000861
:1028A000A91B0008F11E0008671D0008C51D0008CF
:1028B000652000087520000895200008D520000834
:1028C000CF200008454652333200000001020300C9
:1028D0002800000028000000002000000000080080
:1028E000C4280008040000000100000001000000EE
:0828F000004004080000030091
:0828F8009501000871010008C0
:04000005080001B539
:00000001FF
