:020000040800F2
:1060000000100020396B0008356B0008C1EE000855
:10601000C9980008356B0008356B0008356B00081F
:10602000356B0008356B0008356B000841520108DC
:10603000356B0008A0350308D1510108A7310108CC
:1060400075700008356B0008356B0008356B00086B
:10605000356B0008356B0008356B0008356B0008A0
:10606000356B0008356B0008356B0008356B000890
:10607000356B0008356B0008356B0008356B000880
:10608000356B0008356B000805A70008A5F000086F
:10609000356B0008356B0008356B0008356B000860
:1060A000356B0008356B0008D5740008B174000822
:1060B000356B0008356B0008D9E00108E5EA0108F6
:1060C0009DEA010899EA0108B1E20108E1EA010844
:1060D000A1EA0108B9EA0108A5EA010869EB01088B
:1060E00049EB0108356B0008356B0008356B00087B
:1060F000356B000841970008356B0008356B0008C8
:10610000356B0008356B0008356B0008356B0008EF
:10611000356B0008356B0008B52F0308356B000898
:10612000356B0008356B0008356B0008356B0008CF
:10613000356B0008356B0008356B0008356B0008BF
:10614000356B0008356B0008356B0008010E01083F
:10615000356B0008356B0008356B000805CB01086E
:10616000356B0008356B00082DAF010833AF01080F
:1061700010B5054C237833B9044B13B1044800E043
:1061800000BF0123237010BD601500200000000037
:10619000F0AB030808B5034B1BB10349034800E00B
:1061A00000BF08BD0000000064150020F0AB03082C
:1061B000A3F5803A704700BF174B002B08BF134B65
:1061C0009D46FFF7F5FF00218B460F461348144A02
:1061D000121A00F063F80E4B002B00D098470D4BBD
:1061E000002B00D098470020002104000D000D482E
:1061F000002802D00C4800E000BF00F02BF820007F
:10620000290000F024FB00F011F800BF0000080096
:1062100000000000000000000010002060150020B9
:1062200084C20020000000000000000008B5074BF9
:10623000044613B1002100E000BF054B1868836AD3
:1062400003B1984720462DF047F900BF0000000039
:106250002835030870B50D4D00260D4C641BA410A5
:10626000A64209D10B4D00260B4C2DF041F9641BC1
:10627000A410A64205D170BD55F8043B01369847DD
:10628000EEE755F8043B01369847F2E75815002031
:1062900058150020581500205C15002002440346C4
:1062A000934200D1704703F8011BF9E710B50B4B7F
:1062B000B8B01B685C680022694620460DF04CFCB3
:1062C000012801D038B010BD9DF80030802BF2D1EC
:1062D00005F060FB694604F05DFBECE7A0150020CB
:1062E000012308F049BE000007B50021084604F06C
:1062F0005BFA08F003FF0022114B12481A7007F0F6
:106300000FFD114804F0DAFB0DF1070025F0C6FE81
:106310009DF8070005F071FB68B19DF807200B4B55
:106320001A72022201210A4B0A4820F031FB002098
:1063300003B05DF804FB084825F0BAFEF1E700BFA2
:1063400096100020E162000808160020601000206E
:1063500048350308656400086810002000B5C3785C
:106360008BB0012B0DD1442300208DF804302AF08E
:1063700091FB054B4FF4FA721B6801A9986825F050
:1063800038FB0BB05DF804FBA0150020014B18781A
:10639000704700BF04160020014B1878704700BFFB
:1063A000041600200020704700207047014B187829
:1063B000704700BF04160020014B1878704700BFDB
:1063C000041600200020704707B50648012300216D
:1063D00001AA00682AF086FD9DF8040003B05DF86C
:1063E00004FB00BF081600200246034801230021D9
:1063F00000682AF0D3BD00BF08160020002840F234
:10640000024018BF0020704782B06B4683E803004B
:1064100093E8030002B006F0FFBB70470368044A2C
:10642000136043685360836810469360704700BFF1
:106430007E150020FFF7F2BF0023038002230B80AC
:106440007047F8B51C4607460E4615462AF07EFAF8
:1064500001233B70337028702046BDE8F8402AF0D5
:1064600077BA000037B5044601202AF013FB0EF07E
:10647000B3F9204D204B28601C6004F0C3F921467D
:10648000002400231D4A286805F014FA01211C4B42
:106490001C4A009405200DF001FA1B4B01462A68A6
:1064A00018600323194825F0A0FA184805F07EF873
:1064B00005F0A6F8712005F07FF808F09FF908F0C4
:1064C00057FD204608F0DAFD22462146204607F017
:1064D0008DFE234604210E4A0E4825F00DFA0D4C80
:1064E00000224FF0FF31204625F015FA0130F7D198
:1064F00003B030BD90150020A015002048350308DA
:10650000B41500208A150020B0150020A415002025
:106510005C3503089415002008B5054B187810B9B0
:1065200008F07AF908BDFF28FCD10120F8E700BF88
:106530000416002010B5054B054C18702070FFF7AD
:10654000EBFF2046FFF750FF012010BD041600208E
:106550007C15002013B50C4C0120216806F0DCF8F6
:10656000002211461046FFF7E5FF05F0D3F92AF0A7
:1065700005FA042301904FF4A22120680DEB0302D9
:106580002AF00CFD02B010BD0816002010B5234BF8
:10659000A2B01B68DC680022204601A90DF0DCFADD
:1065A000012801D022B010BD9DF80430C32B0FD0BC
:1065B000C42B30D0C02BEED19DF80C30002BEAD08C
:1065C000029B002BE7D09DF80D0004A99847E2E755
:1065D0009DF808308BB905F0EFF938B9FFF7BAFF2D
:1065E000322004F0E9FF04F09FFFD4E705F0CAF978
:1065F00004F0EAFE0028F1D1F2E7052B03D1742064
:1066000004F0DAFFC7E7072B01D13220F8E7082BA7
:10661000C1D13020F4E77320F2E700BFA0150020BD
:1066200008B5044B18682AF00DFDBDE80840FFF7D7
:1066300091BF00BF08160020042337B50E4D4FF45C
:10664000A22128680DEB03022AF04CFC044670B925
:106650002AF094F9FFF7B8FE084B29681870084B28
:106660001870204606F058F8012003B030BDFFF73F
:10667000D7FF0020F9E700BF081600207C15002096
:106680000416002010B5084A084C1378FF3B18BFC9
:106690004FF0FF33DBB223701370FFF73DFF20464E
:1066A000BDE81040FFF7A0BE041600207C150020B6
:1066B000762838B50446544D01D0302806D103233E
:1066C00072202B7004F078FF06F090FB2B78032BE0
:1066D00027D8DFE803F002215291732C0AD1FFF78B
:1066E0009FFF00210122084606F092FE012372203E
:1066F0002B700DE0712CF4D1FFF79EFF05F088FBA5
:106700000021424804F08AFE042004F0B1F9702010
:10671000BDE8384004F050BF722C03D1002008F0CF
:10672000ADFC38BD732C4CD0752C06D1384B1B6892
:106730009B691B788BB9012010E0312CF6D0772CA7
:1067400014D1FFF79FFF3348FFF768FE012201468F
:106750003148BDE8384004F0A7BF032004F088F9B1
:10676000022372202B7004F027FFE8E7782CD8D1A1
:10677000BDE83840002004F08CB9722C04D1BDE88B
:106780003840022008F07ABC732C1AD0752C1ED128
:10679000002004F06DF9002008F070FC042004F0E3
:1067A00067F9012372202B7004F006FF08F074FCD7
:1067B00008B907F0A7FA01221849194804F074FF34
:1067C00007E0FFF72DFFBDE83840FFF735BF332C5A
:1067D000DED0322CA5D1042004F04AF90123722026
:1067E0002B7004F0E9FE08F057FC08B907F08AFAAC
:1067F00001220A490A48ACE7732C92D1FFF710FF37
:10680000BDE838402AF090B896100020981000207B
:10681000A01500200C16002019CC00086A100020DA
:1068200069DC000813B5084C002220680DF107014F
:106830000DF092F9012801D002B010BD9DF80700BB
:10684000FFF736FFF0E700BFB0150020704708B52E
:1068500003F074FFFFF7FAFF03F07DFF002008BD8F
:1068600000F0AFB808B50321802001F081FD0321BD
:106870004FF4806001F07CFD0A214FF4C06001F00C
:1068800077FD0A214FF4F06001F072FD0A213E20ED
:1068900001F06EFD0A212D2001F06AFD0A21512030
:1068A00001F066FD002008BD4FF480302749284ADA
:1068B0004B6E10B55066486E4FF000414AF6CD342D
:1068C0005166244903F480334A6C0C6402F00102DF
:1068D0004C6BE407FCD401241F494C601D4C216B18
:1068E000C907FCD51D49D1F8081689075EBF4FF4CA
:1068F00080241949CC6512B1164A1949116400283F
:10690000A2BF4FF00041174A51661BB94FF48032C5
:10691000144B5A6602F032FE00F067F802F0CCFD2C
:1069200002F04AFE02F0F4FDFFF79CFF02F0DCFDEE
:1069300000F050F800F068FB00F0DEFD0CF040FCC9
:1069400029F05CFFBDE8104003F054B8008000500F
:1069500000900050004009500060095000C00750EE
:106960003254FFFF00A000500CF054BC08B500F0FA
:10697000FDFC00F073FDBDE8084000F03AB808B532
:1069800000F01DF803F04AFC02F018FE0BF01EF9AF
:1069900002F0ECFEBDE8084009F0A6BB08B502F025
:1069A0007FFDBDE8084029F035BF704708B50123D9
:1069B00004221846002102F009FB002008BDFFF761
:1069C000F5BF08B5002304221946012002F0FEFAA3
:1069D000002008BD08B501213A2001F0DBF8FFF7DF
:1069E0003FFFBDE8084000F007B801213A2001F060
:1069F000D1B8082000F00ABD2DE9F041484C8EB016
:106A0000264601AD0FCE0FC5336814342B6006AD9A
:106A10000FCC0FC594E80F0085E80F0001213A2044
:106A200001F0B8F80121572001F0B4F84FF4807359
:106A30003C4EADF81C303C4B3046039301A906ABED
:106A4000059302F08FF9012304221946022002F077
:106A5000BDFA022100230846012202F0B7FA012301
:106A600004220321022002F0B1FA0422012311467C
:106A7000022002F0ABFA2D4C2D4B1025C4F8F8344F
:106A80004FF00213C4F8F434A3F58033C4F8FC3497
:106A90001C2304F50058C4F8E4344FF4487003F0A4
:106AA0005DFE04F580571420C8F8A05003F056FE90
:106AB0002320C7F8A05003F051FEB9213046C8F892
:106AC000A05002F0CEF8002301211A460220C7F898
:106AD000A05002F07BFA002302211A46084602F079
:106AE00075FA012300220321022002F06FFA01232C
:106AF00000220421022002F069FA304602F084F8F4
:106B000000215720C4F8F814C4F8F414C4F8FC1495
:106B1000C4F8E41401F03EF80EB0BDE8F08100BF07
:106B20006C35030800000A50E070720000C003508A
:106B300002000300FEE7000008B500F02DF8124B3C
:106B400012498B4212D30020114B12498B4218D3A9
:106B5000FFF732FB186850F82240586840F822408E
:106B6000013298688242F5D30C33EAE70022F8E755
:106B70001C6844F8220001325C68A242F8D3083352
:106B8000E4E70022F8E700BF90AE03089CAE0308DC
:106B90009CAE03089CAE03084FF480414FF0FF30D9
:106BA000114B124A10B59A60D3F8882042F4700253
:106BB000C3F888200E4A91660E4901F5005210660E
:106BC0000D4850660220C3F8D000BFF34F8FBFF3CB
:106BD0006F8F01244FF440330848C0F88041D360E0
:106BE00004600B6110BD00BF00ED00E00060000814
:106BF00000900050008000447FFF7F0100E100E032
:106C0000014B1868704700BFB4100020084B1B6F81
:106C100003F00703022B04D0032B05D0012B05D072
:106C2000FEE7044B18687047034BFBE703487047C7
:106C300000800050B4100020B8100020002D310159
:106C400008B5FFF7E3FF054B1B6FC3F303330133B5
:106C5000B0FBF3F0024B186008BD00BF008000508D
:106C6000B01000200048704700B4C404014B1868FD
:106C7000704700BFB8100020054B1860054B1B6F14
:106C800003F00703032B01D1FFF7DABF704700BF02
:106C9000B810002000800050002070470048704766
:106CA000002D31014FF0B4439868C0F304400C2824
:106CB00022D8DFE800F0092121212121071719211D
:106CC0001B1D1F000F4870479B6803F04073B3F112
:106CD000807F13D0B3F1007F12D00B4A002B08BF86
:106CE000104670470948704709487047094870477F
:106CF00009487047094870470020704708487047A6
:106D000008487047405DC60000093D000024F400BB
:106D1000C0EA210180BA8C010048E801005A6202F1
:106D200080841E0040420F004FF4004070474FF433
:106D30007A707047014B1868704700BFBC10002084
:106D4000BFF34F8F0549064BCA6802F4E062134354
:106D5000CB60BFF34F8F00BFFDE700BF00ED00E049
:106D60000400FA054FF000639B6A03F17842B2F524
:106D7000C04F03D21968064A914203D00023037022
:106D800083607047012202709A689B694260F7E74E
:106D900007B0CD5E08B54FF00053024A1A60FFF706
:106DA000CFFF00BF02020FF030B54FF00065AB6AB5
:106DB00087B003F17843B3F5C04F0446019110D278
:106DC00001238DF80C30002303A8CDE90433FFF72D
:106DD000C9FF059B5B0504D5AB6A20461B6C019976
:106DE000984707B030BD000073B54D4B04461A7884
:106DF0001AB102221A7002B070BDCDE9002200283B
:106E0000F9D001261E7001F000FD464D464B18607A
:106E100015F04EFE2B785BB900F06EFB40B943488D
:106E20000823434A4349006810F042F800B92E7025
:106E3000414B5A6E22619B6E404A63614FF480431E
:106E400093663F4B5968A1613E499960196E216074
:106E5000596E6160196CA160596CE1603A49086C27
:106E60001864496C5964012151661B6E9C043FD51E
:106E7000364AD368D807FCD4354B1A68531C3CD02B
:106E80004FF480139340334A13660423314C236636
:106E90004FF40073236600F00BFA01300BD000F0C2
:106EA00007FA40F2011398421FBF4FF400532366C4
:106EB0004FF4804323660823264C684623664FF42C
:106EC000805323664FF0006323664FF4000301A94B
:106ED0006366FFF769FF009B2366019B63662B785F
:106EE000002B88D0124B1A6822665B68636682E7C3
:106EF000194AD368D907FCD4BEE7184B1B78002B7E
:106F0000C3D14FF400720D4B5A6603F5A6235B689C
:106F1000002BBAD14FF480120E4B1A66B5E700BFB2
:106F20003E1600203C16002040160020C410002011
:106F300034160020007108000080005000900050BE
:106F40000080004455CEAC0000C000540000044056
:106F5000C010002000900044000004503D160020A6
:106F600070B5204D04462E78012E02D001232B70DF
:106F700070BD0028FCD000F09BF901300BD000F070
:106F800097F940F20113984205D0174B174A5E66F5
:106F9000D368DE07FCD42268154B1A6662685A660D
:106FA000A2681A64E2685A64A269D00744BF00224A
:106FB0009A60104B1A68013207D10F4A127822B931
:106FC0000E494968C90748BF1A6022690C4B5A66C6
:106FD00062699A6615F088FD0A4B186801F01BFC7F
:106FE0000023C4E73E16002000900040000004404B
:106FF00000800044C01000203D16002000C0055055
:10700000008000504016002070B54FF00064A36A65
:1070100003F17843B3F5C04F1DD2114E337813F00E
:10702000FD0F1BD10F48FFF7DFFE01254FF4803322
:107030000D4A0E49C2F88051CB6015600C4A1361AD
:10704000A36ADB69984704460648FFF789FF04B93D
:107050003570204670BD4FF48174FAE70024F8E7DC
:107060003D1600201816002000E100E000A00044BA
:107070000090004413B51F4B1B7803B9FEE70023B3
:107080001D4CCDE900336A4608231C4920680FF0E7
:107090000FFFF0B91A4AD2F84031D2F840211F2B25
:1070A0004FF0010310D9203A9340019A1343019302
:1070B00008236A46114920680FF0B0FE4FF00053D4
:1070C000104A1A60FFF73CFE9340009A1343009366
:1070D000EEE70D4B9842F1D1094AD2F84031D2F88F
:1070E00040211F2B4FF0010302D9203A9340DEE7E5
:1070F0009340ECE73E160020C41000200071080009
:10710000008000440B020FF00BE000F04FF0006332
:107110009B6A03F17842B2F5C04F07D21B6B03F1B3
:107120007842B2F5C04F01D29B6818474FF4817086
:107130007047000038B54FF00065AB6A044603F1B4
:107140007842B2F5C04F13D21B6B03F17843B3F50D
:10715000C04F0DD20848FFF747FEAB6A20461B6BB5
:107160005B69984704460448FFF7FAFE204638BD9D
:107170004FF48174FAE700BF4416002037B54FF092
:107180000065AB6A044603F17840B0F5C04FCDE925
:10719000002112D21B6B83B10948FFF725FEDDE900
:1071A0000021AB6A20461B6B5B6A98470446044883
:1071B000FFF7D6FE204603B030BD4FF40174F9E767
:1071C0004416002037B54FF00065AB6A044603F162
:1071D0007842B2F5C04F019115D21B6B03F1784391
:1071E000B3F5C04F0FD20948FFF7FEFDAB6A20464A
:1071F0001B6B01999B6A984704460448FFF7B0FE51
:10720000204603B030BD4FF40174F9E74416002066
:107210004FF0006370B59B6A0D4603F17843B3F5F8
:10722000C04FADF50E7D17D24FF40E726946FFF7D1
:10723000A5FF044660B940F2012629466846FFF7DB
:10724000C1FFB042F9D040F20323984218BF044670
:1072500020460DF50E7D70BD4FF40174F8E7000077
:1072600037B54FF00065AB6A044603F17840B0F5DE
:10727000C04FCDE9002116D21B6B03F17843B3F563
:10728000C04F10D20948FFF7AFFDDDE90021AB6A1E
:1072900020461B6B9B6B984704460448FFF760FE33
:1072A000204603B030BD40F20114F9E74416002037
:1072B0001FB54FF000639B6A03F17842B2F5C04FEF
:1072C00004D340F2011005B05DF804FB1B6B03F121
:1072D0007843B3F5C04FF4D201238DF80430002376
:1072E00001A8CDE90233FFF73DFD039BDB03E8D5A1
:1072F000029B1A0EE5D0012A03D1C3F307430A2BE0
:10730000DFD94FF000639B6A1B6B1B6C9847DAE771
:1073100037B54FF00065AB6A044603F17842B2F529
:10732000C04F019115D21B6B03F17843B3F5C04FE9
:107330000FD20948FFF758FDAB6A20461B6B019935
:10734000DB6B984704460448FFF70AFE204603B06B
:1073500030BD40F20114F9E7441600200023036019
:10736000704703680B6001607047000008B5012199
:107370003A2000F00FFC032101230422002001F039
:1073800025FE002001F0C9FD0122194B4FF4607069
:10739000C3F8442400F01AFC164B00F5D520D3F8AE
:1073A000F02000F2FC4042F00102C3F8F020D3F8D4
:1073B000FC2042F08072C3F8FC200F4AA3F55D4325
:1073C0001A600E4B0222B0FBF3F00D4B013818612E
:1073D000C3F8F0204FF48072C3F804234FF06043E9
:1073E000084A0020C3F8B02F074AC3F8802E08BD12
:1073F00000D0035000ED00E0FF030040F8590D00FD
:10740000000004E055CEACC5090001004FF0604219
:107410000123D2F8001E03FA00F00843C2F8000E60
:107420000020704770B5044601250B4E04B970BDAD
:1074300094FAA4F0B0FA80F005FA00F306EB00121B
:1074400024EA03045368002BF0D0117B11B191683A
:107450009847EBE79847E9E76016002008B51A203F
:1074600001F0E6F928B14FF08062074BC3F88021A4
:107470001A601B2001F0DCF928B14FF00062024BCA
:10748000C3F880211A6008BD00E100E038B5054668
:107490000C4601F0BAF90022044B03EB05135C60C3
:1074A0001A73BDE8384001F0B6B900BF601600207D
:1074B000074BD3F82404D3F8202403F500531040DD
:1074C00000F0553020F05020C3F82004FFF7AABF89
:1074D00000C00350074BD3F82404D3F8202403F54D
:1074E0000053104000F0AA3020F0A020C3F8200480
:1074F000FFF798BF00C00350024B1968024B186891
:107500000FF0B6BBC8100020C41000207047000068
:1075100037B5920004460D4601922BF0FDFF431C47
:107520000BD060B929462046019A2BF053FF002862
:10753000044808BF002003B030BD0348FBE7034800
:10754000F9E700BF10E000F021E000F024E000F0D7
:1075500013B5044601A801F085FE9DF8063001220E
:1075600023804FF4807300206380054B9B680A33AF
:1075700003F01F0302FA03F3636002B010BD00BF03
:107580000080E00F01F014BE08B501F001FE0020FC
:1075900008BD10B5044644EA010313F0030308468E
:1075A00009D1934201D1002010BD54F8231040F8B6
:1075B00023100133F5E7214692002BF01BFFF2E781
:1075C00010B504462BF0A0FF431C15D0B0B90C4BEE
:1075D00020469B680A3303F01F020123934023F0E7
:1075E00003032344984201D1002010BD50F8042B1E
:1075F0000132F7D00348F8E70348F6E70348F4E719
:107600000080E00F0EE000F021E000F024E000F048
:1076100008B501F0F3F8014B186008BDD01B00203D
:10762000014B186801F0EEB8D01B00200A46013962
:10763000014402F0F7B80000034B5A6812B19A6A8D
:10764000002AFAD1704700BF00400650426810B5CA
:10765000B2FA82F2144CC2F11F0163680BB1FFF75A
:10766000EBFF0122114B5A60636813F00203FBD158
:10767000027A002A14BF02240024427842EA01124E
:10768000094922438A60427A0124002A18BF022352
:10769000827A13434B62064B5C60037813B1FFF7A9
:1076A000CBFFCC6010BD00BF00400650006006500C
:1076B00000500650044B9A6AD006FCD419639A6AAB
:1076C000D206FCD4704700BF00400650014B186B37
:1076D000704700BF0040065008B5FFF7ADFF02231A
:1076E0000449CB6000230B62FFF7A6FF0123CB60A8
:1076F00008BD00BF00400650044BD3F88420D206DA
:10770000FBD4D3F88400C0F38110704700400050D0
:1077100038B5174B0546D3F820310C4603F0070364
:10772000013B052B20D8DFE803F0030B130F171BD9
:10773000FFF766FA052305B1286004B1236038BD60
:10774000FFF794FA0323F6E7FFF7ACFA0723F2E713
:10775000FFF7A4FA0223EEE7FFF752FA0623EAE75F
:10776000FFF784FA0423E6E700231846E3E700BFA7
:107770000080005038B5174B0546D3F828310C4629
:1077800003F00703013B052B20D8DFE803F00313C8
:107790001B0F0B17FFF734FA052305B1286004B15E
:1077A000236038BDFFF72CFA0623F6E7FFF77AFAD5
:1077B0000723F2E7FFF75AFA0323EEE7FFF756FA3B
:1077C0000423EAE7FFF76AFA0223E6E700231846F4
:1077D000E3E700BF0080005073B50D460021114B58
:1077E0000191D3F88041064604F00304022C13D023
:1077F000032C0CD0012C13D101A8FFF789FF0F2413
:107800000EB1019B336005B12C6002B070BDFFF773
:1078100049FA07240190F3E7FFF740FA0190EFE7F8
:107820000C46EDE700800050002337B50193154B5F
:107830000546D3F820320C4603F00703013B032B27
:107840001ED8DFE803F0020E1318002101A8FFF78D
:1078500091FF11230DB1019A2A6004B1236003B096
:1078600030BDFFF71FFA07230190F3E7FFF75CFA3B
:107870000A230190EEE7FFF75DFA09230190E9E79B
:107880000023E7E70080005038B5104B0546D3F8D9
:1078900040310C4603F00303022B0BD0032B0DD019
:1078A000012B0FD1FFF740FA0A2305B1286004B17C
:1078B000236038BDFFF73EFA0923F6E7FFF737FAF2
:1078C0000B23F2E700231846EFE700BF00800050CB
:1078D000002337B50193164B0546D3F860320C46AA
:1078E00003F00703013B032B1FD8DFE803F0020E70
:1078F0001914002101A8FFF70BFF0F230DB1019A06
:107900002A6004B1236003B030BD002101A8FFF755
:10791000BBFF1023F2E7FFF7C5F907230190EDE75E
:10792000FFF7BCF902230190E8E70023E6E700BF78
:107930000080005038B5134B0546D3F800320C4692
:1079400003F00703013B032B18D8DFE803F0020A1A
:107950000E12FFF7E9F90A2305B1286004B123608C
:1079600038BDFFF7E7F90923F6E7FFF7E0F90B2346
:10797000F2E7FFF765F90E23800AEDE700231846CA
:10798000EAE700BF0080005038B5134B0546D3F836
:1079900008320C4603F00703013B032B18D8DFE83D
:1079A00003F0020A0E12FFF7BFF90A2305B128609F
:1079B00004B1236038BDFFF7BDF90923F6E7FFF7EF
:1079C000B6F90B23F2E7FFF73BF90E23800AEDE748
:1079D00000231846EAE700BF0080005038B5104B7E
:1079E0000546D3F840320C4603F00303022B0BD0BC
:1079F000032B0DD0012B0FD1FFF796F90A2305B108
:107A0000286004B1236038BDFFF794F90923F6E735
:107A1000FFF78DF90B23F2E700231846EFE700BFCD
:107A20000080005038B5104B0546D3F850320C4654
:107A300003F00303022B12D0032B08D0012B0AD032
:107A40000023184605B1286004B1236038BDFFF754
:107A50006EF90B23F6E7FFF767F90A23F2E7FFF762
:107A600069F90923EEE700BF0080005038B5104BDC
:107A70000546D3F860310C4603F00303022B0BD00C
:107A8000032B0DD0012B0FD1FFF74EF90A2305B1BF
:107A9000286004B1236038BDFFF74CF90923F6E7ED
:107AA000FFF745F90B23F2E700231846EFE700BF85
:107AB0000080005070B5054614460E4600F09EFE4C
:107AC000296881EA040202EA06044C402C60BDE801
:107AD000704000F097BE0000B0F5207F1FD009D89D
:107AE000B0F5007F15D003D868B1B0F5C07F0AD0DB
:107AF00000200CE0B0F5607FFAD10B4BD3F880008A
:107B0000C0F3011003E0084B186FC0F303300130DD
:107B10007047054BD3F89000C0F30460F7E7024BC1
:107B2000186FC0F38020F2E70080005002464FF447
:107B30008030104B10B598660020FFF7CDFF504302
:107B400041F671320C4BDC69DA635A6804F4803414
:107B500022F4401259B9094988428CBF4FF4801071
:107B60000020104358600CB10022DA6310BD0449B4
:107B7000F2E700BF0090005000000350005A62027C
:107B8000002D310108B5FFF76DF8BDE80840002170
:107B9000FFF7CCBF430905D0012B0DD0022B094BB9
:107BA00018BF002300F01F0041B103F580530122EC
:107BB00002FA00F018607047034BF3E703F5005337
:107BC000F5E700BF68800050648000501FB5044690
:107BD0000020B4F5807F019000F0F4806AD8002C7A
:107BE00000F0D480203C602C74D8602C72D8DFE880
:107BF00014F0CD00D000CD00D000DF00DF00DF00AA
:107C0000DF00DF00D000E4007A00FA009A007A007A
:107C1000D000D000D00071007100710071007100BF
:107C200071007100FA00D000D000D0002601FF00E2
:107C3000D00071007100710071007100710071005D
:107C4000710071007100710071000401DF00CD004E
:107C5000CD00CD00AD007A007A00B50009018F009B
:107C6000C400C400710071007100710071007100E6
:107C7000710071007100710071007100710071007C
:107C8000710071007100710071007100710071006C
:107C9000710071007100710071007100710071005C
:107CA000710071007100710071007100710071004C
:107CB0007100C900B4F5E06F00F09A8038D8B4F5CF
:107CC000607F70D01AD8B4F5007F6CD005D8B4F5B9
:107CD000C07F5BD0019804B010BDB4F5207F58D0B0
:107CE000B4F5407FF6D1FEF7ABFF02464FF42070AB
:107CF000FFF7F2FEB2FBF0F0400845E0B4F5B06FDC
:107D00005BD00AD8B4F5806F52D0B4F5A06FE1D142
:107D1000002101A8FFF788FDDCE7B4F5C06F62D051
:107D2000B4F5D06FD6D1002101A8FFF703FED1E74B
:107D3000B4F5286F66D016D8B4F5186F5DD00AD8A0
:107D4000B4F5F06F7BD0B4F5106FC3D1002101A85A
:107D5000FFF71AFEBEE7B4F5206FBBD1002101A8E2
:107D6000FFF7B6FDB6E7B4F5306F59D0B2D3B4F52E
:107D7000386F38D0B4F5406FACD1002101A8FFF7BF
:107D8000F9FCA7E7FEF742FF0190A3E7FEF758FFD3
:107D9000FAE7FEF755FF02464FF42070FFF79CFE0E
:107DA000B2FBF0F0F0E7FEF731FF02462046F5E7C0
:107DB000002101A8FFF7ACFC8CE7002101A8FFF728
:107DC0000BFD87E74FF0E02302901B695B0705D5A9
:107DD000FEF736FF0290029B01937BE703A902A8FE
:107DE000FFF752FDF7E7002101A8FFF74DFD71E70E
:107DF000002101A8FFF7F2FD6CE7002101A8FFF7C1
:107E000011FE67E70021104B0391D3F8703203F0A5
:107E10000303012B02D103A8FFF736FD039BDBE729
:107E2000094BD3F8903203F00303012B04D0022B4B
:107E3000AAD1FEF737FFA7E7FEF730FFA4E700213E
:107E400001A8FFF713FE45E70080005008B5802029
:107E5000FFF7BCFE034B98429EBF4FF48032024BAB
:107E60001A6708BD005A620200A000501FB5002327
:107E7000B0F5807F019300F0CC8078D8582869D87D
:107E8000382806D8243809284AD9019805B05DF861
:107E900004FB39381F28F8D801A353F820F000BF9D
:107EA000358000088B7E00088B7E00088B7E0008E2
:107EB0003F800008858000088B7E00088B7E0008CC
:107EC0008B7E00088B7E00088B7E00088B7E00086E
:107ED0008B7E00088B7E00088B7E00088B7E00085E
:107EE0008B7E00088B7E00088B7E00088F80000848
:107EF000937F00088B7E00088B7E00088B7E000835
:107F0000D77F00088B7E00088B7E000899800008D0
:107F1000A38000087B800008F97F0008F97F000833
:107F20000928B2D801A353F820F000BF937F0008BE
:107F3000937F0008937F0008937F0008937F0008D9
:107F40008B7E0008098000088B7E000835800008C1
:107F5000B17F0008802898D1644B1B6F03F00703A2
:107F6000013B032B91D8DFE803F0BE4C7C84B0F5D5
:107F7000086F69D021D8B0F5C06F5BD00ED8B0F5CE
:107F8000A06F7AD0B0F5B06F3ED0B0F5806F7FF4BF
:107F90007CAF002001A9FFF7BBFB76E7B0F5E06FEF
:107FA00070D0B0F5F06F4AD0B0F5D06F7FF46DAF00
:107FB000002001A9FFF7BEFC67E7B0F5286F70D07D
:107FC0000ED8B0F5186F62D0B0F5206F64D0B0F560
:107FD000106F7FF45AAF002001A9FFF7D5FC54E7DA
:107FE000B0F5306F70D0FFF450AFB0F5386F21D0DE
:107FF000B0F5406F7FF449AF002001A9FFF7BAFB4D
:1080000043E70523019340E7002001A9FFF7E4FBC4
:108010003BE702934FF0E0231B695B0705D5FEF7B2
:108020000FFE0C230393039BECE703A902A8FFF7C1
:108030002BFCF8E7002001A9FFF726FC25E700202C
:1080400001A9FFF713FD20E7284BD3F8003103F017
:108050000303022B07D0032B09D0012B0BD1FEF712
:1080600005FE0323CEE7FEF765FE0923CAE7FEF708
:1080700013FE0823C6E70123C4E7002001A9FFF788
:10808000D3FB02E7002001A9FFF7A8FCFDE60020D2
:1080900001A9FFF7C7FCF8E6002001A9FFF718FCCB
:1080A000F3E60021114B0391D3F8703203F0030380
:1080B000012B04D0022B14BF0B461423A2E703A804
:1080C000FFF7E2FB10239DE7084AD2F8902202F066
:1080D0000302012A05D0022A94D1FEF7E3FD07230B
:1080E00090E7FEF7DBFD02238CE700BF0080005025
:1080F00070B504468020FFF7B9FE032800F08A809F
:108100004FF48012544B554D5A6645F60E034FF00E
:10811000A062C5F88030524B9A624FF4803203F56A
:1081200080539A62AE6D16F48036FBD1D4E90023F9
:108130001B0543EA0263E27B4A481343227B43EA7E
:108140000243627B43EA0233A27B43EA82132B6140
:10815000AA69D4E904131B0643EA816302F00042D2
:108160001343A27E4FF440611343227E43EA02434D
:10817000627E43EA0223AB614FF40062FFF79AFC90
:10818000E1692B6A00290CBF00220822E07E23F05F
:108190000F0343EA010343EA800343EA02032F4A41
:1081A000314D136237D194F82430916A94F820004D
:1081B000DB000D4043EA401394F821102B4343EABF
:1081C000011343F480339362284B916D33EA01012C
:1081D000FBD14FF08071224881621369A56823F4B6
:1081E000700343EA055313614FF00043836194F831
:1081F00022300BB91E4B996294F823301BB94FF40F
:1082000080321B4B9A6294F825301BB1134B194AEC
:10821000C3F8802070BD022908D116614FF47F4158
:10822000966115484FF40852FFF744FC0B4994F847
:1082300022308A6A94F820001B06154043EA401356
:1082400094F824202B4343EAC20394F8232043EA02
:1082500002438B62D7E700BF009000500040005AF5
:108260000050005A3840005AC7FFFEFE03000100CC
:108270000060005AF1A7FFFF3440005A014B93F908
:1082800000007047E81000200029CCBF0121002128
:10829000FFF74CBCB0F5207F10B50C4642D008D893
:1082A000B0F5007F33D003D888B1B0F5C07F0ED0D1
:1082B00010BDB0F5607FFBD11F4B013CD3F880109F
:1082C00021F0300141EA0414C3F88040F0E7FFF7E1
:1082D00059FC00F035F84FF48031184A164B1167FD
:1082E000196F013C21F4704141EA04341C67FEF728
:1082F000A7FC0446FFF700FAC0F102012046FFF791
:10830000C3FF00F023F8BDE81040FFF79FBD0A4B04
:10831000013CD3F8901021F0F85141EA0464C3F80D
:108320009040C5E7044B013C196F21F4806141EA9C
:1083300084241C67BCE700BF008000500090005000
:1083400002214FF42070FFF7A5BF000008B54FF4DD
:10835000C070FFF73BFCBDE80840044988428CBF71
:10836000022101214FF42070FFF794BF80F0FA0240
:10837000B0F5807FF8B50C4600F04E8174D85828CF
:1083800066D8382803D82438092847D9F8BD3938A1
:108390001F28FBD801A353F820F000BF8B860008EC
:1083A0008D8300088D8300088D830008AB8600084C
:1083B0000B8700088D8300088D8300088D830008DB
:1083C0008D8300088D8300088D8300088D8300084D
:1083D0008D8300088D8300088D8300088D8300083D
:1083E0008D8300088D8300082B8700089584000882
:1083F0008D8300088D8300088D8300080F85000899
:108400008D8300088D8300084B870008B58700081E
:10841000EB8600084B8500084B8500080928B5D875
:1084200001A353F820F000BF95840008958400084C
:108430009584000895840008958400088D830008C1
:10844000F98500088D8300088B860008CD8400081C
:1084500080289BD18B1E062B00F2CB80DFE803F037
:10846000C6B4C985C9C9C300B0F5086F00F02D8135
:108470003CD8B0F5C06F00F008811BD8B0F5A06FF4
:1084800000F03381B0F5B06F00F0B680B0F5806FCA
:108490007FF47CAF023C052C8CBF0021B34BB44A67
:1084A00098BF195DD2F8203123F007030B43C2F8BF
:1084B00020316BE7B0F5E06F00F02781B0F5F06F89
:1084C00000F0F380B0F5D06F7FF460AF093C052C6D
:1084D0008CBF0021A74BA64A98BF195DD2F8003285
:1084E00023F007030B43C2F800324FE7B0F5286FC3
:1084F00000F060811BD8B0F5186F00F01681B0F560
:10850000206F00F02281B0F5106F7FF43FAF093C7F
:10851000052C8CBF0021984B954A98BF195DD2F865
:10852000083223F007030B43C2F808322EE7B0F5F8
:10853000306F00F05081FFF429AFB0F5386F00F0D4
:10854000A480B0F5406F7FF421AF023C052C8CBFB6
:1085500000218A4B864A98BF195DD2F8283123F052
:1085600007030B43C2F8283110E7002502264FF419
:1085700080370121022000F0BBF9FFF703FBFFF772
:10858000DFFE7F4B7A4A1F67136F23F007033343E5
:108590001367FEF755FB0646FFF7AEF8C0F1020180
:1085A0003046FFF771FE0121002000F0E1F9FFF7EE
:1085B000CDFEFFF74BFC002D7FF4E8AE032C7FF4DB
:1085C000E5AE704B9F62E1E64FF480126C4B0E46B5
:1085D0005A664FF480326C4B9D6A03F58053C5F3A5
:1085E00000659A62C3E700250426C0E7002501263E
:1085F000BDE700252E46BAE7023C0D2C8CBF0021BA
:10860000624B5B4A98BF195DD2F8803123F00303B7
:108610000B43C2F88031B9E60C2920D01BD8A1F158
:108620000904022C3FF6B2AE4FF48032504B584949
:10863000586E03F580535A664B6A43F001034B6250
:10864000C1035CBF534B5A664FF0E022136923F01D
:10865000040313619AE610297FF498AEE4E74FF41F
:108660008032434B4A49586E03F580535A664B6A31
:1086700023F001034B62C3035CBF464B5A664FF0C5
:10868000E022136943F00403E3E7093C022C8CBFAA
:108690000021414B364A98BF195DD2F8403123F092
:1086A00003030B43C2F8403170E6093C022C8CBF37
:1086B00000213A4B2E4A98BF195DD2F8603123F061
:1086C00003030B43C2F8603160E6CC1E062C8CBF5E
:1086D0000021334B264A98BF195DD2F8003123F0B0
:1086E00003030B43C2F8003150E6073C0A2C8CBF51
:1086F00000212C4B1E4A98BF195DD2F8203223F07E
:1087000007030B43C2F8203240E6093C022C8CBF21
:108710000021254B164A98BF195DD2F8403223F04C
:1087200003030B43C2F8403230E6093C022C8CBFF5
:1087300000211E4B0E4A98BF195DD2F8503223F02B
:1087400003030B43C2F8503220E6023C0E2C8CBFD0
:108750000021174B064A98BF195DD2F8603223F00A
:1087600007030B43C2F8603210E600BF223603084D
:10877000008000502B3603082B36030822360308EE
:10878000009000500060005A0040005A1436030860
:1087900000C0075000A00050283603082836030800
:1087A000313603083836030828360308283603080C
:1087B00043360308102C0CD0142C14BF00210221C6
:1087C0000D4AD2F8703223F003030B43C2F8703223
:1087D000DCE50121F4E702290CD0072914BF0021B0
:1087E0000221054AD2F8903223F003030B43C2F86A
:1087F0009032CBE50121F4E700800050EFF31080C8
:1088000072B6704700B962B67047EFF3118030233B
:1088100083F31188704780F311887047034B5868C1
:10882000C0F30800003818BF0120704700ED00E0D9
:10883000054B420953F8223000F01F0023FA00F0E4
:10884000C04300F00100704700E100E0024A536BB2
:108850000342FCD1704700BF00400950044A4178F0
:10886000536F23F4407343EA01235367704700BFFB
:1088700000400050704770470A4A10B5136904461B
:1088800043F00403136101F049FBFFF7F3FF30BF2E
:10889000FFF7F1FF01F056FB1CB9BDE81040FEF7F1
:1088A000CFB910BD00ED00E0084A10B513690446C9
:1088B00043F00403136101F031FB30BF01F042FBD0
:1088C0001CB9BDE81040FEF7BBB910BD00ED00E0DB
:1088D00070477047034A0179D36E23F030030B438E
:1088E000D3667047004000507047704770470000E3
:1088F000F8B504461C4BD3F88420D106FBD4D3F83A
:108900008430C3F381139C422CD0FEF77FF9012CF5
:10891000064602D12146FFF7B7FCFFF76FFF4FF085
:108920000072124B07465A662046FFF7DFFF4FF4EE
:1089300080630D4D621E93402B676B6E9A0103D4CA
:10894000D5F884309B060AD53846FFF75BFF022C2A
:1089500008D13046BDE8F8400021FFF795BCD5F8B6
:108960008430EAE7F8BD00BF0040005000600050CE
:1089700007B518B90191FEF749F90199064B1B7823
:1089800043B1064B984205D8012003B05DF804EBD3
:10899000FFF7AEBF0220F8E7841C0020005A6202F5
:1089A0000278034B012100201A70FFF7E1BF00BFDE
:1089B000841C00204FF00042154B10B55A664AF651
:1089C000CD3314494C6C0B6404F0010488B90120C8
:1089D000FFF73CFF4B68DB0704D50F4B58600B6B70
:1089E000D807FCD514B10B4B0C4A1A6416F0E9FCFD
:1089F00010BD0B6B1A07FCD42022074B9A62012290
:108A0000A3F580535A60034A936A9B06FCD5E9E7B5
:108A10000090005000400950006009503254FFFFA0
:108A20004AF6E85370B50F4C0221E56EE66E8020E1
:108A3000236625F0030545F00205FFF799FC46F093
:108A400003060020FFF7B6FFFFF74EFFFFF74DFFCD
:108A5000E566E666E566E666E566E666E566E666BA
:108A6000E56670BD004000504FF0004238B5164B2F
:108A700001465A664AF6CD33144C154A656C236498
:108A800043780B205B0043F00103D363FFF7DEFE66
:108A900063688A7823F4F87343EA02136360CA7840
:108AA0004B7943EA0223A3600A798B7943EA0223D4
:108AB00023610878FFF77EFFEB0744BF054B236473
:108AC00016F07FFC012038BD009000500040095096
:108AD000004000503254FFFF4FF00042124B70B57F
:108AE0005D6E03F580535A664AF6CD3304460F494E
:108AF00080204E6C0B64FFF7A9FE0B6A23F00F0376
:108B00000F2C94BF234343F00F030B62F30744BFC2
:108B1000074B0B64002DA2BF4FF00042054B5A6675
:108B200016F04FFC70BD00BF00800050004009509F
:108B30003254FFFF00A000504FF00042104B70B5C0
:108B40005D6E03F580535A664AF6CD3304460D49EF
:108B500080204E6C0B64FFF779FE0B6A23F4F85308
:108B600043EA04230B62F30744BF074B0B64002D59
:108B7000A2BF4FF00042054B5A6616F022FC70BDB2
:108B800000800050004009503254FFFF00A0005008
:108B9000436D0B42FCD1704708B54368DA0714D522
:108BA0008368DB0702D50369D90707D50A2350215B
:108BB0008363FFF7EDFF836C9A07FCD1012200F578
:108BC00000535A6043689B07FCD408BD38B50C4677
:108BD0000121024600F58053596004F00F0540F66C
:108BE000FF71FFF7D5FF78218563FFF7D1FF04F010
:108BF0000103610748BF43F00203916C01F00301D8
:108C00009942FAD138BD000010B5FFF7C5FF042323
:108C100000F5805100F500520B6113610B61136187
:108C20000B6113610B611361202341F202010361A7
:108C30000023C360836041614FF4A02183614162DE
:108C40000449C36103628362C36243630365D16401
:108C5000036310BDFF3F0D0309B9FFF79DBFFFF789
:108C6000B5BF836C5A06FCD54164836C1B06FCD5EA
:108C7000C06B80B270470000F8B505461446084640
:108C800061B9354B9D4233D0344B9D4232D003F510
:108C900080439D4208BF5820FEF798FFAB68D90774
:108CA00030D5B0FBF4F46E68013C16F0010627D015
:108CB00028212846FFF76CFFAB6C9A071CD1AB6CE0
:108CC000DB071BD4AB6C13F0020F0CBF0027062789
:108CD0002846FFF761FF286920F07F4040EA0464DE
:108CE0002C61CEB139462846BDE8F840FFF7B4BF45
:108CF0005620D1E75720CFE70527E9E70927E7E71F
:108D00003746E8E76B68AF6807F0E007402F1BD0F5
:108D100003D8DFB1202F1BD0F8BD602F1AD0802FD1
:108D2000FAD1012604FB06F24101B1FBF2F30C4A31
:108D3000203B02EAC30228460121FFF729FF2A63EC
:108D4000BDE8F840FFF724BF0626EBE71026E9E769
:108D50000826E7E70426E5E70000015B00000A506B
:108D6000F8FF7F00436870B504460D460E691BB1DD
:108D700040F6FF71FFF70CFF2046FFF745FF226921
:108D80006B7BA97B22F087020B43134343F08003E4
:108D9000236116B32A692369117823F0F8030B4382
:108DA000117F43EAC113117943EA4113517A43EA2F
:108DB0000113D17B43EA81132361E168D2E90530D5
:108DC00021F0F04121F4702103430B43117B527BCE
:108DD00043EA812343EAC233E360A368EA7B23F0DA
:108DE0000303134343F00103A3602EB32A69A16870
:108DF000538803F4C0430B43A3605179A36843EA4B
:108E00008123A3609379D079616A1B01000203F08A
:108E1000700300F4E06021F4772121F4EE61034354
:108E20000B43117A527F090301F4E04112040B4312
:108E300002F470221343636263692A7B23F00F03F9
:108E400013436361B6B12B695A89A2615A7B3AB167
:108E5000264A944224D19A7B254902F00F024A66A1
:108E6000DA7B3AB1214A94422DD11B7C204A03F08F
:108E70000F031366D5E901122046FFF7FDFE052119
:108E80002046FFF7A3FE2821FFF782FE2B78A3637D
:108E9000FFF77EFEA36CDB4313F4405FFAD170BD95
:108EA000144A944209D002F580429442D8D19A7B68
:108EB0000F4902F00F02CA67D2E79A7B0C4902F011
:108EC0000F020A67CCE70B4A944209D002F58042B0
:108ED0009442CFD11B7C064A03F00F039367C9E786
:108EE0001B7C034A03F00F03D366C3E70000015B5A
:108EF0000090035000000A5070B5054614460E4617
:108F0000FFF77CFC296881EA040202EA06044C406F
:108F10002C60BDE87040FFF775BC7047072AF7B5B5
:108F200001F0030614461F464FF003012CD89500AC
:108F3000A94000FA05F21C480191FFF7DDFF0199F5
:108F40001A4806FA05F2FFF7D7FF194B19499DF8A1
:108F50002000002F08BF1946012303FA04F40C6017
:108F6000154B1649002808BF0B461C60144B9DF892
:108F70002400C3F820441031A3F6DC33002808BFD6
:108F80000B461C6003B0F0BDA2F10805AD00A9407E
:108F900000FA05F20B480191FFF7AEFF01990A486C
:108FA00006FA05F2CFE700BF00C4035008C403501F
:108FB00010E4035010D4035014D4035014E40350AD
:108FC00000E0035004C403500CC403502DE9F041E9
:108FD00005460F461E4690464AB101233022194CE1
:108FE0008B4002FB00443EB304F5825423600F2102
:108FF000072F05EB450388BFA7F108044FEA0313C9
:10900000114895BFBC00A40004330C3308FA04F2E5
:10901000A1401844FFF770FFB8F1000F0AD10121F9
:109020003020084A01FA07F700FB05223EB102F59D
:1090300082521760BDE8F08104F50154D6E702F5CD
:109040000152F6E700C0035030C00350104B0140FE
:10905000D3F8302422EA0002C3F83024D3F83024B5
:109060001143C3F83014D3F82C240243C3F82C2442
:10907000084AD36E03F03003202B1FBFD36E23F0BA
:10908000300343F01003D366034BC3F8200470474A
:1090900000C003500040005000E00350036C0B423E
:1090A000FCD1704711B1012902D07047C2617047ED
:1090B0000262704710B50C4660210246FFF7EEFFD2
:1090C00014B10123136110BD0223FBE70A460121FD
:1090D00000F5805310B55960137804463BB94369D5
:1090E000DB0704D54021FFF7D9FF02230361537842
:1090F0009078002B0CBF00214FF48051D36800B949
:109100001BB141F4007103B16362D3780BB141F438
:10911000807113790BB141F0400153790BB141F0EB
:109120008001D37990791B0143EA8003107A0343CD
:109130000B43E360137843B16369DB0705D4202157
:109140002046FFF7ABFF0123236110BD10B511B11D
:10915000012905D010BD0821FFF7A0FFC262F9E781
:109160001021FFF79BFF0263F4E7436813B1036C20
:10917000002BFAD1704710B50124024600F580514A
:109180004C60FFF7F2FF8C6093689B07FCD410BD26
:109190004FF48032054B9A6641F6713203F51C3369
:1091A000DA63012203F50053DA6070470090005043
:1091B00041F671320121064BDA6303F50052D160AA
:1091C0000022DA634FF48032A3F518339A667047B1
:1091D000000003504FF050234FF400321A677047DD
:1091E000014BD3F89400704700400050436813B916
:1091F000416070475B685A68012AFBD1596070472B
:10920000836813B9816070475B685A68012AFBD193
:1092100059607047C369032B9FBF00EB8302013382
:10922000D160C3617047C369042B15D84FF09842D1
:10923000116CC902FCD504339B0013650168103B17
:10924000116041680C30116050F8041C0344116037
:109250004FF09842984200D1704750F8041B1160BB
:10926000F8E700004FF48032064B5A6603F5E62318
:109270009B69C3F38512827003F03F021B0B42709F
:1092800003707047009000504369002B0FDB51B909
:10929000436ADA07FCD4012200F500535A604368A0
:1092A0009B07FCD47047012300F580504360704752
:1092B000436810B5DA0704460AD5FFF7A6FA636AD1
:1092C000DB075CBF0123E360BDE81040FFF7A3BAF2
:1092D00010BD43682DE9F04705460C464BB16B6A5B
:1092E000002BFCD1012205F500535A606B689B07E7
:1092F000FCD463786279002BE37814BF4FF0200828
:109300004FF00008002B237914BF4FF0020E4FF0EE
:10931000000E002B14BF04230023002AA27914BFDF
:109320004FF0080C4FF0000C002AE27914BF102710
:109330000027002A227A14BF4FF400760026002A64
:10934000627B14BF4FF480600020002A14BF4FF4EA
:1093500080710021227B94F80BA094F802901207F0
:1093600042EA0A6242EA090294F80A9042EA094291
:1093700042EA080242EA0E02134343EA0C033B436B
:10938000334303430B43AB6028462178FFF77CFF50
:10939000637A0BB100232B62BDE8F08738B5044631
:1093A000064D0EF009FA0FCC0FC50FCC0FC594E88F
:1093B000030085E80300002038BD00BF881C0020A2
:1093C00047F6FF739A42F0B563D0042963D8334B54
:1093D000CF0003EBC10013F831108478012913D1B9
:1093E0000025C3781B1B9D4202D3E018C0B2F0BD1C
:1093F000591B4668A3EB510136F911609642D4BF60
:109400000D4601F1FF33EEE740680028EFD0B0F9D8
:109410000010914204DBB0F902109142B8BF11462E
:1094200082883B44FF2A19BFC8222826B0F90620AB
:10943000B0F90860A2EB01020CBF0125002592FBE8
:10944000F6F25F782A447B1E934228BF13464FF4FE
:109450007A7E00EBC305AE68EA88AC4611FB026277
:109460001E4622EAE272013302F5FA729F42B2FB13
:10947000FEF204D9BCF80CC008359445EBD200EBE1
:10948000C6008088904228BF1046A04238BF2046C0
:10949000ACE7FF20ABE70020A9E700BF881C002055
:1094A00008B50448FFF77AFFBDE8084001200EF038
:1094B00085B900BFA03B030813B50024094B186809
:1094C0009A889B7900906846ADF804208DF80630A4
:1094D0008DF80040FFF7C8FA0920FFF7FDFA204693
:1094E00002B010BD52360308084A13B5536F00246A
:1094F00043F0010353672023684600948DF804303D
:10950000FFF7E8F9204602B010BD00BF0040005050
:1095100030B58BB06C46154D0FCD0FC40FCD0FC4B9
:1095200095E8030084E80300114BD3F84C211203A3
:1095300014D4D3F85041E4B28DF81940FEF79EFEE2
:10954000204480F308008DF818000A48FDF794FBCA
:109550006846FEF7CDFD00200BB030BD064B1C88E1
:109560004FF6FF739C4208BF8C24E5E75C36030886
:109570000080E00FC01753020001E00F6FF00402FB
:10958000502110B50A480B4C12F0800FD3B21BBF0C
:1095900003F00F03043BA3181B1802F101020CBFD8
:1095A00083F8001319764C2AEED1002010BD00BFBD
:1095B00000ED00E000E100E000F078B838B500F020
:1095C0002DFE0446E0B900F029FF4FF41673434323
:1095D0000C4803F5742303F23F23B3FBF0F30A4A6C
:1095E0000A4913600A220D680948013A12F0FF0285
:1095F00040F8043BF9D103EBC3022B4413440B6046
:10960000204638BD40420F00EC1C0020B81C002052
:10961000BC1C0020012208B5034B1A7000F0F2FEBA
:10962000024B186008BD00BFB41C0020E81C0020DD
:10963000F8B5144C237823B300F0E4FE124B134D1D
:109640001B68134EC01A012838BF0120114B124F5E
:1096500018602B7856F8232046F82300111A3A6830
:109660000E48521A0A213A600932B2FBF1F2013374
:10967000DBB20260B3FBF1F201FB12332B7000236B
:109680002370F8BDB41C0020E81C0020E41C00205E
:10969000BC1C0020B01C0020B81C0020EC1C0020CA
:1096A000014B1868704700BFEC1C002020234FF4CA
:1096B00080120A4981F82D33094B5A66094B0A4A30
:1096C00003F50050426702674FF40050C1F884016F
:1096D000486003F580535A67704700BF00E100E01F
:1096E000009000500040005A010000A0044B9A6D09
:1096F000D20702D40028FAD170470120704700BF7A
:109700000040005A0C4B10B51C6FE20707D5012230
:1097100003F500531A67FFF78BFF00F043FB14F0CB
:1097200000521CBF054B1A67002CBEBF4FF0004211
:10973000024B1A6710BD00BF0040005A0060005A7B
:10974000FFF7E0BFBFF35F8F074B5A6A22F4803206
:109750005A62D3F8942022F00102C3F89420BFF398
:109760004F8FBFF36F8F704700ED00E070B5264854
:10977000264CFFF7E7FF844208BF4FF08043244A9E
:1097800018BF20F01F03D2F8C01018BF203B21F0F3
:10979000FF0141F0A001B3F1005FC2F8C0100CD38B
:1097A0001C4D1D4E296843F00103C2F89810013189
:1097B000C2F89C60C2F8A0302960844210D01548DD
:1097C000164B0268124923F01F0343F00303C1F84C
:1097D0009820C1F89C30124B0132C1F8A0300260D1
:1097E000BFF35F8F05220A4BC3F894205A6A42F4F4
:1097F00080325A62BFF34F8FBFF36F8FBFF34F8F2B
:10980000BFF36F8F70BD00BFAC1300205815002050
:1098100000ED00E0F01C0020030000207715002080
:10982000E1FFFF3F10B51446FFF78CFF1F2C21D935
:109830001A4A1B4CD2F8C03021F01F0123F47F4399
:1098400043F48073C2F8C030C30618BF20F01F0075
:109850002368124A18BF203020F01F00C2F8983049
:1098600040F0030041F003010133C2F89C00C2F84C
:10987000A0102360BFF35F8F0522084BC3F894202C
:109880005A6A42F480325A62BFF34F8FBFF36F8F30
:10989000BFF34F8FBFF36F8F002010BD00ED00E0CE
:1098A000F01C0020BFF34F8F0549064BCA6802F435
:1098B000E0621343CB60BFF34F8F00BFFDE700BFF3
:1098C00000ED00E00400FA0508B5FFF7EBFF08BD66
:1098D000054B1A782AB95B78002B14BF02200320AD
:1098E00070470120704700BF241D00200329F8B5F0
:1098F00098BF124B05460E468CBF00245C5C0328C3
:1099000005D8DFE800F002080B0E44F002040C4B0F
:109910001F684FB9F8BD44F00804F8E744F020048C
:10992000F5E744F08004F2E77B681A68144203D03C
:10993000314628465B6898473F68EAE78436030863
:10994000201D002038B5104D2B78ABB10F4C23787B
:109950001BB100F023FB00232370002000F042FB2A
:109960000B4C50B100F048FB0023012120782B70F4
:10997000FFF7BCFF0123237038BD0122054B1A708D
:109980002278054B1A70F7E71E1D0020191D0020D4
:10999000101D00201D1D0020301D002010B5FEF7F9
:1099A0002DFF064B04461B781BB1BDE81040FEF7A7
:1099B00029BFFFF7C7FF2046F7E700BF181D0020AB
:1099C000002814BF0121FF21074A13780B441370AC
:1099D00008D0064B1B78012B04D9054B1B780BB91B
:1099E000FFF7B0BF704700BF241D0020101D0020EE
:1099F0001D1D002070B5FEF701FF114E054633789E
:109A00008BB900F00BFC044620B12846FEF7FAFEA5
:109A1000204670BD0B48FDF7A1FC0B4B1C6000F00D
:109A2000FDFC0A4B186000F003FA00F019FB084B2C
:109A300000241860012328463370FEF7E3FEE7E7B1
:109A40001A1D0020201D0020341D00202C1D002088
:109A5000141D002000292DE9F34114BF0121FF212D
:109A6000254A00F1FF30135C0B4413543AD0234EC7
:109A70003178012936D9FFF72BFF0128044634D865
:109A80001F4FFEF7BBFE3B781BB31E4D2B781BB957
:109A900001222A701C4A1370DFF8708098F8003099
:109AA00033B1019000F07AFA0023019888F8003071
:109AB000FEF7A8FE012000F095FAFEF79FFE2B7836
:109AC0002BB1019000F098FA002301982B7000232D
:109AD0003B70FEF797FE3078A04203D02146FFF797
:109AE00005FF347002B0BDE8F0810329F3D10228EC
:109AF000F1D100F0C9FAEEE7241D0020101D00206E
:109B00001E1D0020181D00201D1D0020191D0020F5
:109B100068B5FEF773FE094B06461B78012B04D887
:109B2000FEF770FE0025284668BD054B1D6800F055
:109B30009BFA05443046FEF765FEF4E7101D002051
:109B4000341D002007B5FEF759FE0190FFF7FAFE1D
:109B5000019803B05DF804EBFEF754BE38B54160E0
:109B60000446FEF74BFE054621460448FDF7F9FB87
:109B70002846BDE83840FEF745BE00BF201D002046
:109B8000054B1B685843054B00F5742000F23F203D
:109B9000B0FBF3F0704700BF2C1D002040420F00C7
:109BA0002DE9FF47FEF72AFE044600E000BF0BF058
:109BB000E1FC002800F09C806D4E6E4F337823B19D
:109BC0000020FFF7FDFE00233370FFF781FE0546FE
:109BD000002800F09580851EEDB2012D40F298809E
:109BE000FFF776FE0128804604D9634B1B780BB93A
:109BF00000F092F9614DDFF8A4912878DFF8A0A178
:109C000040450AD0002389F800309AF8003013B993
:109C10004146FFF76BFE85F8008099F800303BB1B4
:109C20002B78022B04D1002389F8003015F068FD51
:109C3000B8F1010F0FD9DFF8408198F8003053B91F
:109C40004F4B1B7823B900F0A3F901224D4B1A703A
:109C5000012388F80030287800F0ECF99AF80030F9
:109C600013B1494B1B782B7000E000BF2046FEF774
:109C7000C9FDFEF7C3FD454B04461A7852B10022D8
:109C80001A70414B28781B78984203D10121297022
:109C9000FFF72CFE384600F0FBFA0BF075FC80460F
:109CA00000288BD1344F89F800003B789BB1DFF856
:109CB000D4908AF8000099F800301BB100F06EF9DA
:109CC00089F80080002000F08DF9002846D000F0CF
:109CD00093F900233B70337823B10020FFF770FE27
:109CE0000023337000212878FFF700FE00232B703B
:109CF00000E000BF204604B0BDE8F047FEF782BD9B
:109D00003378002B3FF46CAFFFF75AFE357067E7EE
:109D1000002003A900F03EFB054600287FF460AF59
:109D20001B4B039A1B689A4205D80120FFF748FE97
:109D30000123337054E7174BD3F8008000F094F9F7
:109D4000039940448842F0D20223091ACDE9005316
:109D500038462B46104A00F0C3FA41E7012000F0D4
:109D600069F92046FEF74EFDFEF748FD0446A9E7D7
:109D7000281D0020F41C00201E1D0020101D0020A6
:109D8000271D0020191D0020301D00201C1D002053
:109D9000141D0020341D00209D990008261D002060
:109DA0001D1D002010B5094B1B786BB1084C2378A2
:109DB00053B100F021F90023064A237013700123E8
:109DC000054A1370054A137010BD00BF101D002016
:109DD0001D1D00201E1D00201B1D00201C1D00201D
:109DE00073B5114E04463378834212D000238DF8A8
:109DF000043080B102238DF8053001A8FEF72EFD56
:109E00000A4D402054B1FFF7BBFE2B68181A28609A
:109E1000347002B070BD8DF80500EEE7FFF7B0FEBC
:109E20002B681844F3E700BFE9100020401D002014
:109E300073B5002401A88DF80440FEF7B1FD20465B
:109E4000FFF7CEFF4FF480102C4B2D491A6F02F014
:109E500007020A602B49D3F8203148664FF40030DE
:109E6000486601F598318969032A01F002013DD065
:109E700003F00703981E434243412348234D0370D8
:109E800061B31E4A3BB9D2F8003103F00303591EF7
:109E90004B424B410370D2F8003103F00303022B15
:109EA00026D0032B27D0012B18D1FCF7DFFEA8B159
:109EB000174B411EDC680023024608461946C4F3CE
:109EC0000B04144E013404EB8404E4FB060129F076
:109ED000C9F8FFF755FE2B68184428606420FFF787
:109EE0004FFE2B681844286002B070BD0123C4E700
:109EF000FCF720FFDBE7FCF7CFFED8E7008000503F
:109F0000381D0020009000503E1D0020401D002004
:109F100000C0015040420F00FEF7DABC074B1A7830
:109F200052B100221A70064A136F23F0070343F060
:109F300001031367FCF784BE704700BF3C1D00207F
:109F40000080005008B50E4B1B788BB1022000F04A
:109F5000C5FB68B100F050FA50B10A4B9A6DD203BC
:109F600007D5DB6D9B0704D54FF48032064B9A6210
:109F700008BD0122054B1A70FFF74CFBF4E700BF48
:109F80003E1D00200040005A0050005A3D1D002098
:109F90000122014B1A7070473C1D002038B50D4B53
:109FA0001B7873B10C4C23788BB90C4B0C4D9A6D0C
:109FB00012F4803F06D0DB6D9B0703D54FF480334E
:109FC000AB6238BDFFF726FB4FF48033AB62002352
:109FD0002370F6E73E1D00203D1D00200040005A82
:109FE0000050005A034B1B780BB1FFF77FBB0120D9
:109FF000704700BF3E1D002008B5FEF76AFC094A05
:10A000000949136F096823F007030B431367074BD4
:10A010001B781BB14FF48032054B9A62BDE80840B3
:10A02000FCF70EBE00800050381D00203E1D0020B1
:10A030000060005A02280AD003280BD001280CD156
:10A04000064A136923F00403136130BF70470020F0
:10A05000FEF712BC0020FEF727BC704700ED00E0C1
:10A060004FF4C870FFF78CBD08B5054B187818B1D0
:10A07000FFF716FB00EBD000024B1B68184408BD2D
:10A080003E1D0020401D00207047000010B500F06C
:10A09000CFFA0A4C0A4B19682368C31A01B10BB9ED
:10A0A000206010BD4A699A423ABF9B1A0022D21A18
:10A0B0004A6128BF00238968F0E700BF481D0020DF
:10A0C0005C1D0020C38870B504460D463BB9FFF700
:10A0D0001FFD8542064602D2FFF734FD35460F4983
:10A0E00065610B68ABB90C60A36011E0AD1A9A68AA
:10A0F000184665612AB113465A69AA42F6D950B189
:10A100001A4613468460A36013B15969491B59610B
:10A1100070BD0020F0E70C60F5E700BF5C1D00207B
:10A1200038B5134D2B685B6993B1124A022014684D
:10A130001C4400F087FA204600F090FA00230E49F4
:10A140002A680B70D088800709D501230B7038BDB1
:10A15000022000F077FA022000F0B4FAEEE79268ED
:10A16000002AF4D050690344012BEBD9EFE700BF7C
:10A170005C1D0020481D0020501D002070B51646B3
:10A180009DF81420C0E903360271049ABDF8183016
:10A1900002600022C380826004460D4600F048FA47
:10A1A0003044A0613DB9E368656113B12046216880
:10A1B000984796B13546FEF721FB0646FFF766FF46
:10A1C00029462046FFF77EFF054B1B68A34201D1BD
:10A1D000FFF7A6FF3046FEF715FB002070BD00BF5D
:10A1E0005C1D002000220C490B687BB183420AD120
:10A1F00083687AB1936083681BB15A6941690A44E4
:10A200005A61002070471A469B68EEE70028EFD09D
:10A21000022070470B60EEE75C1D002070B5FEF772
:10A22000F4FA144E05463478FCB9134B1C60134BFA
:10A230001C60134B1C8000F0CBF9012000F002FAE7
:10A2400000F05CFA0F4B0246186020B92846FEF772
:10A25000E2FA232070BD234640F2E7310A4828F095
:10A2600001FF0A4B1860012333702846FEF7D3FA2A
:10A270000020EFE7441D00205C1D0020481D002049
:10A28000521D0020581D002018FCFFFF4C1D00200F
:10A290002DE9F0410546F8B1FEF7B0FA0F4F06463A
:10A2A000FFF7F4FE2846D7F80080FFF79BFF04462F
:10A2B00028B13046FEF7A6FA2046BDE8F081A84551
:10A2C0003B6803D123B1FFF72BFFF2E7002BF0D15E
:10A2D000022000F0EBF9ECE72224EDE75C1D002002
:10A2E00070B586B015461E460446059180B1FFF74D
:10A2F000CFFFBDF82C30002202939DF82830204675
:10A30000CDE9006305992B46FFF738FF06B070BD15
:10A310002220FBE738B50C46054698B191B10023E1
:10A320000B70FEF772FA0121074B1B680BB1227804
:10A330001AB1FEF770FA002038BDAB4214BF9B681B
:10A340002170F3E72220F7E75C1D0020F0B51F46DF
:10A35000002387B00D46164604468DF81730A0B18D
:10A360000DF11701FFF7D6FF9DF817207AB9BDF858
:10A370003430294602939DF830302046CDE90073F1
:10A380003346FFF7FBFE07B0F0BD2220FBE70320BA
:10A39000F9E700002DE9F04107468846FEF735FA57
:10A3A00000260546124B1C6824B92846FEF733FAEE
:10A3B0001B2016E063691E44E388BB4215D100F000
:10A3C00037F90C4C2368C01AB0420CD200F030F9B7
:10A3D00022683244121A2846C8F80020FEF71BFAF9
:10A3E0000020BDE8F0810022F5E7A468DCE700BFAB
:10A3F0005C1D0020481D0020014B1878704700BFED
:10A40000501D002038B5FEF700FA054600F010F99F
:10A4100004462846FEF7FFF9204638BD014B186870
:10A42000704700BF581D00200C4B70B51B680D46CF
:10A43000834211D340F2E73100248C462146084B79
:10A440004FF47A721E680023E0FB06C1604628F0D4
:10A4500009FE2860204670BD2120FCE74C1D00202D
:10A46000581D00200F4B10B51A689AB14FF47A713D
:10A47000531E1342A0FB01010ED1B2FA82F2C2F1C7
:10A480001F04531CD243E04001FA03F3184321FA9E
:10A4900002F20243104610BD002328F0E3FD0246FD
:10A4A000F8E700BF581D0020C2072DE9F347044616
:10A4B0000BD53F4A138801339BB21380FFF7E6FDAB
:10A4C0003C4B1B680BB1FFF72BFEA3076DD5FEF7C6
:10A4D0009CF9002605463746FFF7D8FDB146DFF860
:10A4E000D480D8F800400CB163698BB10022324BA4
:10A4F000012F1A7002D1022E08BF1F70002C44D009
:10A50000FFF70EFE284602B0BDE8F047FEF783B91C
:10A5100023461A792179914288BF1C469B6813B162
:10A520005A69002AF5D02846FEF775F9256985B3E2
:10A5300000F07EF8A269861AF317B54279EB03039F
:10A5400028DA23691344A3610123226982B17BB90C
:10A55000A91B0191FEF759F9824601992046FFF7A0
:10A56000B1FDA369226950461344A361FEF753F974
:10A57000E368E688013713B1204621689847FEF763
:10A5800044F90546FFF782FDABE7022000F08EF8A4
:10A59000B8E72E46FEF739F982462046FFF722FE3D
:10A5A0005046FEF738F90023CFE702B0BDE8F08748
:10A5B000521D00205C1D0020541D0020034B5A68D2
:10A5C00012B19A6A002AFAD1704700BF00400650C3
:10A5D00030B5144B85B001AC93E8070084E8070060
:10A5E00001213D20FDF7D6FA0125002320468DF8F4
:10A5F00004300295FDF72AF803220B4C04F50053B2
:10A600009A615A61FDF768F8FFF7D8FFE560FFF738
:10A61000D5FF4FF48022054BC3F880211A6005B0A6
:10A6200030BD00BF883603080040065000E100E05E
:10A63000014B186A704700BF004006500020FDF72C
:10A6400045B8000000F001038207034A48BF43F009
:10A6500002039361704700BF00500650F8B50446EE
:10A66000FEF7CCF8104F06463D6AFFF7E7FF7A6920
:10A67000920704D4421B052A01D8A8420ED1631BBD
:10A68000042B98BF6C1D0020B4F1FF3F2CBF214666
:10A69000611EFDF70FF80220FFF7D4FF3046BDE83A
:10A6A000F840FEF7AFB800BF0040065000F00103CD
:10A6B0008207034A48BF43F002039361704700BF1B
:10A6C0000060065000F001038207034A48BF43F0D0
:10A6D00002035361704700BF00500650064B01282B
:10A6E0005B6904D0022805D1C3F34000704703F032
:10A6F0000100704700207047004006503D20FDF7E4
:10A7000065BA000010B5FEF780F80446094B5B6996
:10A710009A07094A03F0010003F0030348BF40F021
:10A7200002005361FFF7C0FE2046BDE81040FEF76F
:10A7300072B800BF004006500060065008B5FCF734
:10A74000B3F8FCF713F9FCF71AF9FCF727F9BDE8A1
:10A750000840FCF72AB9FCF707B9000010B5044619
:10A76000FCF76EFA0C4BA0F57A729A4212D84FF4AD
:10A770007A73B0FBF3F05C43084BB3FBF0F0B4FB2F
:10A78000F0F0022806D9BDE810400323B0FBF3F037
:10A7900000F006B810BD00BFFFC99A3B40420F0051
:10A7A000013800D0FCE7704707B503460448009124
:10A7B00000F134020C2121F03FFA03B05DF804FBF4
:10A7C000601D002038B50B4D134604460A4601466D
:10A7D000284621F077FA022808D048B994F830309A
:10A7E000EA181C3382F8640045F82300012038BDC4
:10A7F0000020FCE7601D0020014821F02DBA00BFB9
:10A80000601D00200146014821F08ABA601D002029
:10A8100070B40546AC68084611461A46DDE90336B1
:10A8200074B12D78012D04D0022D05D0042070BC08
:10A830007047234670BC1847A446039670BC604717
:10A840002046F4E7F7B504460A4D0B48A84201D369
:10A8500004200BE047880E78B74209D1089DCDE966
:10A86000003513460A462146FFF7D2FF03B0F0BD7C
:10A870002430EBE7E8AD0308F0AB0308F8B5054674
:10A880000F46064C064EB44200D3F8BD394620466A
:10A89000A8470028F9D12434F5E700BFF0AB03083E
:10A8A000E8AD03082DE9F04304468046002685B054
:10A8B00090F800C0BDF830509DF8347000EB0C1ECD
:10A8C000F04505D166450DD1002005B0BDE8F08307
:10A8D00098F8049008F11008B9F1030F1CBF013675
:10A8E000F6B2EDE7002BEFD08DF80020ADF8025066
:10A8F000009E26F47F46012EE6D0022A03D1002FC7
:10A90000E2D0002DE0D0A64511D1002600F1040EC2
:10A91000B445D9DD34011EF80480B8F1030F1CD111
:10A920002044C0E90313027195B90120CDE72679CF
:10A9300096420BD1E688AE4208D1267ABE4205D1B6
:10A940002669B34202D1E668B142BDD01034DAE7DD
:10A95000C580002FE9D00772E7E70136D8E710B5C8
:10A96000034603240022017000EB01118B4200D149
:10A9700010BDC3E903221C71DA801A721033F5E7A7
:10A9800007B513460022CDE90022FFF78BFF03B085
:10A990005DF804FBF8B506460D46044600273378FB
:10A9A000BB4200DCF8BD2379012B07D0022B0CD071
:10A9B00043B929462369E068984703E02A79E38888
:10A9C0009A42F6D001371034E9E72A79E3889A42AF
:10A9D000F8D16A79237AF3E72DE9F047DDF824A06E
:10A9E0000D4690461C46074600F0CCFF00F0ECFCFC
:10A9F000064600F0C1FF8146BAF1000F06D0294695
:10AA000050469DF8282028F0D7FCC0B9D9F804306A
:10AA10001B785A0706D5032E24D0042E26D1042FE6
:10AA200017D102E06EB1BE4211D184B12946204651
:10AA30009DF8202028F0C0FC08B9202D07D1012066
:10AA400003E0A5F1200358425841BDE8F087042EE9
:10AA50000CD1722D0AD1B8F1040F07D1B7FA87F0E3
:10AA60004009F2E7032F01D1002CDFD10020ECE7F1
:10AA700010B58AB0044600F06DFF6523002201A9DD
:10AA800080688DF804308DF8084020F0B2FF0AB0DD
:10AA900010BD10B5BEB0044600F05CFF15238DF864
:10AAA0000030002269460068019420F0A2FF18B12E
:10AAB00014B100210220A0473EB010BD10B50446DD
:10AAC000002026F0E5F9034B186008B12060012052
:10AAD00010BD00BF001E0020014B1868704700BF6A
:10AAE000001E0020452300B58BB08DF8043000F027
:10AAF00031FF4FF4FA7201A9806820F07AFFB0FAB2
:10AB000080F040090BB05DF804FB0000BC2200217E
:10AB10000148FBF7C3BB00BF041E002010B5074C63
:10AB200023784BB90123606004F10C00237003F01B
:10AB300075FC04F1100010BD0020FCE7041E00208D
:10AB400008B5054B984204D1043803F079FC012084
:10AB500008BD0020FCE700BF141E00202DE9F843CB
:10AB60000F4D064695F800900F46B9F1010F1446B7
:10AB700014D105F10C08404603F038FC404603F0C0
:10AB800065FC386034B10430C6F800803860204677
:10AB9000BDE8F88310354C463560F8E70024F6E749
:10ABA000041E00200022024B5A601A70704700BF3A
:10ABB000041E0020064B10B55B68044603B198479D
:10ABC000E378012B03D1BDE81040FFF7EBBF10BDC8
:10ABD000041E0020002313B5ADF804300123104CEF
:10ABE0008DF8073063788DF8060093B12378C3F3AE
:10ABF000C20304EB83035B680BB101A89847237879
:10AC0000C3F3C202013262F3C50323706378013BD0
:10AC10006370044B1B6803B1984702B010BD00BFBE
:10AC2000C81E0020101F002010B50E4C63788BB199
:10AC30002378C3F3C20304EB83035B6803B1984733
:10AC40002378C3F3C202013262F3C5032370637831
:10AC5000013B6370044B1B6813B1BDE810401847FB
:10AC600010BD00BFEC1E0020101F002010B50C46C8
:10AC700000F07CFE074B084A1860084B1C601388E4
:10AC800003F0C0031380064A138803F0C003138047
:10AC900010BD00BF141F0020C81E0020101F002080
:10ACA000EC1E002070B5134D06462B7A0C468B42E5
:10ACB0001AD3C9B100F066FE00F086FB30B9AEB918
:10ACC0001C21E86801FB0400183870BD1C206FF0DF
:10ACD0001B0110FB0410EC68044416B904F10C00CD
:10ACE000F3E704F11400F0E70020EEE705F11800A7
:10ACF000EBE700BF181F0020F0B514465268C1B042
:10AD00001279CDE9001002B9A270254D6A78072AA0
:10AD100041D82A7802F0070205EB82025360009BBB
:10AD2000AA2B3AD82246694601A803F085F866683E
:10AD3000009F33883A46ADF8BC301A4B0199039313
:10AD400023780DF112008DF8103028F053FB00230A
:10AD5000ADF8BE308DF8C13063788DF8117043F0D6
:10AD600001038DF8C03073794FF47A628DF8C230E8
:10AD700001238DF808300C4B02A9186820F039FE29
:10AD800038B92B785A1C62F302032B706B780133AD
:10AD90006B7041B0F0BD0120FBE70220F9E700BF76
:10ADA000C81E0020D5AB0008141F0020F0B5264CAB
:10ADB000C1B0CDE9001060781546072802D90120FE
:10ADC00041B0F0BD207800F0070004EB8000436044
:10ADD000002AF4D0AA2935D8694601A803F02CF836
:10ADE0006E68009F33883A46ADF8BC30174B019926
:10ADF00003932B780DF112008DF8103028F0FAFA39
:10AE00000023ADF8BE308DF8C1306B788DF811702D
:10AE10008DF8C03073794FF47A628DF8C230012317
:10AE20008DF808300A4B02A9186820F0E2FD0028CE
:10AE3000C6D123785A1C62F302032370637801336E
:10AE40006370BDE70220BBE7EC1E002029AC0008C0
:10AE5000141F002030B5114A114C438854600A6019
:10AE600023800379A178C3F3060513F07F0318BF8D
:10AE7000012365F30601A1702371437863712523D3
:10AE8000137003789B0744BF27231370037AC3F31F
:10AE9000060393700023537030BD00BF381F00209D
:10AEA000C01E0020037813F00C0F14BF01200020F7
:10AEB0007047000008B50246FFF7F4FF074B38B9AA
:10AEC00092F90820002A06DB1878421E50425041B1
:10AED00000221A7008BD0120FAE700BF181F0020E9
:10AEE000014B1870704700BF181F002000207047EA
:10AEF00070B5002405460E461378B2B08DF81030B8
:10AF0000537B21468DF81130138907A8ADF8123014
:10AF10009DF81430AA226FF306038DF814309DF8C3
:10AF20001A308DF8184064F300038DF81A308DF84C
:10AF30000B40FBF7B3F90DF10B03009332462946A2
:10AF400007AB04A8FFF77EFC04280FD09DF80B3058
:10AF500053B103A904A8FFF77DFF2346039A9DF888
:10AF60000B1007A8FFF722FF32B070BD324629460A
:10AF700004A8FFF7BBFFF7E700223A4B2DE9F341A6
:10AF8000394D19782A7019B11A7002B0BDE8F081F4
:10AF9000364C374E217881B13268364B571A7A4297
:10AFA0007A41DA70344A12881A8000B18078987039
:10AFB000324B1B680BB12F48984721783368994270
:10AFC000E3D22F4B1A6853788DF800302D4B1B7845
:10AFD0008DF8013029B9990744BF43F004038DF877
:10AFE00001309378234E8DF8023001F0D5FC224ACF
:10AFF0000388019013803380234B1A7812F00702E4
:10B0000006D0224B1A781AB190F90220D243D20FFF
:10B01000DFF884801E4F41463846FFF79FFD48B950
:10B020004FF481737380154B1B68002BADD0114812
:10B030009847AAE76A46174BD8F800103868FFF718
:10B040005BFE40B10223B37001F0C0FCB0FA80F0A7
:10B050004009F070E7E701232B7023780133237058
:10B0600093E700BF451F00204D1F0020641F0020F4
:10B070005C1F0020661F0020621F0020501F002060
:10B08000581F00206A1F0020601F0020441F00205E
:10B09000541F002079AF0008401F002007B5074B60
:10B0A0008DF806001B8801A8ADF8043001238DF847
:10B0B0000730FFF761FF03B05DF804FB621F00205B
:10B0C00030B5002485B0194D6A462868009400F117
:10B0D00008010430ADF8044001F08CFC144B1870EA
:10B0E0009DF90230002B1DDA2B6812495A789B78A3
:10B0F0008DF808204FF000028DF80A308DF80920F5
:10B100000D4BBDF800200D481A8009680C4B0068F3
:10B1100002AACDF80CD0FFF7EFFD003818BF0120D0
:10B1200005B030BD0028CED10220F9E7581F00201D
:10B130004C1F0020401F0020621F0020541F0020D1
:10B1400045B200082DE9F0410024C6B01D21684633
:10B1500020F052FF324B334F1C70334B3C701D6854
:10B16000AA2D58D8AA2221460DF12A00FBF796F8FD
:10B170002E4B2A4619680DF12A0028F03BF92C4B7A
:10B180008DF8295009938DF8284001F01FFC294DB6
:10B190000128286041D9284B93F80080B8F1000FAE
:10B1A0003BD1264E33689B69187910F007041CD0F8
:10B1B000234B1B681B788DF8D530FF238DF8D430D6
:10B1C00000F002F902233B7004238DF8D6008DF8BD
:10B1D000203033680022186808A920F00AFC0038E3
:10B1E00018BF012046B0BDE8F08101F0D5FB017821
:10B1F000684620F0F5FE2B6801349C42F5D303230A
:10B200006C4635AD8DF820300FCC0FC594E80F009B
:10B2100007C52B70DDE70120E4E70220E2E700BF6D
:10B22000641F00206A1F0020401F0020541F0020C0
:10B230009DB000085C1F00204C1F0020481F00200C
:10B24000581F002070B5214D04462B880380837859
:10B2500053B101F0BBFBB0FA80F01D4B4009E07028
:10B260001B680BB1204698471A4B1B788BB901F02D
:10B27000ADFB194B1860F0B1FFF764FF2B88012874
:10B2800023800CD0022815D12046BDE87040FFF77E
:10B2900073BEFFF715FF2B880128238008D10223F6
:10B2A000A37001F093FBB0FA80F04009E07004E075
:10B2B0000228DCD070BD0123E370054B1B68002B16
:10B2C000F8D02046BDE87040184700BF621F00203C
:10B2D000501F00204C1F00205C1F002008B500F00C
:10B2E00039FB014B186008BD481F0020F8B5144613
:10B2F0000BB90020F8BD1A7A002AFAD00028F8D03D
:10B300000029F6D0069E1F4A16601F4E33601F4B61
:10B3100018601F4B1960FFF713FC0028E9D01D4B84
:10B320001D4A1C701D4B1B689B691B79137013F021
:10B33000070318D0221E18BF012215491348FFF732
:10B340000DFC0028D5D00024154B1C70154B1C702B
:10B350003368586801F004FB134B1C80FFF7B0FE04
:10B3600018B90120C6E71A46E7E70128C1D0FFF760
:10B37000E9FE0028F5D00128BBD02046FFF7FCFDF0
:10B38000EFE700BF501F0020581F0020541F00206F
:10B39000401F0020441F0020601F0020481F002085
:10B3A0004D1F0020451F0020621F002008B5044BE0
:10B3B000187820B9FFF7E0FD0122024B1A7008BD92
:10B3C0004D1F0020451F002042070AD483070AD4DE
:10B3D00010F0010303D110F0800F18BF04231846AA
:10B3E00070470323FBE70223F9E7000038B500F0BC
:10B3F000EBFA094D2C1D28B92B6893E8030084E86B
:10B40000030038BD00F0BEFAFFF7DEFF0028F3D0DE
:10B410002B68D3E90201F2E79C1F002008B5054B19
:10B420001860054B1960FFF7E1FFFFF76FFB012084
:10B4300008BD00BF9C1F00206C1F0020F8B50D4602
:10B4400016462F4C00284FD021BB00F09BFA9EB926
:10B450002C4B1B6870B9236000232B4A2B4E2568A8
:10B46000166013712979D8B281420BD8264B23601C
:10B470002068F8BD0833EEE731462846FFF712FC96
:10B480002060E9E72F681179385C0133705401318D
:10B490001171E7E700F076FAFFF796FFA8421ED198
:10B4A000BEB9184B1B6810332360013D022DDFD855
:10B4B0000023154A154D216815601371137908682A
:10B4C000C05CEF28D2D00E799E42CFD9E854013328
:10B4D000F3E731460120FFF7E5FB2060E5E70022B6
:10B4E000094B1A601A71C2E722B90029F7D1054B3E
:10B4F0001B68BCE71146FFF7D5FB2060B8E700BF2B
:10B50000A81F00209C1F0020941F0020701F0020F7
:10B5100008B5FFF76BFF034B1B6803B19847012089
:10B5200008BD00BF6C1F00200020FFF7F1BF000026
:10B5300030B50C46104B91F8AE50197A85B01A68A8
:10B5400002915B6821790193137D94F8BD0000930B
:10B5500013696279FFF740FA60B1294604F1B0023D
:10B56000201DFFF7C5FC054B1B681BB105B0BDE8EE
:10B570003040184705B030BD9C1F00206C1F0020D4
:10B5800030B50446084B85B01D7A10461A680295FE
:10B590005B680193137D009313690A462146FFF708
:10B5A0001BFA05B030BD00BF9C1F0020014B186086
:10B5B000704700BFAC1F002007B5074B8DF8070090
:10B5C000002218680DF1070120F013FAB0FA80F09C
:10B5D000400903B05DF804FBAC1F002007B5074B22
:10B5E0008DF807000DF10701186820F02AFAB0FA6B
:10B5F00080F0400903B05DF804FB00BFAC1F0020E1
:10B60000002307B501210093044A054B042008F0EC
:10B6100045F9044B186003B05DF804FB00200020DE
:10B62000B01F002004200020114B17B41B685A687B
:10B630009C681078117A10F0020F4FF000001B6820
:10B64000C1F306018DF8021001940CBF25212721BA
:10B650008DF8010043B18DF8001002A911E9030033
:10B6600003B05DF8044B184703B05DF8044B704716
:10B670003820002008B50021074A0848FFF7A2F843
:10B6800048B10023064AC2E90033C2E90433C2E9E3
:10B690000833044A136008BD61B800083C2000204C
:10B6A0000820002038200020F0B50E461546074639
:10B6B00089B018B90025284609B0F0BD0029F9D095
:10B6C0000868496802AB03C3B068186002A8FFF7B6
:10B6D000E9FB014608B10125EDE701908DF8030073
:10B6E0000DF10303012001AA00F09EFE9DF8033036
:10B6F000002BF0D0012B0ED1019BBDF80A101A8847
:10B70000914208D19DF80C209B7802F07F0203F053
:10B710007F039A42DFD0244C2DB3244820F048FA0E
:10B72000054600B322464FF0000C1368BB4213D10C
:10B73000D2F804E005ABDEF80000DEF8041003C325
:10B74000DEF8080018609DF8103043405B0603D116
:10B75000164820F0FAF9AEE70CF1040CBCF10C0F1E
:10B7600002F11002E1D123682BB12369CBB1236A26
:10B77000002B9FD1022319016750019904EB03129A
:10B7800091609DF8031056601173094A11680029F1
:10B79000A1D104EB0314FA210448146020F056F9F7
:10B7A00099E70123E7E700BF082000203C200020A4
:10B7B000382000202DE9F04100210325264C2748A0
:10B7C000226800F1100600F12007137B013BDBB279
:10B7D0001373002B3CD18242C2E9003393602CD01A
:10B7E000B2422CD0BA422CD102210B460133B3FB1A
:10B7F000F5F202EB42029B1A1A01825800EB031C7D
:10B800000AB362460121D2F804C0D2F808E09CF8DD
:10B810000430BEF80080BCF802C003F07F03E045AE
:10B8200005D19EF802C00CF07F0C9C45CDD001B133
:10B830002260BDE8F041FFF7F7BE1946D5E70121C8
:10B84000D3E70321D2E79942D0D12260BDE8F0814D
:10B85000936806339360D6E7382000200820002044
:10B860000C4B834214D10C4B1B68D3E90123508845
:10B870001988884207D112799B7802F07F0203F081
:10B880007F039A4201D0FFF7CFBE0020FFF792BF9F
:10B89000704700BF3C2000203820002008B5C36955
:10B8A00003B19847002008BD08B5036A03B1984763
:10B8B000002008BD10B51C4600F032F800F050F82A
:10B8C00000F06EF820B1002025F00EFA00F036F8F6
:10B8D0000020FFF703FD21460020FFF7C7F9FFF71F
:10B8E000C9FE03210848FFF73AF800F02DF800F0F0
:10B8F00051F80021054AFFF743F8BDE81040002148
:10B900000348FEF7BBBF00BF7C20002031B5000814
:10B910009DB8000800210148FEF7B0BFA9B8000893
:10B92000034B1860034B1960034B1A60704700BF4C
:10B93000B0200020BC200020C0200020014B186057
:10B94000704700BFB8200020014B1860704700BF4F
:10B95000B4200020014B1868704700BFBC200020B5
:10B96000014B1B6898687047C0200020014B1B6882
:10B9700018687047BC200020014B1868704700BF52
:10B98000C0200020024B1B689B691879704700BFDC
:10B99000BC200020014B1868704700BFB420002075
:10B9A000044B1B689B681B7813F0300F14BF0120F9
:10B9B00000207047C0200020024B1B689B6918784C
:10B9C000704700BFBC200020024B1B689B69D888D1
:10B9D000704700BFBC20002008B5FFF7F5FF48B155
:10B9E000E82808D9A0F5807080B2B0F5806F2CBF30
:10B9F0000020022008BD0120FCE7092807D93028D3
:10BA000005D0203801288CBF00200120704701207C
:10BA10007047F0B54D7804466B1E0E46B3B00A2B46
:10BA200078D8DFE803F0270677333E7777777777A4
:10BA30006000FFF73FFA0746C8B90146AA2207A8E7
:10BA4000FAF72CFC207A04AB07AA314600F07F00FD
:10BA500000F0F0FE204603A9FFF7FCF9DDE9032121
:10BA60003B4607A8FFF7A2F9002808BFFF25284694
:10BA700033B0F0BD007A8523314600F07F0000F03E
:10BA800059FE08B1FF25F2E70225F0E7022AFBD9AB
:10BA9000017A1346B078324601F07F0100F0C0FD14
:10BAA000EFE7FFF707FA0028EED1AA22014601903E
:10BAB00007A8FAF7F3FB204604A9FFF7CBF9852284
:10BAC0008DF81C200622207A8DF81D2000F07F00C2
:10BAD00000F0FAFC8DF81E000321019B049A07A8D0
